{"contracts/Promissory.sol":{"Promissory":{"abi":[{"inputs":[],"stateMutability":"nonpayable","type":"constructor"},{"anonymous":false,"inputs":[{"indexed":true,"internalType":"uint256","name":"PropertyId","type":"uint256"},{"indexed":true,"internalType":"uint256","name":"InterestRate","type":"uint256"}],"name":"InterestRateUpdated","type":"event"},{"anonymous":false,"inputs":[{"indexed":false,"internalType":"uint256","name":"PropertyId","type":"uint256"},{"indexed":false,"internalType":"address","name":"Investor","type":"address"},{"indexed":false,"internalType":"uint256","name":"InvestmentAmount","type":"uint256"},{"indexed":false,"internalType":"uint256","name":"TokenSupply","type":"uint256"},{"indexed":false,"internalType":"uint256","name":"InterestRate","type":"uint256"}],"name":"Invested","type":"event"},{"anonymous":false,"inputs":[{"indexed":true,"internalType":"address","name":"PropertyOwner","type":"address"},{"indexed":true,"internalType":"uint256","name":"PropertyId","type":"uint256"},{"indexed":true,"internalType":"uint256","name":"ClaimedAmount","type":"uint256"}],"name":"InvestmentClaimed","type":"event"},{"anonymous":false,"inputs":[{"indexed":true,"internalType":"address","name":"PropertyOwner","type":"address"},{"indexed":true,"internalType":"address","name":"Investor","type":"address"},{"indexed":true,"internalType":"uint256","name":"ReturnedAmount","type":"uint256"},{"indexed":false,"internalType":"uint256","name":"InvestedAmount","type":"uint256"}],"name":"InvestmentReturned","type":"event"},{"anonymous":false,"inputs":[{"indexed":true,"internalType":"uint256","name":"PropertyId","type":"uint256"},{"indexed":true,"internalType":"uint256","name":"LockingPeriod","type":"uint256"}],"name":"LockingPeriodUpdated","type":"event"},{"anonymous":false,"inputs":[{"indexed":true,"internalType":"uint256","name":"PropertyId","type":"uint256"},{"indexed":true,"internalType":"address","name":"PropertyOwner","type":"address"},{"indexed":false,"internalType":"string","name":"PropertyTokenName","type":"string"},{"indexed":false,"internalType":"string","name":"PropertyTokenSymbol","type":"string"},{"indexed":false,"internalType":"uint256","name":"PropertyTokenSupply","type":"uint256"},{"indexed":false,"internalType":"uint256","name":"PropertyInterestRate","type":"uint256"},{"indexed":false,"internalType":"uint256","name":"PropertyLockingPeriod","type":"uint256"}],"name":"PropertyAdded","type":"event"},{"anonymous":false,"inputs":[{"indexed":true,"internalType":"uint256","name":"PropertyId","type":"uint256"},{"indexed":true,"internalType":"address","name":"PropertyOwner","type":"address"},{"indexed":false,"internalType":"string","name":"TokenName","type":"string"},{"indexed":false,"internalType":"string","name":"TokenSymbol","type":"string"},{"indexed":false,"internalType":"uint256","name":"TokenSupply","type":"uint256"},{"indexed":true,"internalType":"address","name":"PropertyTokenAddress","type":"address"},{"indexed":false,"internalType":"enum Promissory.PropertyStatus","name":"Status","type":"uint8"},{"indexed":false,"internalType":"uint256","name":"NumberOfLockedTokens","type":"uint256"}],"name":"PropertyApprovedAndTokenized","type":"event"},{"anonymous":false,"inputs":[{"indexed":true,"internalType":"uint256","name":"PropertyId","type":"uint256"},{"indexed":true,"internalType":"address","name":"PropertyOwner","type":"address"}],"name":"PropertyBanned","type":"event"},{"anonymous":false,"inputs":[{"indexed":true,"internalType":"address","name":"PropertyOwner","type":"address"},{"indexed":true,"internalType":"uint256","name":"PropertyId","type":"uint256"},{"indexed":true,"internalType":"uint256","name":"ClaimedTokens","type":"uint256"}],"name":"PropertyTokensClaimed","type":"event"},{"anonymous":false,"inputs":[{"indexed":true,"internalType":"address","name":"Investor","type":"address"},{"indexed":true,"internalType":"uint256","name":"PropertyId","type":"uint256"},{"indexed":true,"internalType":"uint256","name":"ReturnedAmount","type":"uint256"}],"name":"ReturnClaimed","type":"event"},{"anonymous":false,"inputs":[{"indexed":true,"internalType":"address","name":"Owner","type":"address"},{"indexed":true,"internalType":"uint256","name":"PropertyId","type":"uint256"},{"indexed":false,"internalType":"uint256","name":"TokenSupply","type":"uint256"}],"name":"TokenSupplyUpdated","type":"event"},{"inputs":[],"name":"USDT","outputs":[{"internalType":"address","name":"","type":"address"}],"stateMutability":"view","type":"function"},{"inputs":[],"name":"_propertyIdCount","outputs":[{"internalType":"uint256","name":"_value","type":"uint256"}],"stateMutability":"view","type":"function"},{"inputs":[{"internalType":"string","name":"_tokenName","type":"string"},{"internalType":"string","name":"_tokenSymbol","type":"string"},{"internalType":"uint256","name":"_tokenSupply","type":"uint256"},{"internalType":"uint256","name":"_interestRate","type":"uint256"},{"internalType":"uint256","name":"_lockingPeriod","type":"uint256"}],"name":"addProperty","outputs":[],"stateMutability":"nonpayable","type":"function"},{"inputs":[{"internalType":"uint256","name":"_propertyId","type":"uint256"}],"name":"approveProperty","outputs":[],"stateMutability":"nonpayable","type":"function"},{"inputs":[{"internalType":"uint256","name":"_propertyId","type":"uint256"}],"name":"banProperty","outputs":[],"stateMutability":"nonpayable","type":"function"},{"inputs":[{"internalType":"uint256","name":"_propertyId","type":"uint256"},{"internalType":"uint256","name":"_numberOfTokensToClaim","type":"uint256"}],"name":"claimInvestment","outputs":[],"stateMutability":"nonpayable","type":"function"},{"inputs":[{"internalType":"uint256","name":"_propertyId","type":"uint256"},{"internalType":"uint256","name":"_claimTokens","type":"uint256"}],"name":"claimPropertyTokens","outputs":[],"stateMutability":"nonpayable","type":"function"},{"inputs":[{"internalType":"uint256","name":"_propertyId","type":"uint256"},{"internalType":"uint256","name":"_returnAmount","type":"uint256"}],"name":"claimReturn","outputs":[],"stateMutability":"nonpayable","type":"function"},{"inputs":[{"internalType":"uint256","name":"","type":"uint256"}],"name":"claimedInvestment","outputs":[{"internalType":"uint256","name":"","type":"uint256"}],"stateMutability":"view","type":"function"},{"inputs":[{"internalType":"uint256","name":"_propertyId","type":"uint256"}],"name":"getAllInvestments","outputs":[{"components":[{"internalType":"address","name":"investor","type":"address"},{"internalType":"uint256","name":"investmentAmount","type":"uint256"},{"internalType":"uint256","name":"timeStamp","type":"uint256"}],"internalType":"struct Promissory.Investment[]","name":"","type":"tuple[]"}],"stateMutability":"view","type":"function"},{"inputs":[],"name":"getAllProperties","outputs":[{"components":[{"internalType":"uint256","name":"propertyId","type":"uint256"},{"internalType":"address","name":"owner","type":"address"},{"internalType":"string","name":"tokenName","type":"string"},{"internalType":"string","name":"tokenSymbol","type":"string"},{"internalType":"uint256","name":"tokenSupply","type":"uint256"},{"internalType":"uint256","name":"interestRate","type":"uint256"},{"internalType":"uint256","name":"lockingPeriod","type":"uint256"},{"internalType":"enum Promissory.PropertyStatus","name":"status","type":"uint8"}],"internalType":"struct Promissory.Property[]","name":"","type":"tuple[]"}],"stateMutability":"view","type":"function"},{"inputs":[],"name":"getProperties","outputs":[{"components":[{"internalType":"uint256","name":"propertyId","type":"uint256"},{"internalType":"address","name":"owner","type":"address"},{"internalType":"string","name":"tokenName","type":"string"},{"internalType":"string","name":"tokenSymbol","type":"string"},{"internalType":"uint256","name":"tokenSupply","type":"uint256"},{"internalType":"uint256","name":"interestRate","type":"uint256"},{"internalType":"uint256","name":"lockingPeriod","type":"uint256"},{"internalType":"enum Promissory.PropertyStatus","name":"status","type":"uint8"}],"internalType":"struct Promissory.Property[]","name":"","type":"tuple[]"}],"stateMutability":"view","type":"function"},{"inputs":[{"internalType":"uint256","name":"_propertyId","type":"uint256"},{"internalType":"uint256","name":"_investmentAmount","type":"uint256"}],"name":"investInProperty","outputs":[],"stateMutability":"nonpayable","type":"function"},{"inputs":[{"internalType":"uint256","name":"","type":"uint256"},{"internalType":"address","name":"","type":"address"}],"name":"investments","outputs":[{"internalType":"address","name":"investor","type":"address"},{"internalType":"uint256","name":"investmentAmount","type":"uint256"},{"internalType":"uint256","name":"timeStamp","type":"uint256"}],"stateMutability":"view","type":"function"},{"inputs":[{"internalType":"uint256","name":"","type":"uint256"}],"name":"lockedTokens","outputs":[{"internalType":"uint256","name":"","type":"uint256"}],"stateMutability":"view","type":"function"},{"inputs":[],"name":"promissoryOwner","outputs":[{"internalType":"address","name":"","type":"address"}],"stateMutability":"view","type":"function"},{"inputs":[{"internalType":"uint256","name":"","type":"uint256"}],"name":"property","outputs":[{"internalType":"uint256","name":"propertyId","type":"uint256"},{"internalType":"address","name":"owner","type":"address"},{"internalType":"string","name":"tokenName","type":"string"},{"internalType":"string","name":"tokenSymbol","type":"string"},{"internalType":"uint256","name":"tokenSupply","type":"uint256"},{"internalType":"uint256","name":"interestRate","type":"uint256"},{"internalType":"uint256","name":"lockingPeriod","type":"uint256"},{"internalType":"enum Promissory.PropertyStatus","name":"status","type":"uint8"}],"stateMutability":"view","type":"function"},{"inputs":[{"internalType":"uint256","name":"","type":"uint256"},{"internalType":"uint256","name":"","type":"uint256"}],"name":"propertyIdToInvestment","outputs":[{"internalType":"address","name":"investor","type":"address"},{"internalType":"uint256","name":"investmentAmount","type":"uint256"},{"internalType":"uint256","name":"timeStamp","type":"uint256"}],"stateMutability":"view","type":"function"},{"inputs":[{"internalType":"uint256","name":"","type":"uint256"}],"name":"propertyIdToProperty","outputs":[{"internalType":"uint256","name":"propertyId","type":"uint256"},{"internalType":"address","name":"owner","type":"address"},{"internalType":"string","name":"tokenName","type":"string"},{"internalType":"string","name":"tokenSymbol","type":"string"},{"internalType":"uint256","name":"tokenSupply","type":"uint256"},{"internalType":"uint256","name":"interestRate","type":"uint256"},{"internalType":"uint256","name":"lockingPeriod","type":"uint256"},{"internalType":"enum Promissory.PropertyStatus","name":"status","type":"uint8"}],"stateMutability":"view","type":"function"},{"inputs":[{"internalType":"uint256","name":"","type":"uint256"}],"name":"propertyIdToTokenAddress","outputs":[{"internalType":"address","name":"","type":"address"}],"stateMutability":"view","type":"function"},{"inputs":[{"internalType":"uint256","name":"_propertyId","type":"uint256"},{"internalType":"address","name":"_investor","type":"address"}],"name":"returnInvestment","outputs":[],"stateMutability":"nonpayable","type":"function"},{"inputs":[{"internalType":"uint256","name":"","type":"uint256"}],"name":"totalInvestedAmount","outputs":[{"internalType":"uint256","name":"","type":"uint256"}],"stateMutability":"view","type":"function"},{"inputs":[{"internalType":"uint256","name":"_propertyId","type":"uint256"},{"internalType":"uint256","name":"_interestRate","type":"uint256"}],"name":"updateInterestRate","outputs":[],"stateMutability":"nonpayable","type":"function"},{"inputs":[{"internalType":"uint256","name":"_propertyId","type":"uint256"},{"internalType":"uint256","name":"_updateLockingPeriod","type":"uint256"}],"name":"updateLockingPeriod","outputs":[],"stateMutability":"nonpayable","type":"function"},{"inputs":[{"internalType":"uint256","name":"_propertyId","type":"uint256"},{"internalType":"uint256","name":"_tokenSupply","type":"uint256"}],"name":"updateTokenSupply","outputs":[],"stateMutability":"nonpayable","type":"function"}],"evm":{"bytecode":{"linkReferences":{},"object":"608060405234801561001057600080fd5b50600180546001600160a01b03199081167378315cf7082dbb0174da3286d436bfe7577df8361790915560008054909116736010ad99dc78ae5cefd2f9fdec10a73eaf245450179055613c0d806100686000396000f3fe60806040523480156200001157600080fd5b50600436106200014e5760003560e01c806316280548146200015357806319004eaa146200016c57806330e1ad3214620001a25780633d51402c14620001b9578063514ff60214620001d257806354302a6d14620001e95780636ac2084514620002005780636f0a79c3146200022d5780637018f133146200024457806370e74ed8146200025b5780637178acaf14620002725780639c8376a2146200028c578063b1166a6514620002a3578063b11b32d214620002ba578063bbe02ea61462000327578063c1906396146200034a578063c37601d61462000376578063c54e44eb1462000399578063ca41920214620003ad578063dcec329414620003c4578063e1769b1f14620003e7578063e187c4d0146200040d578063e9b66f8c1462000424578063eb1cf0d6146200043b578063ec0cfd0b1462000452575b600080fd5b6200016a62000164366004620026a4565b6200045c565b005b620001836200017d366004620026a4565b6200059e565b6040516200019998979695949392919062002747565b60405180910390f35b62000183620001b3366004620026a4565b6200070d565b620001c362000756565b604051620001999190620027bb565b6200016a620001e3366004620028a0565b62000a3e565b6200016a620001fa366004620028de565b62000cfe565b60015462000214906001600160a01b031681565b6040516001600160a01b03909116815260200162000199565b6200016a6200023e366004620028de565b62001194565b6200016a62000255366004620028de565b62001292565b6200016a6200026c366004620028de565b62001390565b6003546200027d9081565b60405190815260200162000199565b6200016a6200029d366004620028de565b620015a8565b6200016a620002b4366004620028de565b62001816565b62000301620002cb366004620028a0565b60096020908152600092835260408084209091529082529020805460018201546002909201546001600160a01b03909116919083565b604080516001600160a01b03909416845260208401929092529082015260600162000199565b6200027d62000338366004620026a4565b60086020526000908152604090205481565b620002146200035b366004620026a4565b6005602052600090815260409020546001600160a01b031681565b6200027d62000387366004620026a4565b60076020526000908152604090205481565b60005462000214906001600160a01b031681565b6200016a620003be366004620028de565b62001b7d565b6200027d620003d5366004620026a4565b60066020526000908152604090205481565b620003fe620003f8366004620026a4565b62001c92565b60405162000199919062002901565b6200016a6200041e36600462002a0f565b62001d29565b6200016a62000435366004620026a4565b62001fcf565b620003016200044c366004620028de565b62002312565b620001c36200235f565b6001546001600160a01b03163314620004925760405162461bcd60e51b8152600401620004899062002a94565b60405180910390fd5b600160008281526004602052604090206007015460ff166003811115620004bd57620004bd6200270e565b14620005065760405162461bcd60e51b815260206004820152601760248201527650726f706572747920646f206e6f74206578697374212160481b604482015260640162000489565b6000600282815481106200051e576200051e62002adb565b600091825260208083206007600890930201828101805460ff1990811660039081179092558786526004909352604080862094850180549094169091179092556001929092015490519193506001600160a01b03169184917f20c3f6c05c7e19bdede114be8541156ce9a11f5514af34a95876a8c4c72ac19d9190a35050565b60046020526000908152604090208054600182015460028301805492936001600160a01b0390921692620005d29062002af1565b80601f0160208091040260200160405190810160405280929190818152602001828054620006009062002af1565b8015620006515780601f10620006255761010080835404028352916020019162000651565b820191906000526020600020905b8154815290600101906020018083116200063357829003601f168201915b505050505090806003018054620006689062002af1565b80601f0160208091040260200160405190810160405280929190818152602001828054620006969062002af1565b8015620006e75780601f10620006bb57610100808354040283529160200191620006e7565b820191906000526020600020905b815481529060010190602001808311620006c957829003601f168201915b505050506004830154600584015460068501546007909501549394919390925060ff1688565b600281815481106200071e57600080fd5b60009182526020909120600890910201805460018201546002830180549294506001600160a01b039091169291620005d29062002af1565b606060006200076460035490565b6001600160401b038111156200077e576200077e62002965565b604051908082528060200260200182016040528015620007bb57816020015b620007a76200258f565b8152602001906001900390816200079d5790505b5090506000805b600354811162000a3657600060028281548110620007e457620007e462002adb565b906000526020600020906008020160000154111562000a21576002818154811062000813576200081362002adb565b906000526020600020906008020160405180610100016040529081600082015481526020016001820160009054906101000a90046001600160a01b03166001600160a01b03166001600160a01b03168152602001600282018054620008789062002af1565b80601f0160208091040260200160405190810160405280929190818152602001828054620008a69062002af1565b8015620008f75780601f10620008cb57610100808354040283529160200191620008f7565b820191906000526020600020905b815481529060010190602001808311620008d957829003601f168201915b50505050508152602001600382018054620009129062002af1565b80601f0160208091040260200160405190810160405280929190818152602001828054620009409062002af1565b8015620009915780601f10620009655761010080835404028352916020019162000991565b820191906000526020600020905b8154815290600101906020018083116200097357829003601f168201915b5050509183525050600482015460208201526005820154604082015260068201546060820152600782015460809091019060ff166003811115620009d957620009d96200270e565b6003811115620009ed57620009ed6200270e565b8152505083838151811062000a065762000a0662002adb565b602090810291909101015262000a1e8260016200256c565b91505b8062000a2d8162002b44565b915050620007c2565b509092915050565b6000828152600460205260409020600101546001600160a01b0316331462000a7a5760405162461bcd60e51b8152600401620004899062002b62565b600082815260046020908152604080832060060154600983528184206001600160a01b0386168552909252909120600201544291829162000abc919062002ba9565b1062000b175760405162461bcd60e51b815260206004820152602360248201527f4c6f636b696e6720706572696f642069736e277420636f6d706c65746564207960448201526265742160e81b606482015260840162000489565b60008381526009602090815260408083206001600160a01b03861684528252808320600101548684526004909252822060050154909162000b6761271062000b60848662002bc4565b9062002581565b60008781526009602090815260408083206001600160a01b038a1684529091528120600101549192509062000b9e90839062002ba9565b60005460405163095ea7b360e01b81529192506001600160a01b03169063095ea7b39062000bd3903090859060040162002be6565b6020604051808303816000875af115801562000bf3573d6000803e3d6000fd5b505050506040513d601f19601f8201168201806040525081019062000c19919062002bff565b506000546040516323b872dd60e01b81526001600160a01b03909116906323b872dd9062000c509033903090869060040162002c23565b6020604051808303816000875af115801562000c70573d6000803e3d6000fd5b505050506040513d601f19601f8201168201806040525081019062000c96919062002bff565b5060008781526009602090815260408083206001600160a01b038a168085529083529281902060010154905190815283929133917f645022e31d6162246261bb5098eb1ecd11cb872ee031fab138452aafc9240db2910160405180910390a450505050505050565b600260008381526004602052604090206007015460ff16600381111562000d295762000d296200270e565b1462000db05760405162461bcd60e51b815260206004820152604960248201527f50726f70657274792069736e277420617070726f76656420796574212c20576160448201527f697420666f7220706c6174666f726d20746f20617070726f7665207468697320606482015268383937b832b93a3c9760b91b608482015260a40162000489565b60008281526006602052604090205481111562000e365760405162461bcd60e51b815260206004820152603f60248201527f496e76657374656420416d6f756e74206578636565647320746865206e756d6260448201527f6572206f662050726f706572747920546f6b656e7320617661696c61626c6500606482015260840162000489565b60005460405163095ea7b360e01b81526001600160a01b039091169063095ea7b39062000e6a903090859060040162002be6565b6020604051808303816000875af115801562000e8a573d6000803e3d6000fd5b505050506040513d601f19601f8201168201806040525081019062000eb0919062002bff565b506000546040516323b872dd60e01b81526001600160a01b03909116906323b872dd9062000ee79033903090869060040162002c23565b6020604051808303816000875af115801562000f07573d6000803e3d6000fd5b505050506040513d601f19601f8201168201806040525081019062000f2d919062002bff565b506000828152600760205260408120805483929062000f4e90849062002ba9565b90915550506000828152600560205260409081902054905163095ea7b360e01b81526001600160a01b039091169063095ea7b39062000f94903390859060040162002be6565b6020604051808303816000875af115801562000fb4573d6000803e3d6000fd5b505050506040513d601f19601f8201168201806040525081019062000fda919062002bff565b50600082815260056020526040908190205490516323b872dd60e01b81526001600160a01b03909116906323b872dd906200101e9030903390869060040162002c23565b6020604051808303816000875af11580156200103e573d6000803e3d6000fd5b505050506040513d601f19601f8201168201806040525081019062001064919062002bff565b50600082815260066020526040812080548392906200108590849062002c47565b909155505060408051606080820183523380835260208084018681524285870181815260008a8152600985528881208682528552888120975188546001600160a01b03199081166001600160a01b03928316178a5594516001808b0191825593516002808c019182558e8552600a89528c8520805480880182559086528986209c546003909102909c0180549c9094169b9097169a909a178255549281019290925596549201919091558785526004808352948690209485015460059095015486518981529283019390935281860187905292810193909352608083015291517f5b6aba494d396d077ec63d680e22ee6cc881e6182750f6869757afeb3f65c7fb9181900360a00190a1505050565b600160008381526004602052604090206007015460ff166003811115620011bf57620011bf6200270e565b14620011df5760405162461bcd60e51b8152600401620004899062002c61565b6000828152600460205260409020600101546001600160a01b031633146200121b5760405162461bcd60e51b8152600401620004899062002cae565b6000828152600460205260408120600501829055600280548490811062001246576200124662002adb565b9060005260206000209060080201905081816005018190555081837f41e376fd99913dea7fda140f5c0bd997515b1a181acc58737320322548ec6e7260405160405180910390a3505050565b600160008381526004602052604090206007015460ff166003811115620012bd57620012bd6200270e565b14620012dd5760405162461bcd60e51b8152600401620004899062002c61565b6000828152600460205260409020600101546001600160a01b03163314620013195760405162461bcd60e51b8152600401620004899062002cae565b6000828152600460205260408120600601829055600280548490811062001344576200134462002adb565b9060005260206000209060080201905081816006018190555081837f579a94973cd8ae08593ee544f98e6c6c7f33b886a3ee478234ae587dfc75ff5f60405160405180910390a3505050565b6000828152600460205260409020600101546001600160a01b03163314620013cc5760405162461bcd60e51b8152600401620004899062002b62565b6000828152600660205260409020548111156200143e5760405162461bcd60e51b815260206004820152602960248201527f596f752061726520636c61696d696e67206d6f726520746f6b656e73207468616044820152686e206c6f636b65642160b81b606482015260840162000489565b6000828152600560205260409081902054905163095ea7b360e01b81526001600160a01b039091169063095ea7b3906200147f903390859060040162002be6565b6020604051808303816000875af11580156200149f573d6000803e3d6000fd5b505050506040513d601f19601f82011682018060405250810190620014c5919062002bff565b50600082815260056020526040908190205490516323b872dd60e01b81526001600160a01b03909116906323b872dd90620015099030903390869060040162002c23565b6020604051808303816000875af115801562001529573d6000803e3d6000fd5b505050506040513d601f19601f820116820180604052508101906200154f919062002bff565b50600082815260066020526040812080548392906200157090849062002c47565b90915550506040518190839033907f047a01931146bd51789285412060ef22e95b412421f3d9fa44820f43d69158c990600090a45050565b6000828152600460205260409020600101546001600160a01b03163314620016235760405162461bcd60e51b815260206004820152602760248201527f596f7520617265206e6f7420746865206f6e776572206f6620746869732070726044820152666f70657274792160c81b606482015260840162000489565b600082815260086020908152604080832054600790925282205462001649919062002c47565b9050808211156200169d5760405162461bcd60e51b815260206004820152601e60248201527f416d6f756e742065786365656473207468616e20617661696c61626c65210000604482015260640162000489565b600080548482526004602081905260409283902060010154925163095ea7b360e01b81526001600160a01b039283169363095ea7b393620016e49391169187910162002be6565b6020604051808303816000875af115801562001704573d6000803e3d6000fd5b505050506040513d601f19601f820116820180604052508101906200172a919062002bff565b5060008054848252600460208190526040928390206001015492516323b872dd60e01b81526001600160a01b03928316936323b872dd9362001776933093929091169188910162002c23565b6020604051808303816000875af115801562001796573d6000803e3d6000fd5b505050506040513d601f19601f82011682018060405250810190620017bc919062002bff565b5060008381526008602052604081208054849290620017dd90849062002ba9565b90915550506040518290849033907f5013455c3e61c232b845b4904991bc6dd2e1e7f2b603c27976428e1e3783604f90600090a4505050565b6000828152600960209081526040808320338085529252909120546001600160a01b031614620018995760405162461bcd60e51b815260206004820152602760248201527f596f752068617665206e6f7420696e76657374656420696e20746869732070726044820152666f70657274792160c81b606482015260840162000489565b60005460405163095ea7b360e01b81526001600160a01b039091169063095ea7b390620018cd903390859060040162002be6565b6020604051808303816000875af1158015620018ed573d6000803e3d6000fd5b505050506040513d601f19601f8201168201806040525081019062001913919062002bff565b506000546040516323b872dd60e01b81526001600160a01b03909116906323b872dd906200194a9030903390869060040162002c23565b6020604051808303816000875af11580156200196a573d6000803e3d6000fd5b505050506040513d601f19601f8201168201806040525081019062001990919062002bff565b50600082815260096020908152604080832033845282528083206001015485845260079092528220805491929091620019cb90849062002c47565b9091555050600082815260056020908152604080832054600983528184203385529092529182902060010154915163095ea7b360e01b81526001600160a01b039091169163095ea7b39162001a2591309160040162002be6565b6020604051808303816000875af115801562001a45573d6000803e3d6000fd5b505050506040513d601f19601f8201168201806040525081019062001a6b919062002bff565b5060008281526005602090815260408083205460098352818420338086529352928190206001015490516323b872dd60e01b81526001600160a01b03909316926323b872dd9262001ac492909130919060040162002c23565b6020604051808303816000875af115801562001ae4573d6000803e3d6000fd5b505050506040513d601f19601f8201168201806040525081019062001b0a919062002bff565b5060008281526009602090815260408083203384528252808320600101548584526006909252822080549192909162001b4590849062002ba9565b90915550506040518190839033907f9eb6ad036b583d67a9d59264fa4e88903248adefb4bf132d63d3bf890f028ecd90600090a45050565b600160008381526004602052604090206007015460ff16600381111562001ba85762001ba86200270e565b1462001bc85760405162461bcd60e51b8152600401620004899062002c61565b6000828152600460205260409020600101546001600160a01b0316331462001c045760405162461bcd60e51b8152600401620004899062002cae565b6000828152600460208190526040822001829055600280548490811062001c2f5762001c2f62002adb565b9060005260206000209060080201905081816004018190555082336001600160a01b03167ffd17840844998d983162f4c1ff366abe0017376b765c544127260d81277d49e38460405162001c8591815260200190565b60405180910390a3505050565b6060600a6000838152602001908152602001600020805480602002602001604051908101604052809291908181526020016000905b8282101562001d1e576000848152602090819020604080516060810182526003860290920180546001600160a01b031683526001808201548486015260029091015491830191909152908352909201910162001cc7565b505050509050919050565b62001d336200258f565b60038054808352600180820190925533602080850191825260408086018b8152606087018b9052608087018a905260a0870189905260c0870188905260e08701869052600094855260048352932085518155915193820180546001600160a01b0319166001600160a01b039095169490941790935590518051849362001dc1926002850192910190620025f0565b506060820151805162001ddf916003840191602090910190620025f0565b506080820151600482015560a0820151600582015560c0820151600682015560e082015160078201805460ff1916600183600381111562001e245762001e246200270e565b021790555090505060026040518061010001604052808360000151815260200183602001516001600160a01b031681526020018360400151815260200183606001518152602001836080015181526020018360a0015181526020018360c0015181526020018360e00151600381111562001ea25762001ea26200270e565b9052815460018082018455600093845260209384902083516008909302019182558284015190820180546001600160a01b0319166001600160a01b03909216919091179055604082015180519293919262001f049260028501920190620025f0565b506060820151805162001f22916003840191602090910190620025f0565b506080820151600482015560a0820151600582015560c0820151600682015560e082015160078201805460ff1916600183600381111562001f675762001f676200270e565b02179055505081516040808401516060850151608086015160a087015160c088015194513397507fa3620867456bd4cf6d4d4b5f9483d8058bb00a2314801172b3945d02ac2e7fde9562001fbf959493929162002cf5565b60405180910390a3505050505050565b6001546001600160a01b0316331462001ffc5760405162461bcd60e51b8152600401620004899062002a94565b600160008281526004602052604090206007015460ff1660038111156200202757620020276200270e565b146200206f5760405162461bcd60e51b815260206004820152601660248201527550726f706572747920646f206e6f742065786973742160501b604482015260640162000489565b6000818152600460208190526040808320918201549051600283019260030191906200209b906200267f565b620020a99392919062002de4565b604051809103906000f080158015620020c6573d6000803e3d6000fd5b50600083815260056020908152604080832080546001600160a01b0319166001600160a01b03861690811790915560049283905292819020820154905163095ea7b360e01b8152939450919263095ea7b392620021269230920162002be6565b6020604051808303816000875af115801562002146573d6000803e3d6000fd5b505050506040513d601f19601f820116820180604052508101906200216c919062002bff565b5060008281526005602090815260408083205460049283905292819020820154905163a9059cbb60e01b81526001600160a01b039093169263a9059cbb92620021ba92309290910162002be6565b6020604051808303816000875af1158015620021da573d6000803e3d6000fd5b505050506040513d601f19601f8201168201806040525081019062002200919062002bff565b5060008281526004602081815260408084209092015460069091529082208054919290916200223190849062002ba9565b90915550506000828152600460205260408120600701805460ff191660029081179091558054849081106200226a576200226a62002adb565b600091825260208083206007600890930201828101805460ff1916600290811790915587855260058352604080862054600494859052958190206001810154948101549581015491519397506001600160a01b03968716969094169489947fc79a6979ef016ac585e84c1542046677bd781e6c2e9012a61c605fd9104425ff9462002305948201936003909201929160ff1690829062002e1e565b60405180910390a4505050565b600a60205281600052604060002081815481106200232f57600080fd5b60009182526020909120600390910201805460018201546002909201546001600160a01b03909116935090915083565b60606002805480602002602001604051908101604052809291908181526020016000905b82821015620025635760008481526020908190206040805161010081018252600886029092018054835260018101546001600160a01b03169383019390935260028301805492939291840191620023da9062002af1565b80601f0160208091040260200160405190810160405280929190818152602001828054620024089062002af1565b8015620024595780601f106200242d5761010080835404028352916020019162002459565b820191906000526020600020905b8154815290600101906020018083116200243b57829003601f168201915b50505050508152602001600382018054620024749062002af1565b80601f0160208091040260200160405190810160405280929190818152602001828054620024a29062002af1565b8015620024f35780601f10620024c757610100808354040283529160200191620024f3565b820191906000526020600020905b815481529060010190602001808311620024d557829003601f168201915b5050509183525050600482015460208201526005820154604082015260068201546060820152600782015460809091019060ff1660038111156200253b576200253b6200270e565b60038111156200254f576200254f6200270e565b815250508152602001906001019062002383565b50505050905090565b60006200257a828462002ba9565b9392505050565b60006200257a828462002e6f565b6040518061010001604052806000815260200160006001600160a01b03168152602001606081526020016060815260200160008152602001600081526020016000815260200160006003811115620025eb57620025eb6200270e565b905290565b828054620025fe9062002af1565b90600052602060002090601f0160209004810192826200262257600085556200266d565b82601f106200263d57805160ff19168380011785556200266d565b828001600101855582156200266d579182015b828111156200266d57825182559160200191906001019062002650565b506200267b9291506200268d565b5090565b610d458062002e9383390190565b5b808211156200267b57600081556001016200268e565b600060208284031215620026b757600080fd5b5035919050565b6000815180845260005b81811015620026e657602081850181015186830182015201620026c8565b81811115620026f9576000602083870101525b50601f01601f19169290920160200192915050565b634e487b7160e01b600052602160045260246000fd5b600481106200274357634e487b7160e01b600052602160045260246000fd5b9052565b8881526001600160a01b038816602082015261010060408201819052600090620027748382018a620026be565b905082810360608401526200278a8189620026be565b9150508560808301528460a08301528360c0830152620027ae60e083018462002724565b9998505050505050505050565b60006020808301818452808551808352604092508286019150828160051b87010184880160005b838110156200289257888303603f19018552815180518452878101516001600160a01b03168885015286810151610100888601819052906200282782870182620026be565b91505060608083015186830382880152620028438382620026be565b6080858101519089015260a0808601519089015260c0808601519089015260e0948501519490935091506200287d90508187018462002724565b509588019593505090860190600101620027e2565b509098975050505050505050565b60008060408385031215620028b457600080fd5b8235915060208301356001600160a01b0381168114620028d357600080fd5b809150509250929050565b60008060408385031215620028f257600080fd5b50508035926020909101359150565b602080825282518282018190526000919060409081850190868401855b828110156200295857815180516001600160a01b03168552868101518786015285015185850152606090930192908501906001016200291e565b5091979650505050505050565b634e487b7160e01b600052604160045260246000fd5b600082601f8301126200298d57600080fd5b81356001600160401b0380821115620029aa57620029aa62002965565b604051601f8301601f19908116603f01168101908282118183101715620029d557620029d562002965565b81604052838152866020858801011115620029ef57600080fd5b836020870160208301376000602085830101528094505050505092915050565b600080600080600060a0868803121562002a2857600080fd5b85356001600160401b038082111562002a4057600080fd5b62002a4e89838a016200297b565b9650602088013591508082111562002a6557600080fd5b5062002a74888289016200297b565b959895975050505060408401359360608101359360809091013592509050565b60208082526027908201527f43616c6c6572206973206e6f7420746865206f776e6572206f662074686520706040820152666c6174666f726d60c81b606082015260800190565b634e487b7160e01b600052603260045260246000fd5b600181811c9082168062002b0657607f821691505b6020821081141562002b2857634e487b7160e01b600052602260045260246000fd5b50919050565b634e487b7160e01b600052601160045260246000fd5b600060001982141562002b5b5762002b5b62002b2e565b5060010190565b60208082526027908201527f596f7520617265206e6f7420746865206f776e6572206f6620746869732070726040820152666f70657274792160c81b606082015260800190565b6000821982111562002bbf5762002bbf62002b2e565b500190565b600081600019048311821515161562002be15762002be162002b2e565b500290565b6001600160a01b03929092168252602082015260400190565b60006020828403121562002c1257600080fd5b815180151581146200257a57600080fd5b6001600160a01b039384168152919092166020820152604081019190915260600190565b60008282101562002c5c5762002c5c62002b2e565b500390565b6020808252602d908201527f50726f70657274792068617320616c7265616479206265656e20415050524f5660408201526c4544206f722042414e4e45442160981b606082015260800190565b60208082526027908201527f596f7520617265206e6f7420746865206f776e6572206f6620746869732050726040820152666f70657274792160c81b606082015260800190565b60a08152600062002d0a60a0830188620026be565b828103602084015262002d1e8188620026be565b60408401969096525050606081019290925260809091015292915050565b8054600090600181811c908083168062002d5757607f831692505b602080841082141562002d7a57634e487b7160e01b600052602260045260246000fd5b8388526020880182801562002d98576001811462002daa5762002dd7565b60ff1987168252828201975062002dd7565b60008981526020902060005b8781101562002dd15781548482015290860190840162002db6565b83019850505b5050505050505092915050565b60608152600062002df9606083018662002d3c565b828103602084015262002e0d818662002d3c565b915050826040830152949350505050565b60a08152600062002e3360a083018862002d3c565b828103602084015262002e47818862002d3c565b91505084604083015262002e5f606083018562002724565b8260808301529695505050505050565b60008262002e8d57634e487b7160e01b600052601260045260246000fd5b50049056fe60806040523480156200001157600080fd5b5060405162000d4538038062000d458339810160408190526200003491620002d1565b8251839083906200004d9060039060208501906200015e565b508051620000639060049060208401906200015e565b50601291506200008e9050336200007c83600a62000459565b6200008890856200046e565b62000098565b50505050620004e8565b6001600160a01b038216620000f35760405162461bcd60e51b815260206004820152601f60248201527f45524332303a206d696e7420746f20746865207a65726f206164647265737300604482015260640160405180910390fd5b806002600082825462000107919062000490565b90915550506001600160a01b038216600081815260208181526040808320805486019055518481527fddf252ad1be2c89b69c2b068fc378daa952ba7f163c4a11628f55a4df523b3ef910160405180910390a35050565b8280546200016c90620004ab565b90600052602060002090601f016020900481019282620001905760008555620001db565b82601f10620001ab57805160ff1916838001178555620001db565b82800160010185558215620001db579182015b82811115620001db578251825591602001919060010190620001be565b50620001e9929150620001ed565b5090565b5b80821115620001e95760008155600101620001ee565b634e487b7160e01b600052604160045260246000fd5b600082601f8301126200022c57600080fd5b81516001600160401b038082111562000249576200024962000204565b604051601f8301601f19908116603f0116810190828211818310171562000274576200027462000204565b816040528381526020925086838588010111156200029157600080fd5b600091505b83821015620002b5578582018301518183018401529082019062000296565b83821115620002c75760008385830101525b9695505050505050565b600080600060608486031215620002e757600080fd5b83516001600160401b0380821115620002ff57600080fd5b6200030d878388016200021a565b945060208601519150808211156200032457600080fd5b5062000333868287016200021a565b925050604084015190509250925092565b634e487b7160e01b600052601160045260246000fd5b600181815b808511156200039b5781600019048211156200037f576200037f62000344565b808516156200038d57918102915b93841c93908002906200035f565b509250929050565b600082620003b45750600162000453565b81620003c35750600062000453565b8160018114620003dc5760028114620003e75762000407565b600191505062000453565b60ff841115620003fb57620003fb62000344565b50506001821b62000453565b5060208310610133831016604e8410600b84101617156200042c575081810a62000453565b6200043883836200035a565b80600019048211156200044f576200044f62000344565b0290505b92915050565b6000620004678383620003a3565b9392505050565b60008160001904831182151516156200048b576200048b62000344565b500290565b60008219821115620004a657620004a662000344565b500190565b600181811c90821680620004c057607f821691505b60208210811415620004e257634e487b7160e01b600052602260045260246000fd5b50919050565b61084d80620004f86000396000f3fe608060405234801561001057600080fd5b50600436106100995760003560e01c806306fdde031461009e578063095ea7b3146100bc57806318160ddd146100df57806323b872dd146100f1578063313ce56714610104578063395093511461011357806370a082311461012657806395d89b411461014f578063a457c2d714610157578063a9059cbb1461016a578063dd62ed3e1461017d575b600080fd5b6100a6610190565b6040516100b3919061068a565b60405180910390f35b6100cf6100ca3660046106fb565b610222565b60405190151581526020016100b3565b6002545b6040519081526020016100b3565b6100cf6100ff366004610725565b61023a565b604051601281526020016100b3565b6100cf6101213660046106fb565b61025e565b6100e3610134366004610761565b6001600160a01b031660009081526020819052604090205490565b6100a6610280565b6100cf6101653660046106fb565b61028f565b6100cf6101783660046106fb565b61030f565b6100e361018b366004610783565b61031d565b60606003805461019f906107b6565b80601f01602080910402602001604051908101604052809291908181526020018280546101cb906107b6565b80156102185780601f106101ed57610100808354040283529160200191610218565b820191906000526020600020905b8154815290600101906020018083116101fb57829003601f168201915b5050505050905090565b600033610230818585610348565b5060019392505050565b60003361024885828561046c565b6102538585856104e6565b506001949350505050565b600033610230818585610271838361031d565b61027b91906107f1565b610348565b60606004805461019f906107b6565b6000338161029d828661031d565b9050838110156103025760405162461bcd60e51b815260206004820152602560248201527f45524332303a2064656372656173656420616c6c6f77616e63652062656c6f77604482015264207a65726f60d81b60648201526084015b60405180910390fd5b6102538286868403610348565b6000336102308185856104e6565b6001600160a01b03918216600090815260016020908152604080832093909416825291909152205490565b6001600160a01b0383166103aa5760405162461bcd60e51b8152602060048201526024808201527f45524332303a20617070726f76652066726f6d20746865207a65726f206164646044820152637265737360e01b60648201526084016102f9565b6001600160a01b03821661040b5760405162461bcd60e51b815260206004820152602260248201527f45524332303a20617070726f766520746f20746865207a65726f206164647265604482015261737360f01b60648201526084016102f9565b6001600160a01b0383811660008181526001602090815260408083209487168084529482529182902085905590518481527f8c5be1e5ebec7d5bd14f71427d1e84f3dd0314c0f7b2291e5b200ac8c7c3b925910160405180910390a3505050565b6000610478848461031d565b905060001981146104e057818110156104d35760405162461bcd60e51b815260206004820152601d60248201527f45524332303a20696e73756666696369656e7420616c6c6f77616e636500000060448201526064016102f9565b6104e08484848403610348565b50505050565b6001600160a01b03831661054a5760405162461bcd60e51b815260206004820152602560248201527f45524332303a207472616e736665722066726f6d20746865207a65726f206164604482015264647265737360d81b60648201526084016102f9565b6001600160a01b0382166105ac5760405162461bcd60e51b815260206004820152602360248201527f45524332303a207472616e7366657220746f20746865207a65726f206164647260448201526265737360e81b60648201526084016102f9565b6001600160a01b038316600090815260208190526040902054818110156106245760405162461bcd60e51b815260206004820152602660248201527f45524332303a207472616e7366657220616d6f756e7420657863656564732062604482015265616c616e636560d01b60648201526084016102f9565b6001600160a01b03848116600081815260208181526040808320878703905593871680835291849020805487019055925185815290927fddf252ad1be2c89b69c2b068fc378daa952ba7f163c4a11628f55a4df523b3ef910160405180910390a36104e0565b600060208083528351808285015260005b818110156106b75785810183015185820160400152820161069b565b818111156106c9576000604083870101525b50601f01601f1916929092016040019392505050565b80356001600160a01b03811681146106f657600080fd5b919050565b6000806040838503121561070e57600080fd5b610717836106df565b946020939093013593505050565b60008060006060848603121561073a57600080fd5b610743846106df565b9250610751602085016106df565b9150604084013590509250925092565b60006020828403121561077357600080fd5b61077c826106df565b9392505050565b6000806040838503121561079657600080fd5b61079f836106df565b91506107ad602084016106df565b90509250929050565b600181811c908216806107ca57607f821691505b602082108114156107eb57634e487b7160e01b600052602260045260246000fd5b50919050565b6000821982111561081257634e487b7160e01b600052601160045260246000fd5b50019056fea2646970667358221220bae81446b9490ba4388492a316e92f70851b28d69547c187d8a090595aca0a0d64736f6c634300080c0033a2646970667358221220dae917acc9086ef72800159d0d672948a92d4f660521673dde9e9338c8e512c764736f6c634300080c0033","opcodes":"PUSH1 0x80 PUSH1 0x40 MSTORE CALLVALUE DUP1 ISZERO PUSH2 0x10 JUMPI PUSH1 0x0 DUP1 REVERT JUMPDEST POP PUSH1 0x1 DUP1 SLOAD PUSH1 0x1 PUSH1 0x1 PUSH1 0xA0 SHL SUB NOT SWAP1 DUP2 AND PUSH20 0x78315CF7082DBB0174DA3286D436BFE7577DF836 OR SWAP1 SWAP2 SSTORE PUSH1 0x0 DUP1 SLOAD SWAP1 SWAP2 AND PUSH20 0x6010AD99DC78AE5CEFD2F9FDEC10A73EAF245450 OR SWAP1 SSTORE PUSH2 0x3C0D DUP1 PUSH2 0x68 PUSH1 0x0 CODECOPY PUSH1 0x0 RETURN INVALID PUSH1 0x80 PUSH1 0x40 MSTORE CALLVALUE DUP1 ISZERO PUSH3 0x11 JUMPI PUSH1 0x0 DUP1 REVERT JUMPDEST POP PUSH1 0x4 CALLDATASIZE LT PUSH3 0x14E JUMPI PUSH1 0x0 CALLDATALOAD PUSH1 0xE0 SHR DUP1 PUSH4 0x16280548 EQ PUSH3 0x153 JUMPI DUP1 PUSH4 0x19004EAA EQ PUSH3 0x16C JUMPI DUP1 PUSH4 0x30E1AD32 EQ PUSH3 0x1A2 JUMPI DUP1 PUSH4 0x3D51402C EQ PUSH3 0x1B9 JUMPI DUP1 PUSH4 0x514FF602 EQ PUSH3 0x1D2 JUMPI DUP1 PUSH4 0x54302A6D EQ PUSH3 0x1E9 JUMPI DUP1 PUSH4 0x6AC20845 EQ PUSH3 0x200 JUMPI DUP1 PUSH4 0x6F0A79C3 EQ PUSH3 0x22D JUMPI DUP1 PUSH4 0x7018F133 EQ PUSH3 0x244 JUMPI DUP1 PUSH4 0x70E74ED8 EQ PUSH3 0x25B JUMPI DUP1 PUSH4 0x7178ACAF EQ PUSH3 0x272 JUMPI DUP1 PUSH4 0x9C8376A2 EQ PUSH3 0x28C JUMPI DUP1 PUSH4 0xB1166A65 EQ PUSH3 0x2A3 JUMPI DUP1 PUSH4 0xB11B32D2 EQ PUSH3 0x2BA JUMPI DUP1 PUSH4 0xBBE02EA6 EQ PUSH3 0x327 JUMPI DUP1 PUSH4 0xC1906396 EQ PUSH3 0x34A JUMPI DUP1 PUSH4 0xC37601D6 EQ PUSH3 0x376 JUMPI DUP1 PUSH4 0xC54E44EB EQ PUSH3 0x399 JUMPI DUP1 PUSH4 0xCA419202 EQ PUSH3 0x3AD JUMPI DUP1 PUSH4 0xDCEC3294 EQ PUSH3 0x3C4 JUMPI DUP1 PUSH4 0xE1769B1F EQ PUSH3 0x3E7 JUMPI DUP1 PUSH4 0xE187C4D0 EQ PUSH3 0x40D JUMPI DUP1 PUSH4 0xE9B66F8C EQ PUSH3 0x424 JUMPI DUP1 PUSH4 0xEB1CF0D6 EQ PUSH3 0x43B JUMPI DUP1 PUSH4 0xEC0CFD0B EQ PUSH3 0x452 JUMPI JUMPDEST PUSH1 0x0 DUP1 REVERT JUMPDEST PUSH3 0x16A PUSH3 0x164 CALLDATASIZE PUSH1 0x4 PUSH3 0x26A4 JUMP JUMPDEST PUSH3 0x45C JUMP JUMPDEST STOP JUMPDEST PUSH3 0x183 PUSH3 0x17D CALLDATASIZE PUSH1 0x4 PUSH3 0x26A4 JUMP JUMPDEST PUSH3 0x59E JUMP JUMPDEST PUSH1 0x40 MLOAD PUSH3 0x199 SWAP9 SWAP8 SWAP7 SWAP6 SWAP5 SWAP4 SWAP3 SWAP2 SWAP1 PUSH3 0x2747 JUMP JUMPDEST PUSH1 0x40 MLOAD DUP1 SWAP2 SUB SWAP1 RETURN JUMPDEST PUSH3 0x183 PUSH3 0x1B3 CALLDATASIZE PUSH1 0x4 PUSH3 0x26A4 JUMP JUMPDEST PUSH3 0x70D JUMP JUMPDEST PUSH3 0x1C3 PUSH3 0x756 JUMP JUMPDEST PUSH1 0x40 MLOAD PUSH3 0x199 SWAP2 SWAP1 PUSH3 0x27BB JUMP JUMPDEST PUSH3 0x16A PUSH3 0x1E3 CALLDATASIZE PUSH1 0x4 PUSH3 0x28A0 JUMP JUMPDEST PUSH3 0xA3E JUMP JUMPDEST PUSH3 0x16A PUSH3 0x1FA CALLDATASIZE PUSH1 0x4 PUSH3 0x28DE JUMP JUMPDEST PUSH3 0xCFE JUMP JUMPDEST PUSH1 0x1 SLOAD PUSH3 0x214 SWAP1 PUSH1 0x1 PUSH1 0x1 PUSH1 0xA0 SHL SUB AND DUP2 JUMP JUMPDEST PUSH1 0x40 MLOAD PUSH1 0x1 PUSH1 0x1 PUSH1 0xA0 SHL SUB SWAP1 SWAP2 AND DUP2 MSTORE PUSH1 0x20 ADD PUSH3 0x199 JUMP JUMPDEST PUSH3 0x16A PUSH3 0x23E CALLDATASIZE PUSH1 0x4 PUSH3 0x28DE JUMP JUMPDEST PUSH3 0x1194 JUMP JUMPDEST PUSH3 0x16A PUSH3 0x255 CALLDATASIZE PUSH1 0x4 PUSH3 0x28DE JUMP JUMPDEST PUSH3 0x1292 JUMP JUMPDEST PUSH3 0x16A PUSH3 0x26C CALLDATASIZE PUSH1 0x4 PUSH3 0x28DE JUMP JUMPDEST PUSH3 0x1390 JUMP JUMPDEST PUSH1 0x3 SLOAD PUSH3 0x27D SWAP1 DUP2 JUMP JUMPDEST PUSH1 0x40 MLOAD SWAP1 DUP2 MSTORE PUSH1 0x20 ADD PUSH3 0x199 JUMP JUMPDEST PUSH3 0x16A PUSH3 0x29D CALLDATASIZE PUSH1 0x4 PUSH3 0x28DE JUMP JUMPDEST PUSH3 0x15A8 JUMP JUMPDEST PUSH3 0x16A PUSH3 0x2B4 CALLDATASIZE PUSH1 0x4 PUSH3 0x28DE JUMP JUMPDEST PUSH3 0x1816 JUMP JUMPDEST PUSH3 0x301 PUSH3 0x2CB CALLDATASIZE PUSH1 0x4 PUSH3 0x28A0 JUMP JUMPDEST PUSH1 0x9 PUSH1 0x20 SWAP1 DUP2 MSTORE PUSH1 0x0 SWAP3 DUP4 MSTORE PUSH1 0x40 DUP1 DUP5 KECCAK256 SWAP1 SWAP2 MSTORE SWAP1 DUP3 MSTORE SWAP1 KECCAK256 DUP1 SLOAD PUSH1 0x1 DUP3 ADD SLOAD PUSH1 0x2 SWAP1 SWAP3 ADD SLOAD PUSH1 0x1 PUSH1 0x1 PUSH1 0xA0 SHL SUB SWAP1 SWAP2 AND SWAP2 SWAP1 DUP4 JUMP JUMPDEST PUSH1 0x40 DUP1 MLOAD PUSH1 0x1 PUSH1 0x1 PUSH1 0xA0 SHL SUB SWAP1 SWAP5 AND DUP5 MSTORE PUSH1 0x20 DUP5 ADD SWAP3 SWAP1 SWAP3 MSTORE SWAP1 DUP3 ADD MSTORE PUSH1 0x60 ADD PUSH3 0x199 JUMP JUMPDEST PUSH3 0x27D PUSH3 0x338 CALLDATASIZE PUSH1 0x4 PUSH3 0x26A4 JUMP JUMPDEST PUSH1 0x8 PUSH1 0x20 MSTORE PUSH1 0x0 SWAP1 DUP2 MSTORE PUSH1 0x40 SWAP1 KECCAK256 SLOAD DUP2 JUMP JUMPDEST PUSH3 0x214 PUSH3 0x35B CALLDATASIZE PUSH1 0x4 PUSH3 0x26A4 JUMP JUMPDEST PUSH1 0x5 PUSH1 0x20 MSTORE PUSH1 0x0 SWAP1 DUP2 MSTORE PUSH1 0x40 SWAP1 KECCAK256 SLOAD PUSH1 0x1 PUSH1 0x1 PUSH1 0xA0 SHL SUB AND DUP2 JUMP JUMPDEST PUSH3 0x27D PUSH3 0x387 CALLDATASIZE PUSH1 0x4 PUSH3 0x26A4 JUMP JUMPDEST PUSH1 0x7 PUSH1 0x20 MSTORE PUSH1 0x0 SWAP1 DUP2 MSTORE PUSH1 0x40 SWAP1 KECCAK256 SLOAD DUP2 JUMP JUMPDEST PUSH1 0x0 SLOAD PUSH3 0x214 SWAP1 PUSH1 0x1 PUSH1 0x1 PUSH1 0xA0 SHL SUB AND DUP2 JUMP JUMPDEST PUSH3 0x16A PUSH3 0x3BE CALLDATASIZE PUSH1 0x4 PUSH3 0x28DE JUMP JUMPDEST PUSH3 0x1B7D JUMP JUMPDEST PUSH3 0x27D PUSH3 0x3D5 CALLDATASIZE PUSH1 0x4 PUSH3 0x26A4 JUMP JUMPDEST PUSH1 0x6 PUSH1 0x20 MSTORE PUSH1 0x0 SWAP1 DUP2 MSTORE PUSH1 0x40 SWAP1 KECCAK256 SLOAD DUP2 JUMP JUMPDEST PUSH3 0x3FE PUSH3 0x3F8 CALLDATASIZE PUSH1 0x4 PUSH3 0x26A4 JUMP JUMPDEST PUSH3 0x1C92 JUMP JUMPDEST PUSH1 0x40 MLOAD PUSH3 0x199 SWAP2 SWAP1 PUSH3 0x2901 JUMP JUMPDEST PUSH3 0x16A PUSH3 0x41E CALLDATASIZE PUSH1 0x4 PUSH3 0x2A0F JUMP JUMPDEST PUSH3 0x1D29 JUMP JUMPDEST PUSH3 0x16A PUSH3 0x435 CALLDATASIZE PUSH1 0x4 PUSH3 0x26A4 JUMP JUMPDEST PUSH3 0x1FCF JUMP JUMPDEST PUSH3 0x301 PUSH3 0x44C CALLDATASIZE PUSH1 0x4 PUSH3 0x28DE JUMP JUMPDEST PUSH3 0x2312 JUMP JUMPDEST PUSH3 0x1C3 PUSH3 0x235F JUMP JUMPDEST PUSH1 0x1 SLOAD PUSH1 0x1 PUSH1 0x1 PUSH1 0xA0 SHL SUB AND CALLER EQ PUSH3 0x492 JUMPI PUSH1 0x40 MLOAD PUSH3 0x461BCD PUSH1 0xE5 SHL DUP2 MSTORE PUSH1 0x4 ADD PUSH3 0x489 SWAP1 PUSH3 0x2A94 JUMP JUMPDEST PUSH1 0x40 MLOAD DUP1 SWAP2 SUB SWAP1 REVERT JUMPDEST PUSH1 0x1 PUSH1 0x0 DUP3 DUP2 MSTORE PUSH1 0x4 PUSH1 0x20 MSTORE PUSH1 0x40 SWAP1 KECCAK256 PUSH1 0x7 ADD SLOAD PUSH1 0xFF AND PUSH1 0x3 DUP2 GT ISZERO PUSH3 0x4BD JUMPI PUSH3 0x4BD PUSH3 0x270E JUMP JUMPDEST EQ PUSH3 0x506 JUMPI PUSH1 0x40 MLOAD PUSH3 0x461BCD PUSH1 0xE5 SHL DUP2 MSTORE PUSH1 0x20 PUSH1 0x4 DUP3 ADD MSTORE PUSH1 0x17 PUSH1 0x24 DUP3 ADD MSTORE PUSH23 0x50726F706572747920646F206E6F742065786973742121 PUSH1 0x48 SHL PUSH1 0x44 DUP3 ADD MSTORE PUSH1 0x64 ADD PUSH3 0x489 JUMP JUMPDEST PUSH1 0x0 PUSH1 0x2 DUP3 DUP2 SLOAD DUP2 LT PUSH3 0x51E JUMPI PUSH3 0x51E PUSH3 0x2ADB JUMP JUMPDEST PUSH1 0x0 SWAP2 DUP3 MSTORE PUSH1 0x20 DUP1 DUP4 KECCAK256 PUSH1 0x7 PUSH1 0x8 SWAP1 SWAP4 MUL ADD DUP3 DUP2 ADD DUP1 SLOAD PUSH1 0xFF NOT SWAP1 DUP2 AND PUSH1 0x3 SWAP1 DUP2 OR SWAP1 SWAP3 SSTORE DUP8 DUP7 MSTORE PUSH1 0x4 SWAP1 SWAP4 MSTORE PUSH1 0x40 DUP1 DUP7 KECCAK256 SWAP5 DUP6 ADD DUP1 SLOAD SWAP1 SWAP5 AND SWAP1 SWAP2 OR SWAP1 SWAP3 SSTORE PUSH1 0x1 SWAP3 SWAP1 SWAP3 ADD SLOAD SWAP1 MLOAD SWAP2 SWAP4 POP PUSH1 0x1 PUSH1 0x1 PUSH1 0xA0 SHL SUB AND SWAP2 DUP5 SWAP2 PUSH32 0x20C3F6C05C7E19BDEDE114BE8541156CE9A11F5514AF34A95876A8C4C72AC19D SWAP2 SWAP1 LOG3 POP POP JUMP JUMPDEST PUSH1 0x4 PUSH1 0x20 MSTORE PUSH1 0x0 SWAP1 DUP2 MSTORE PUSH1 0x40 SWAP1 KECCAK256 DUP1 SLOAD PUSH1 0x1 DUP3 ADD SLOAD PUSH1 0x2 DUP4 ADD DUP1 SLOAD SWAP3 SWAP4 PUSH1 0x1 PUSH1 0x1 PUSH1 0xA0 SHL SUB SWAP1 SWAP3 AND SWAP3 PUSH3 0x5D2 SWAP1 PUSH3 0x2AF1 JUMP JUMPDEST DUP1 PUSH1 0x1F ADD PUSH1 0x20 DUP1 SWAP2 DIV MUL PUSH1 0x20 ADD PUSH1 0x40 MLOAD SWAP1 DUP2 ADD PUSH1 0x40 MSTORE DUP1 SWAP3 SWAP2 SWAP1 DUP2 DUP2 MSTORE PUSH1 0x20 ADD DUP3 DUP1 SLOAD PUSH3 0x600 SWAP1 PUSH3 0x2AF1 JUMP JUMPDEST DUP1 ISZERO PUSH3 0x651 JUMPI DUP1 PUSH1 0x1F LT PUSH3 0x625 JUMPI PUSH2 0x100 DUP1 DUP4 SLOAD DIV MUL DUP4 MSTORE SWAP2 PUSH1 0x20 ADD SWAP2 PUSH3 0x651 JUMP JUMPDEST DUP3 ADD SWAP2 SWAP1 PUSH1 0x0 MSTORE PUSH1 0x20 PUSH1 0x0 KECCAK256 SWAP1 JUMPDEST DUP2 SLOAD DUP2 MSTORE SWAP1 PUSH1 0x1 ADD SWAP1 PUSH1 0x20 ADD DUP1 DUP4 GT PUSH3 0x633 JUMPI DUP3 SWAP1 SUB PUSH1 0x1F AND DUP3 ADD SWAP2 JUMPDEST POP POP POP POP POP SWAP1 DUP1 PUSH1 0x3 ADD DUP1 SLOAD PUSH3 0x668 SWAP1 PUSH3 0x2AF1 JUMP JUMPDEST DUP1 PUSH1 0x1F ADD PUSH1 0x20 DUP1 SWAP2 DIV MUL PUSH1 0x20 ADD PUSH1 0x40 MLOAD SWAP1 DUP2 ADD PUSH1 0x40 MSTORE DUP1 SWAP3 SWAP2 SWAP1 DUP2 DUP2 MSTORE PUSH1 0x20 ADD DUP3 DUP1 SLOAD PUSH3 0x696 SWAP1 PUSH3 0x2AF1 JUMP JUMPDEST DUP1 ISZERO PUSH3 0x6E7 JUMPI DUP1 PUSH1 0x1F LT PUSH3 0x6BB JUMPI PUSH2 0x100 DUP1 DUP4 SLOAD DIV MUL DUP4 MSTORE SWAP2 PUSH1 0x20 ADD SWAP2 PUSH3 0x6E7 JUMP JUMPDEST DUP3 ADD SWAP2 SWAP1 PUSH1 0x0 MSTORE PUSH1 0x20 PUSH1 0x0 KECCAK256 SWAP1 JUMPDEST DUP2 SLOAD DUP2 MSTORE SWAP1 PUSH1 0x1 ADD SWAP1 PUSH1 0x20 ADD DUP1 DUP4 GT PUSH3 0x6C9 JUMPI DUP3 SWAP1 SUB PUSH1 0x1F AND DUP3 ADD SWAP2 JUMPDEST POP POP POP POP PUSH1 0x4 DUP4 ADD SLOAD PUSH1 0x5 DUP5 ADD SLOAD PUSH1 0x6 DUP6 ADD SLOAD PUSH1 0x7 SWAP1 SWAP6 ADD SLOAD SWAP4 SWAP5 SWAP2 SWAP4 SWAP1 SWAP3 POP PUSH1 0xFF AND DUP9 JUMP JUMPDEST PUSH1 0x2 DUP2 DUP2 SLOAD DUP2 LT PUSH3 0x71E JUMPI PUSH1 0x0 DUP1 REVERT JUMPDEST PUSH1 0x0 SWAP2 DUP3 MSTORE PUSH1 0x20 SWAP1 SWAP2 KECCAK256 PUSH1 0x8 SWAP1 SWAP2 MUL ADD DUP1 SLOAD PUSH1 0x1 DUP3 ADD SLOAD PUSH1 0x2 DUP4 ADD DUP1 SLOAD SWAP3 SWAP5 POP PUSH1 0x1 PUSH1 0x1 PUSH1 0xA0 SHL SUB SWAP1 SWAP2 AND SWAP3 SWAP2 PUSH3 0x5D2 SWAP1 PUSH3 0x2AF1 JUMP JUMPDEST PUSH1 0x60 PUSH1 0x0 PUSH3 0x764 PUSH1 0x3 SLOAD SWAP1 JUMP JUMPDEST PUSH1 0x1 PUSH1 0x1 PUSH1 0x40 SHL SUB DUP2 GT ISZERO PUSH3 0x77E JUMPI PUSH3 0x77E PUSH3 0x2965 JUMP JUMPDEST PUSH1 0x40 MLOAD SWAP1 DUP1 DUP3 MSTORE DUP1 PUSH1 0x20 MUL PUSH1 0x20 ADD DUP3 ADD PUSH1 0x40 MSTORE DUP1 ISZERO PUSH3 0x7BB JUMPI DUP2 PUSH1 0x20 ADD JUMPDEST PUSH3 0x7A7 PUSH3 0x258F JUMP JUMPDEST DUP2 MSTORE PUSH1 0x20 ADD SWAP1 PUSH1 0x1 SWAP1 SUB SWAP1 DUP2 PUSH3 0x79D JUMPI SWAP1 POP JUMPDEST POP SWAP1 POP PUSH1 0x0 DUP1 JUMPDEST PUSH1 0x3 SLOAD DUP2 GT PUSH3 0xA36 JUMPI PUSH1 0x0 PUSH1 0x2 DUP3 DUP2 SLOAD DUP2 LT PUSH3 0x7E4 JUMPI PUSH3 0x7E4 PUSH3 0x2ADB JUMP JUMPDEST SWAP1 PUSH1 0x0 MSTORE PUSH1 0x20 PUSH1 0x0 KECCAK256 SWAP1 PUSH1 0x8 MUL ADD PUSH1 0x0 ADD SLOAD GT ISZERO PUSH3 0xA21 JUMPI PUSH1 0x2 DUP2 DUP2 SLOAD DUP2 LT PUSH3 0x813 JUMPI PUSH3 0x813 PUSH3 0x2ADB JUMP JUMPDEST SWAP1 PUSH1 0x0 MSTORE PUSH1 0x20 PUSH1 0x0 KECCAK256 SWAP1 PUSH1 0x8 MUL ADD PUSH1 0x40 MLOAD DUP1 PUSH2 0x100 ADD PUSH1 0x40 MSTORE SWAP1 DUP2 PUSH1 0x0 DUP3 ADD SLOAD DUP2 MSTORE PUSH1 0x20 ADD PUSH1 0x1 DUP3 ADD PUSH1 0x0 SWAP1 SLOAD SWAP1 PUSH2 0x100 EXP SWAP1 DIV PUSH1 0x1 PUSH1 0x1 PUSH1 0xA0 SHL SUB AND PUSH1 0x1 PUSH1 0x1 PUSH1 0xA0 SHL SUB AND PUSH1 0x1 PUSH1 0x1 PUSH1 0xA0 SHL SUB AND DUP2 MSTORE PUSH1 0x20 ADD PUSH1 0x2 DUP3 ADD DUP1 SLOAD PUSH3 0x878 SWAP1 PUSH3 0x2AF1 JUMP JUMPDEST DUP1 PUSH1 0x1F ADD PUSH1 0x20 DUP1 SWAP2 DIV MUL PUSH1 0x20 ADD PUSH1 0x40 MLOAD SWAP1 DUP2 ADD PUSH1 0x40 MSTORE DUP1 SWAP3 SWAP2 SWAP1 DUP2 DUP2 MSTORE PUSH1 0x20 ADD DUP3 DUP1 SLOAD PUSH3 0x8A6 SWAP1 PUSH3 0x2AF1 JUMP JUMPDEST DUP1 ISZERO PUSH3 0x8F7 JUMPI DUP1 PUSH1 0x1F LT PUSH3 0x8CB JUMPI PUSH2 0x100 DUP1 DUP4 SLOAD DIV MUL DUP4 MSTORE SWAP2 PUSH1 0x20 ADD SWAP2 PUSH3 0x8F7 JUMP JUMPDEST DUP3 ADD SWAP2 SWAP1 PUSH1 0x0 MSTORE PUSH1 0x20 PUSH1 0x0 KECCAK256 SWAP1 JUMPDEST DUP2 SLOAD DUP2 MSTORE SWAP1 PUSH1 0x1 ADD SWAP1 PUSH1 0x20 ADD DUP1 DUP4 GT PUSH3 0x8D9 JUMPI DUP3 SWAP1 SUB PUSH1 0x1F AND DUP3 ADD SWAP2 JUMPDEST POP POP POP POP POP DUP2 MSTORE PUSH1 0x20 ADD PUSH1 0x3 DUP3 ADD DUP1 SLOAD PUSH3 0x912 SWAP1 PUSH3 0x2AF1 JUMP JUMPDEST DUP1 PUSH1 0x1F ADD PUSH1 0x20 DUP1 SWAP2 DIV MUL PUSH1 0x20 ADD PUSH1 0x40 MLOAD SWAP1 DUP2 ADD PUSH1 0x40 MSTORE DUP1 SWAP3 SWAP2 SWAP1 DUP2 DUP2 MSTORE PUSH1 0x20 ADD DUP3 DUP1 SLOAD PUSH3 0x940 SWAP1 PUSH3 0x2AF1 JUMP JUMPDEST DUP1 ISZERO PUSH3 0x991 JUMPI DUP1 PUSH1 0x1F LT PUSH3 0x965 JUMPI PUSH2 0x100 DUP1 DUP4 SLOAD DIV MUL DUP4 MSTORE SWAP2 PUSH1 0x20 ADD SWAP2 PUSH3 0x991 JUMP JUMPDEST DUP3 ADD SWAP2 SWAP1 PUSH1 0x0 MSTORE PUSH1 0x20 PUSH1 0x0 KECCAK256 SWAP1 JUMPDEST DUP2 SLOAD DUP2 MSTORE SWAP1 PUSH1 0x1 ADD SWAP1 PUSH1 0x20 ADD DUP1 DUP4 GT PUSH3 0x973 JUMPI DUP3 SWAP1 SUB PUSH1 0x1F AND DUP3 ADD SWAP2 JUMPDEST POP POP POP SWAP2 DUP4 MSTORE POP POP PUSH1 0x4 DUP3 ADD SLOAD PUSH1 0x20 DUP3 ADD MSTORE PUSH1 0x5 DUP3 ADD SLOAD PUSH1 0x40 DUP3 ADD MSTORE PUSH1 0x6 DUP3 ADD SLOAD PUSH1 0x60 DUP3 ADD MSTORE PUSH1 0x7 DUP3 ADD SLOAD PUSH1 0x80 SWAP1 SWAP2 ADD SWAP1 PUSH1 0xFF AND PUSH1 0x3 DUP2 GT ISZERO PUSH3 0x9D9 JUMPI PUSH3 0x9D9 PUSH3 0x270E JUMP JUMPDEST PUSH1 0x3 DUP2 GT ISZERO PUSH3 0x9ED JUMPI PUSH3 0x9ED PUSH3 0x270E JUMP JUMPDEST DUP2 MSTORE POP POP DUP4 DUP4 DUP2 MLOAD DUP2 LT PUSH3 0xA06 JUMPI PUSH3 0xA06 PUSH3 0x2ADB JUMP JUMPDEST PUSH1 0x20 SWAP1 DUP2 MUL SWAP2 SWAP1 SWAP2 ADD ADD MSTORE PUSH3 0xA1E DUP3 PUSH1 0x1 PUSH3 0x256C JUMP JUMPDEST SWAP2 POP JUMPDEST DUP1 PUSH3 0xA2D DUP2 PUSH3 0x2B44 JUMP JUMPDEST SWAP2 POP POP PUSH3 0x7C2 JUMP JUMPDEST POP SWAP1 SWAP3 SWAP2 POP POP JUMP JUMPDEST PUSH1 0x0 DUP3 DUP2 MSTORE PUSH1 0x4 PUSH1 0x20 MSTORE PUSH1 0x40 SWAP1 KECCAK256 PUSH1 0x1 ADD SLOAD PUSH1 0x1 PUSH1 0x1 PUSH1 0xA0 SHL SUB AND CALLER EQ PUSH3 0xA7A JUMPI PUSH1 0x40 MLOAD PUSH3 0x461BCD PUSH1 0xE5 SHL DUP2 MSTORE PUSH1 0x4 ADD PUSH3 0x489 SWAP1 PUSH3 0x2B62 JUMP JUMPDEST PUSH1 0x0 DUP3 DUP2 MSTORE PUSH1 0x4 PUSH1 0x20 SWAP1 DUP2 MSTORE PUSH1 0x40 DUP1 DUP4 KECCAK256 PUSH1 0x6 ADD SLOAD PUSH1 0x9 DUP4 MSTORE DUP2 DUP5 KECCAK256 PUSH1 0x1 PUSH1 0x1 PUSH1 0xA0 SHL SUB DUP7 AND DUP6 MSTORE SWAP1 SWAP3 MSTORE SWAP1 SWAP2 KECCAK256 PUSH1 0x2 ADD SLOAD TIMESTAMP SWAP2 DUP3 SWAP2 PUSH3 0xABC SWAP2 SWAP1 PUSH3 0x2BA9 JUMP JUMPDEST LT PUSH3 0xB17 JUMPI PUSH1 0x40 MLOAD PUSH3 0x461BCD PUSH1 0xE5 SHL DUP2 MSTORE PUSH1 0x20 PUSH1 0x4 DUP3 ADD MSTORE PUSH1 0x23 PUSH1 0x24 DUP3 ADD MSTORE PUSH32 0x4C6F636B696E6720706572696F642069736E277420636F6D706C657465642079 PUSH1 0x44 DUP3 ADD MSTORE PUSH3 0x657421 PUSH1 0xE8 SHL PUSH1 0x64 DUP3 ADD MSTORE PUSH1 0x84 ADD PUSH3 0x489 JUMP JUMPDEST PUSH1 0x0 DUP4 DUP2 MSTORE PUSH1 0x9 PUSH1 0x20 SWAP1 DUP2 MSTORE PUSH1 0x40 DUP1 DUP4 KECCAK256 PUSH1 0x1 PUSH1 0x1 PUSH1 0xA0 SHL SUB DUP7 AND DUP5 MSTORE DUP3 MSTORE DUP1 DUP4 KECCAK256 PUSH1 0x1 ADD SLOAD DUP7 DUP5 MSTORE PUSH1 0x4 SWAP1 SWAP3 MSTORE DUP3 KECCAK256 PUSH1 0x5 ADD SLOAD SWAP1 SWAP2 PUSH3 0xB67 PUSH2 0x2710 PUSH3 0xB60 DUP5 DUP7 PUSH3 0x2BC4 JUMP JUMPDEST SWAP1 PUSH3 0x2581 JUMP JUMPDEST PUSH1 0x0 DUP8 DUP2 MSTORE PUSH1 0x9 PUSH1 0x20 SWAP1 DUP2 MSTORE PUSH1 0x40 DUP1 DUP4 KECCAK256 PUSH1 0x1 PUSH1 0x1 PUSH1 0xA0 SHL SUB DUP11 AND DUP5 MSTORE SWAP1 SWAP2 MSTORE DUP2 KECCAK256 PUSH1 0x1 ADD SLOAD SWAP2 SWAP3 POP SWAP1 PUSH3 0xB9E SWAP1 DUP4 SWAP1 PUSH3 0x2BA9 JUMP JUMPDEST PUSH1 0x0 SLOAD PUSH1 0x40 MLOAD PUSH4 0x95EA7B3 PUSH1 0xE0 SHL DUP2 MSTORE SWAP2 SWAP3 POP PUSH1 0x1 PUSH1 0x1 PUSH1 0xA0 SHL SUB AND SWAP1 PUSH4 0x95EA7B3 SWAP1 PUSH3 0xBD3 SWAP1 ADDRESS SWAP1 DUP6 SWAP1 PUSH1 0x4 ADD PUSH3 0x2BE6 JUMP JUMPDEST PUSH1 0x20 PUSH1 0x40 MLOAD DUP1 DUP4 SUB DUP2 PUSH1 0x0 DUP8 GAS CALL ISZERO DUP1 ISZERO PUSH3 0xBF3 JUMPI RETURNDATASIZE PUSH1 0x0 DUP1 RETURNDATACOPY RETURNDATASIZE PUSH1 0x0 REVERT JUMPDEST POP POP POP POP PUSH1 0x40 MLOAD RETURNDATASIZE PUSH1 0x1F NOT PUSH1 0x1F DUP3 ADD AND DUP3 ADD DUP1 PUSH1 0x40 MSTORE POP DUP2 ADD SWAP1 PUSH3 0xC19 SWAP2 SWAP1 PUSH3 0x2BFF JUMP JUMPDEST POP PUSH1 0x0 SLOAD PUSH1 0x40 MLOAD PUSH4 0x23B872DD PUSH1 0xE0 SHL DUP2 MSTORE PUSH1 0x1 PUSH1 0x1 PUSH1 0xA0 SHL SUB SWAP1 SWAP2 AND SWAP1 PUSH4 0x23B872DD SWAP1 PUSH3 0xC50 SWAP1 CALLER SWAP1 ADDRESS SWAP1 DUP7 SWAP1 PUSH1 0x4 ADD PUSH3 0x2C23 JUMP JUMPDEST PUSH1 0x20 PUSH1 0x40 MLOAD DUP1 DUP4 SUB DUP2 PUSH1 0x0 DUP8 GAS CALL ISZERO DUP1 ISZERO PUSH3 0xC70 JUMPI RETURNDATASIZE PUSH1 0x0 DUP1 RETURNDATACOPY RETURNDATASIZE PUSH1 0x0 REVERT JUMPDEST POP POP POP POP PUSH1 0x40 MLOAD RETURNDATASIZE PUSH1 0x1F NOT PUSH1 0x1F DUP3 ADD AND DUP3 ADD DUP1 PUSH1 0x40 MSTORE POP DUP2 ADD SWAP1 PUSH3 0xC96 SWAP2 SWAP1 PUSH3 0x2BFF JUMP JUMPDEST POP PUSH1 0x0 DUP8 DUP2 MSTORE PUSH1 0x9 PUSH1 0x20 SWAP1 DUP2 MSTORE PUSH1 0x40 DUP1 DUP4 KECCAK256 PUSH1 0x1 PUSH1 0x1 PUSH1 0xA0 SHL SUB DUP11 AND DUP1 DUP6 MSTORE SWAP1 DUP4 MSTORE SWAP3 DUP2 SWAP1 KECCAK256 PUSH1 0x1 ADD SLOAD SWAP1 MLOAD SWAP1 DUP2 MSTORE DUP4 SWAP3 SWAP2 CALLER SWAP2 PUSH32 0x645022E31D6162246261BB5098EB1ECD11CB872EE031FAB138452AAFC9240DB2 SWAP2 ADD PUSH1 0x40 MLOAD DUP1 SWAP2 SUB SWAP1 LOG4 POP POP POP POP POP POP POP JUMP JUMPDEST PUSH1 0x2 PUSH1 0x0 DUP4 DUP2 MSTORE PUSH1 0x4 PUSH1 0x20 MSTORE PUSH1 0x40 SWAP1 KECCAK256 PUSH1 0x7 ADD SLOAD PUSH1 0xFF AND PUSH1 0x3 DUP2 GT ISZERO PUSH3 0xD29 JUMPI PUSH3 0xD29 PUSH3 0x270E JUMP JUMPDEST EQ PUSH3 0xDB0 JUMPI PUSH1 0x40 MLOAD PUSH3 0x461BCD PUSH1 0xE5 SHL DUP2 MSTORE PUSH1 0x20 PUSH1 0x4 DUP3 ADD MSTORE PUSH1 0x49 PUSH1 0x24 DUP3 ADD MSTORE PUSH32 0x50726F70657274792069736E277420617070726F76656420796574212C205761 PUSH1 0x44 DUP3 ADD MSTORE PUSH32 0x697420666F7220706C6174666F726D20746F20617070726F7665207468697320 PUSH1 0x64 DUP3 ADD MSTORE PUSH9 0x383937B832B93A3C97 PUSH1 0xB9 SHL PUSH1 0x84 DUP3 ADD MSTORE PUSH1 0xA4 ADD PUSH3 0x489 JUMP JUMPDEST PUSH1 0x0 DUP3 DUP2 MSTORE PUSH1 0x6 PUSH1 0x20 MSTORE PUSH1 0x40 SWAP1 KECCAK256 SLOAD DUP2 GT ISZERO PUSH3 0xE36 JUMPI PUSH1 0x40 MLOAD PUSH3 0x461BCD PUSH1 0xE5 SHL DUP2 MSTORE PUSH1 0x20 PUSH1 0x4 DUP3 ADD MSTORE PUSH1 0x3F PUSH1 0x24 DUP3 ADD MSTORE PUSH32 0x496E76657374656420416D6F756E74206578636565647320746865206E756D62 PUSH1 0x44 DUP3 ADD MSTORE PUSH32 0x6572206F662050726F706572747920546F6B656E7320617661696C61626C6500 PUSH1 0x64 DUP3 ADD MSTORE PUSH1 0x84 ADD PUSH3 0x489 JUMP JUMPDEST PUSH1 0x0 SLOAD PUSH1 0x40 MLOAD PUSH4 0x95EA7B3 PUSH1 0xE0 SHL DUP2 MSTORE PUSH1 0x1 PUSH1 0x1 PUSH1 0xA0 SHL SUB SWAP1 SWAP2 AND SWAP1 PUSH4 0x95EA7B3 SWAP1 PUSH3 0xE6A SWAP1 ADDRESS SWAP1 DUP6 SWAP1 PUSH1 0x4 ADD PUSH3 0x2BE6 JUMP JUMPDEST PUSH1 0x20 PUSH1 0x40 MLOAD DUP1 DUP4 SUB DUP2 PUSH1 0x0 DUP8 GAS CALL ISZERO DUP1 ISZERO PUSH3 0xE8A JUMPI RETURNDATASIZE PUSH1 0x0 DUP1 RETURNDATACOPY RETURNDATASIZE PUSH1 0x0 REVERT JUMPDEST POP POP POP POP PUSH1 0x40 MLOAD RETURNDATASIZE PUSH1 0x1F NOT PUSH1 0x1F DUP3 ADD AND DUP3 ADD DUP1 PUSH1 0x40 MSTORE POP DUP2 ADD SWAP1 PUSH3 0xEB0 SWAP2 SWAP1 PUSH3 0x2BFF JUMP JUMPDEST POP PUSH1 0x0 SLOAD PUSH1 0x40 MLOAD PUSH4 0x23B872DD PUSH1 0xE0 SHL DUP2 MSTORE PUSH1 0x1 PUSH1 0x1 PUSH1 0xA0 SHL SUB SWAP1 SWAP2 AND SWAP1 PUSH4 0x23B872DD SWAP1 PUSH3 0xEE7 SWAP1 CALLER SWAP1 ADDRESS SWAP1 DUP7 SWAP1 PUSH1 0x4 ADD PUSH3 0x2C23 JUMP JUMPDEST PUSH1 0x20 PUSH1 0x40 MLOAD DUP1 DUP4 SUB DUP2 PUSH1 0x0 DUP8 GAS CALL ISZERO DUP1 ISZERO PUSH3 0xF07 JUMPI RETURNDATASIZE PUSH1 0x0 DUP1 RETURNDATACOPY RETURNDATASIZE PUSH1 0x0 REVERT JUMPDEST POP POP POP POP PUSH1 0x40 MLOAD RETURNDATASIZE PUSH1 0x1F NOT PUSH1 0x1F DUP3 ADD AND DUP3 ADD DUP1 PUSH1 0x40 MSTORE POP DUP2 ADD SWAP1 PUSH3 0xF2D SWAP2 SWAP1 PUSH3 0x2BFF JUMP JUMPDEST POP PUSH1 0x0 DUP3 DUP2 MSTORE PUSH1 0x7 PUSH1 0x20 MSTORE PUSH1 0x40 DUP2 KECCAK256 DUP1 SLOAD DUP4 SWAP3 SWAP1 PUSH3 0xF4E SWAP1 DUP5 SWAP1 PUSH3 0x2BA9 JUMP JUMPDEST SWAP1 SWAP2 SSTORE POP POP PUSH1 0x0 DUP3 DUP2 MSTORE PUSH1 0x5 PUSH1 0x20 MSTORE PUSH1 0x40 SWAP1 DUP2 SWAP1 KECCAK256 SLOAD SWAP1 MLOAD PUSH4 0x95EA7B3 PUSH1 0xE0 SHL DUP2 MSTORE PUSH1 0x1 PUSH1 0x1 PUSH1 0xA0 SHL SUB SWAP1 SWAP2 AND SWAP1 PUSH4 0x95EA7B3 SWAP1 PUSH3 0xF94 SWAP1 CALLER SWAP1 DUP6 SWAP1 PUSH1 0x4 ADD PUSH3 0x2BE6 JUMP JUMPDEST PUSH1 0x20 PUSH1 0x40 MLOAD DUP1 DUP4 SUB DUP2 PUSH1 0x0 DUP8 GAS CALL ISZERO DUP1 ISZERO PUSH3 0xFB4 JUMPI RETURNDATASIZE PUSH1 0x0 DUP1 RETURNDATACOPY RETURNDATASIZE PUSH1 0x0 REVERT JUMPDEST POP POP POP POP PUSH1 0x40 MLOAD RETURNDATASIZE PUSH1 0x1F NOT PUSH1 0x1F DUP3 ADD AND DUP3 ADD DUP1 PUSH1 0x40 MSTORE POP DUP2 ADD SWAP1 PUSH3 0xFDA SWAP2 SWAP1 PUSH3 0x2BFF JUMP JUMPDEST POP PUSH1 0x0 DUP3 DUP2 MSTORE PUSH1 0x5 PUSH1 0x20 MSTORE PUSH1 0x40 SWAP1 DUP2 SWAP1 KECCAK256 SLOAD SWAP1 MLOAD PUSH4 0x23B872DD PUSH1 0xE0 SHL DUP2 MSTORE PUSH1 0x1 PUSH1 0x1 PUSH1 0xA0 SHL SUB SWAP1 SWAP2 AND SWAP1 PUSH4 0x23B872DD SWAP1 PUSH3 0x101E SWAP1 ADDRESS SWAP1 CALLER SWAP1 DUP7 SWAP1 PUSH1 0x4 ADD PUSH3 0x2C23 JUMP JUMPDEST PUSH1 0x20 PUSH1 0x40 MLOAD DUP1 DUP4 SUB DUP2 PUSH1 0x0 DUP8 GAS CALL ISZERO DUP1 ISZERO PUSH3 0x103E JUMPI RETURNDATASIZE PUSH1 0x0 DUP1 RETURNDATACOPY RETURNDATASIZE PUSH1 0x0 REVERT JUMPDEST POP POP POP POP PUSH1 0x40 MLOAD RETURNDATASIZE PUSH1 0x1F NOT PUSH1 0x1F DUP3 ADD AND DUP3 ADD DUP1 PUSH1 0x40 MSTORE POP DUP2 ADD SWAP1 PUSH3 0x1064 SWAP2 SWAP1 PUSH3 0x2BFF JUMP JUMPDEST POP PUSH1 0x0 DUP3 DUP2 MSTORE PUSH1 0x6 PUSH1 0x20 MSTORE PUSH1 0x40 DUP2 KECCAK256 DUP1 SLOAD DUP4 SWAP3 SWAP1 PUSH3 0x1085 SWAP1 DUP5 SWAP1 PUSH3 0x2C47 JUMP JUMPDEST SWAP1 SWAP2 SSTORE POP POP PUSH1 0x40 DUP1 MLOAD PUSH1 0x60 DUP1 DUP3 ADD DUP4 MSTORE CALLER DUP1 DUP4 MSTORE PUSH1 0x20 DUP1 DUP5 ADD DUP7 DUP2 MSTORE TIMESTAMP DUP6 DUP8 ADD DUP2 DUP2 MSTORE PUSH1 0x0 DUP11 DUP2 MSTORE PUSH1 0x9 DUP6 MSTORE DUP9 DUP2 KECCAK256 DUP7 DUP3 MSTORE DUP6 MSTORE DUP9 DUP2 KECCAK256 SWAP8 MLOAD DUP9 SLOAD PUSH1 0x1 PUSH1 0x1 PUSH1 0xA0 SHL SUB NOT SWAP1 DUP2 AND PUSH1 0x1 PUSH1 0x1 PUSH1 0xA0 SHL SUB SWAP3 DUP4 AND OR DUP11 SSTORE SWAP5 MLOAD PUSH1 0x1 DUP1 DUP12 ADD SWAP2 DUP3 SSTORE SWAP4 MLOAD PUSH1 0x2 DUP1 DUP13 ADD SWAP2 DUP3 SSTORE DUP15 DUP6 MSTORE PUSH1 0xA DUP10 MSTORE DUP13 DUP6 KECCAK256 DUP1 SLOAD DUP1 DUP9 ADD DUP3 SSTORE SWAP1 DUP7 MSTORE DUP10 DUP7 KECCAK256 SWAP13 SLOAD PUSH1 0x3 SWAP1 SWAP2 MUL SWAP1 SWAP13 ADD DUP1 SLOAD SWAP13 SWAP1 SWAP5 AND SWAP12 SWAP1 SWAP8 AND SWAP11 SWAP1 SWAP11 OR DUP3 SSTORE SLOAD SWAP3 DUP2 ADD SWAP3 SWAP1 SWAP3 SSTORE SWAP7 SLOAD SWAP3 ADD SWAP2 SWAP1 SWAP2 SSTORE DUP8 DUP6 MSTORE PUSH1 0x4 DUP1 DUP4 MSTORE SWAP5 DUP7 SWAP1 KECCAK256 SWAP5 DUP6 ADD SLOAD PUSH1 0x5 SWAP1 SWAP6 ADD SLOAD DUP7 MLOAD DUP10 DUP2 MSTORE SWAP3 DUP4 ADD SWAP4 SWAP1 SWAP4 MSTORE DUP2 DUP7 ADD DUP8 SWAP1 MSTORE SWAP3 DUP2 ADD SWAP4 SWAP1 SWAP4 MSTORE PUSH1 0x80 DUP4 ADD MSTORE SWAP2 MLOAD PUSH32 0x5B6ABA494D396D077EC63D680E22EE6CC881E6182750F6869757AFEB3F65C7FB SWAP2 DUP2 SWAP1 SUB PUSH1 0xA0 ADD SWAP1 LOG1 POP POP POP JUMP JUMPDEST PUSH1 0x1 PUSH1 0x0 DUP4 DUP2 MSTORE PUSH1 0x4 PUSH1 0x20 MSTORE PUSH1 0x40 SWAP1 KECCAK256 PUSH1 0x7 ADD SLOAD PUSH1 0xFF AND PUSH1 0x3 DUP2 GT ISZERO PUSH3 0x11BF JUMPI PUSH3 0x11BF PUSH3 0x270E JUMP JUMPDEST EQ PUSH3 0x11DF JUMPI PUSH1 0x40 MLOAD PUSH3 0x461BCD PUSH1 0xE5 SHL DUP2 MSTORE PUSH1 0x4 ADD PUSH3 0x489 SWAP1 PUSH3 0x2C61 JUMP JUMPDEST PUSH1 0x0 DUP3 DUP2 MSTORE PUSH1 0x4 PUSH1 0x20 MSTORE PUSH1 0x40 SWAP1 KECCAK256 PUSH1 0x1 ADD SLOAD PUSH1 0x1 PUSH1 0x1 PUSH1 0xA0 SHL SUB AND CALLER EQ PUSH3 0x121B JUMPI PUSH1 0x40 MLOAD PUSH3 0x461BCD PUSH1 0xE5 SHL DUP2 MSTORE PUSH1 0x4 ADD PUSH3 0x489 SWAP1 PUSH3 0x2CAE JUMP JUMPDEST PUSH1 0x0 DUP3 DUP2 MSTORE PUSH1 0x4 PUSH1 0x20 MSTORE PUSH1 0x40 DUP2 KECCAK256 PUSH1 0x5 ADD DUP3 SWAP1 SSTORE PUSH1 0x2 DUP1 SLOAD DUP5 SWAP1 DUP2 LT PUSH3 0x1246 JUMPI PUSH3 0x1246 PUSH3 0x2ADB JUMP JUMPDEST SWAP1 PUSH1 0x0 MSTORE PUSH1 0x20 PUSH1 0x0 KECCAK256 SWAP1 PUSH1 0x8 MUL ADD SWAP1 POP DUP2 DUP2 PUSH1 0x5 ADD DUP2 SWAP1 SSTORE POP DUP2 DUP4 PUSH32 0x41E376FD99913DEA7FDA140F5C0BD997515B1A181ACC58737320322548EC6E72 PUSH1 0x40 MLOAD PUSH1 0x40 MLOAD DUP1 SWAP2 SUB SWAP1 LOG3 POP POP POP JUMP JUMPDEST PUSH1 0x1 PUSH1 0x0 DUP4 DUP2 MSTORE PUSH1 0x4 PUSH1 0x20 MSTORE PUSH1 0x40 SWAP1 KECCAK256 PUSH1 0x7 ADD SLOAD PUSH1 0xFF AND PUSH1 0x3 DUP2 GT ISZERO PUSH3 0x12BD JUMPI PUSH3 0x12BD PUSH3 0x270E JUMP JUMPDEST EQ PUSH3 0x12DD JUMPI PUSH1 0x40 MLOAD PUSH3 0x461BCD PUSH1 0xE5 SHL DUP2 MSTORE PUSH1 0x4 ADD PUSH3 0x489 SWAP1 PUSH3 0x2C61 JUMP JUMPDEST PUSH1 0x0 DUP3 DUP2 MSTORE PUSH1 0x4 PUSH1 0x20 MSTORE PUSH1 0x40 SWAP1 KECCAK256 PUSH1 0x1 ADD SLOAD PUSH1 0x1 PUSH1 0x1 PUSH1 0xA0 SHL SUB AND CALLER EQ PUSH3 0x1319 JUMPI PUSH1 0x40 MLOAD PUSH3 0x461BCD PUSH1 0xE5 SHL DUP2 MSTORE PUSH1 0x4 ADD PUSH3 0x489 SWAP1 PUSH3 0x2CAE JUMP JUMPDEST PUSH1 0x0 DUP3 DUP2 MSTORE PUSH1 0x4 PUSH1 0x20 MSTORE PUSH1 0x40 DUP2 KECCAK256 PUSH1 0x6 ADD DUP3 SWAP1 SSTORE PUSH1 0x2 DUP1 SLOAD DUP5 SWAP1 DUP2 LT PUSH3 0x1344 JUMPI PUSH3 0x1344 PUSH3 0x2ADB JUMP JUMPDEST SWAP1 PUSH1 0x0 MSTORE PUSH1 0x20 PUSH1 0x0 KECCAK256 SWAP1 PUSH1 0x8 MUL ADD SWAP1 POP DUP2 DUP2 PUSH1 0x6 ADD DUP2 SWAP1 SSTORE POP DUP2 DUP4 PUSH32 0x579A94973CD8AE08593EE544F98E6C6C7F33B886A3EE478234AE587DFC75FF5F PUSH1 0x40 MLOAD PUSH1 0x40 MLOAD DUP1 SWAP2 SUB SWAP1 LOG3 POP POP POP JUMP JUMPDEST PUSH1 0x0 DUP3 DUP2 MSTORE PUSH1 0x4 PUSH1 0x20 MSTORE PUSH1 0x40 SWAP1 KECCAK256 PUSH1 0x1 ADD SLOAD PUSH1 0x1 PUSH1 0x1 PUSH1 0xA0 SHL SUB AND CALLER EQ PUSH3 0x13CC JUMPI PUSH1 0x40 MLOAD PUSH3 0x461BCD PUSH1 0xE5 SHL DUP2 MSTORE PUSH1 0x4 ADD PUSH3 0x489 SWAP1 PUSH3 0x2B62 JUMP JUMPDEST PUSH1 0x0 DUP3 DUP2 MSTORE PUSH1 0x6 PUSH1 0x20 MSTORE PUSH1 0x40 SWAP1 KECCAK256 SLOAD DUP2 GT ISZERO PUSH3 0x143E JUMPI PUSH1 0x40 MLOAD PUSH3 0x461BCD PUSH1 0xE5 SHL DUP2 MSTORE PUSH1 0x20 PUSH1 0x4 DUP3 ADD MSTORE PUSH1 0x29 PUSH1 0x24 DUP3 ADD MSTORE PUSH32 0x596F752061726520636C61696D696E67206D6F726520746F6B656E7320746861 PUSH1 0x44 DUP3 ADD MSTORE PUSH9 0x6E206C6F636B656421 PUSH1 0xB8 SHL PUSH1 0x64 DUP3 ADD MSTORE PUSH1 0x84 ADD PUSH3 0x489 JUMP JUMPDEST PUSH1 0x0 DUP3 DUP2 MSTORE PUSH1 0x5 PUSH1 0x20 MSTORE PUSH1 0x40 SWAP1 DUP2 SWAP1 KECCAK256 SLOAD SWAP1 MLOAD PUSH4 0x95EA7B3 PUSH1 0xE0 SHL DUP2 MSTORE PUSH1 0x1 PUSH1 0x1 PUSH1 0xA0 SHL SUB SWAP1 SWAP2 AND SWAP1 PUSH4 0x95EA7B3 SWAP1 PUSH3 0x147F SWAP1 CALLER SWAP1 DUP6 SWAP1 PUSH1 0x4 ADD PUSH3 0x2BE6 JUMP JUMPDEST PUSH1 0x20 PUSH1 0x40 MLOAD DUP1 DUP4 SUB DUP2 PUSH1 0x0 DUP8 GAS CALL ISZERO DUP1 ISZERO PUSH3 0x149F JUMPI RETURNDATASIZE PUSH1 0x0 DUP1 RETURNDATACOPY RETURNDATASIZE PUSH1 0x0 REVERT JUMPDEST POP POP POP POP PUSH1 0x40 MLOAD RETURNDATASIZE PUSH1 0x1F NOT PUSH1 0x1F DUP3 ADD AND DUP3 ADD DUP1 PUSH1 0x40 MSTORE POP DUP2 ADD SWAP1 PUSH3 0x14C5 SWAP2 SWAP1 PUSH3 0x2BFF JUMP JUMPDEST POP PUSH1 0x0 DUP3 DUP2 MSTORE PUSH1 0x5 PUSH1 0x20 MSTORE PUSH1 0x40 SWAP1 DUP2 SWAP1 KECCAK256 SLOAD SWAP1 MLOAD PUSH4 0x23B872DD PUSH1 0xE0 SHL DUP2 MSTORE PUSH1 0x1 PUSH1 0x1 PUSH1 0xA0 SHL SUB SWAP1 SWAP2 AND SWAP1 PUSH4 0x23B872DD SWAP1 PUSH3 0x1509 SWAP1 ADDRESS SWAP1 CALLER SWAP1 DUP7 SWAP1 PUSH1 0x4 ADD PUSH3 0x2C23 JUMP JUMPDEST PUSH1 0x20 PUSH1 0x40 MLOAD DUP1 DUP4 SUB DUP2 PUSH1 0x0 DUP8 GAS CALL ISZERO DUP1 ISZERO PUSH3 0x1529 JUMPI RETURNDATASIZE PUSH1 0x0 DUP1 RETURNDATACOPY RETURNDATASIZE PUSH1 0x0 REVERT JUMPDEST POP POP POP POP PUSH1 0x40 MLOAD RETURNDATASIZE PUSH1 0x1F NOT PUSH1 0x1F DUP3 ADD AND DUP3 ADD DUP1 PUSH1 0x40 MSTORE POP DUP2 ADD SWAP1 PUSH3 0x154F SWAP2 SWAP1 PUSH3 0x2BFF JUMP JUMPDEST POP PUSH1 0x0 DUP3 DUP2 MSTORE PUSH1 0x6 PUSH1 0x20 MSTORE PUSH1 0x40 DUP2 KECCAK256 DUP1 SLOAD DUP4 SWAP3 SWAP1 PUSH3 0x1570 SWAP1 DUP5 SWAP1 PUSH3 0x2C47 JUMP JUMPDEST SWAP1 SWAP2 SSTORE POP POP PUSH1 0x40 MLOAD DUP2 SWAP1 DUP4 SWAP1 CALLER SWAP1 PUSH32 0x47A01931146BD51789285412060EF22E95B412421F3D9FA44820F43D69158C9 SWAP1 PUSH1 0x0 SWAP1 LOG4 POP POP JUMP JUMPDEST PUSH1 0x0 DUP3 DUP2 MSTORE PUSH1 0x4 PUSH1 0x20 MSTORE PUSH1 0x40 SWAP1 KECCAK256 PUSH1 0x1 ADD SLOAD PUSH1 0x1 PUSH1 0x1 PUSH1 0xA0 SHL SUB AND CALLER EQ PUSH3 0x1623 JUMPI PUSH1 0x40 MLOAD PUSH3 0x461BCD PUSH1 0xE5 SHL DUP2 MSTORE PUSH1 0x20 PUSH1 0x4 DUP3 ADD MSTORE PUSH1 0x27 PUSH1 0x24 DUP3 ADD MSTORE PUSH32 0x596F7520617265206E6F7420746865206F6E776572206F662074686973207072 PUSH1 0x44 DUP3 ADD MSTORE PUSH7 0x6F706572747921 PUSH1 0xC8 SHL PUSH1 0x64 DUP3 ADD MSTORE PUSH1 0x84 ADD PUSH3 0x489 JUMP JUMPDEST PUSH1 0x0 DUP3 DUP2 MSTORE PUSH1 0x8 PUSH1 0x20 SWAP1 DUP2 MSTORE PUSH1 0x40 DUP1 DUP4 KECCAK256 SLOAD PUSH1 0x7 SWAP1 SWAP3 MSTORE DUP3 KECCAK256 SLOAD PUSH3 0x1649 SWAP2 SWAP1 PUSH3 0x2C47 JUMP JUMPDEST SWAP1 POP DUP1 DUP3 GT ISZERO PUSH3 0x169D JUMPI PUSH1 0x40 MLOAD PUSH3 0x461BCD PUSH1 0xE5 SHL DUP2 MSTORE PUSH1 0x20 PUSH1 0x4 DUP3 ADD MSTORE PUSH1 0x1E PUSH1 0x24 DUP3 ADD MSTORE PUSH32 0x416D6F756E742065786365656473207468616E20617661696C61626C65210000 PUSH1 0x44 DUP3 ADD MSTORE PUSH1 0x64 ADD PUSH3 0x489 JUMP JUMPDEST PUSH1 0x0 DUP1 SLOAD DUP5 DUP3 MSTORE PUSH1 0x4 PUSH1 0x20 DUP2 SWAP1 MSTORE PUSH1 0x40 SWAP3 DUP4 SWAP1 KECCAK256 PUSH1 0x1 ADD SLOAD SWAP3 MLOAD PUSH4 0x95EA7B3 PUSH1 0xE0 SHL DUP2 MSTORE PUSH1 0x1 PUSH1 0x1 PUSH1 0xA0 SHL SUB SWAP3 DUP4 AND SWAP4 PUSH4 0x95EA7B3 SWAP4 PUSH3 0x16E4 SWAP4 SWAP2 AND SWAP2 DUP8 SWAP2 ADD PUSH3 0x2BE6 JUMP JUMPDEST PUSH1 0x20 PUSH1 0x40 MLOAD DUP1 DUP4 SUB DUP2 PUSH1 0x0 DUP8 GAS CALL ISZERO DUP1 ISZERO PUSH3 0x1704 JUMPI RETURNDATASIZE PUSH1 0x0 DUP1 RETURNDATACOPY RETURNDATASIZE PUSH1 0x0 REVERT JUMPDEST POP POP POP POP PUSH1 0x40 MLOAD RETURNDATASIZE PUSH1 0x1F NOT PUSH1 0x1F DUP3 ADD AND DUP3 ADD DUP1 PUSH1 0x40 MSTORE POP DUP2 ADD SWAP1 PUSH3 0x172A SWAP2 SWAP1 PUSH3 0x2BFF JUMP JUMPDEST POP PUSH1 0x0 DUP1 SLOAD DUP5 DUP3 MSTORE PUSH1 0x4 PUSH1 0x20 DUP2 SWAP1 MSTORE PUSH1 0x40 SWAP3 DUP4 SWAP1 KECCAK256 PUSH1 0x1 ADD SLOAD SWAP3 MLOAD PUSH4 0x23B872DD PUSH1 0xE0 SHL DUP2 MSTORE PUSH1 0x1 PUSH1 0x1 PUSH1 0xA0 SHL SUB SWAP3 DUP4 AND SWAP4 PUSH4 0x23B872DD SWAP4 PUSH3 0x1776 SWAP4 ADDRESS SWAP4 SWAP3 SWAP1 SWAP2 AND SWAP2 DUP9 SWAP2 ADD PUSH3 0x2C23 JUMP JUMPDEST PUSH1 0x20 PUSH1 0x40 MLOAD DUP1 DUP4 SUB DUP2 PUSH1 0x0 DUP8 GAS CALL ISZERO DUP1 ISZERO PUSH3 0x1796 JUMPI RETURNDATASIZE PUSH1 0x0 DUP1 RETURNDATACOPY RETURNDATASIZE PUSH1 0x0 REVERT JUMPDEST POP POP POP POP PUSH1 0x40 MLOAD RETURNDATASIZE PUSH1 0x1F NOT PUSH1 0x1F DUP3 ADD AND DUP3 ADD DUP1 PUSH1 0x40 MSTORE POP DUP2 ADD SWAP1 PUSH3 0x17BC SWAP2 SWAP1 PUSH3 0x2BFF JUMP JUMPDEST POP PUSH1 0x0 DUP4 DUP2 MSTORE PUSH1 0x8 PUSH1 0x20 MSTORE PUSH1 0x40 DUP2 KECCAK256 DUP1 SLOAD DUP5 SWAP3 SWAP1 PUSH3 0x17DD SWAP1 DUP5 SWAP1 PUSH3 0x2BA9 JUMP JUMPDEST SWAP1 SWAP2 SSTORE POP POP PUSH1 0x40 MLOAD DUP3 SWAP1 DUP5 SWAP1 CALLER SWAP1 PUSH32 0x5013455C3E61C232B845B4904991BC6DD2E1E7F2B603C27976428E1E3783604F SWAP1 PUSH1 0x0 SWAP1 LOG4 POP POP POP JUMP JUMPDEST PUSH1 0x0 DUP3 DUP2 MSTORE PUSH1 0x9 PUSH1 0x20 SWAP1 DUP2 MSTORE PUSH1 0x40 DUP1 DUP4 KECCAK256 CALLER DUP1 DUP6 MSTORE SWAP3 MSTORE SWAP1 SWAP2 KECCAK256 SLOAD PUSH1 0x1 PUSH1 0x1 PUSH1 0xA0 SHL SUB AND EQ PUSH3 0x1899 JUMPI PUSH1 0x40 MLOAD PUSH3 0x461BCD PUSH1 0xE5 SHL DUP2 MSTORE PUSH1 0x20 PUSH1 0x4 DUP3 ADD MSTORE PUSH1 0x27 PUSH1 0x24 DUP3 ADD MSTORE PUSH32 0x596F752068617665206E6F7420696E76657374656420696E2074686973207072 PUSH1 0x44 DUP3 ADD MSTORE PUSH7 0x6F706572747921 PUSH1 0xC8 SHL PUSH1 0x64 DUP3 ADD MSTORE PUSH1 0x84 ADD PUSH3 0x489 JUMP JUMPDEST PUSH1 0x0 SLOAD PUSH1 0x40 MLOAD PUSH4 0x95EA7B3 PUSH1 0xE0 SHL DUP2 MSTORE PUSH1 0x1 PUSH1 0x1 PUSH1 0xA0 SHL SUB SWAP1 SWAP2 AND SWAP1 PUSH4 0x95EA7B3 SWAP1 PUSH3 0x18CD SWAP1 CALLER SWAP1 DUP6 SWAP1 PUSH1 0x4 ADD PUSH3 0x2BE6 JUMP JUMPDEST PUSH1 0x20 PUSH1 0x40 MLOAD DUP1 DUP4 SUB DUP2 PUSH1 0x0 DUP8 GAS CALL ISZERO DUP1 ISZERO PUSH3 0x18ED JUMPI RETURNDATASIZE PUSH1 0x0 DUP1 RETURNDATACOPY RETURNDATASIZE PUSH1 0x0 REVERT JUMPDEST POP POP POP POP PUSH1 0x40 MLOAD RETURNDATASIZE PUSH1 0x1F NOT PUSH1 0x1F DUP3 ADD AND DUP3 ADD DUP1 PUSH1 0x40 MSTORE POP DUP2 ADD SWAP1 PUSH3 0x1913 SWAP2 SWAP1 PUSH3 0x2BFF JUMP JUMPDEST POP PUSH1 0x0 SLOAD PUSH1 0x40 MLOAD PUSH4 0x23B872DD PUSH1 0xE0 SHL DUP2 MSTORE PUSH1 0x1 PUSH1 0x1 PUSH1 0xA0 SHL SUB SWAP1 SWAP2 AND SWAP1 PUSH4 0x23B872DD SWAP1 PUSH3 0x194A SWAP1 ADDRESS SWAP1 CALLER SWAP1 DUP7 SWAP1 PUSH1 0x4 ADD PUSH3 0x2C23 JUMP JUMPDEST PUSH1 0x20 PUSH1 0x40 MLOAD DUP1 DUP4 SUB DUP2 PUSH1 0x0 DUP8 GAS CALL ISZERO DUP1 ISZERO PUSH3 0x196A JUMPI RETURNDATASIZE PUSH1 0x0 DUP1 RETURNDATACOPY RETURNDATASIZE PUSH1 0x0 REVERT JUMPDEST POP POP POP POP PUSH1 0x40 MLOAD RETURNDATASIZE PUSH1 0x1F NOT PUSH1 0x1F DUP3 ADD AND DUP3 ADD DUP1 PUSH1 0x40 MSTORE POP DUP2 ADD SWAP1 PUSH3 0x1990 SWAP2 SWAP1 PUSH3 0x2BFF JUMP JUMPDEST POP PUSH1 0x0 DUP3 DUP2 MSTORE PUSH1 0x9 PUSH1 0x20 SWAP1 DUP2 MSTORE PUSH1 0x40 DUP1 DUP4 KECCAK256 CALLER DUP5 MSTORE DUP3 MSTORE DUP1 DUP4 KECCAK256 PUSH1 0x1 ADD SLOAD DUP6 DUP5 MSTORE PUSH1 0x7 SWAP1 SWAP3 MSTORE DUP3 KECCAK256 DUP1 SLOAD SWAP2 SWAP3 SWAP1 SWAP2 PUSH3 0x19CB SWAP1 DUP5 SWAP1 PUSH3 0x2C47 JUMP JUMPDEST SWAP1 SWAP2 SSTORE POP POP PUSH1 0x0 DUP3 DUP2 MSTORE PUSH1 0x5 PUSH1 0x20 SWAP1 DUP2 MSTORE PUSH1 0x40 DUP1 DUP4 KECCAK256 SLOAD PUSH1 0x9 DUP4 MSTORE DUP2 DUP5 KECCAK256 CALLER DUP6 MSTORE SWAP1 SWAP3 MSTORE SWAP2 DUP3 SWAP1 KECCAK256 PUSH1 0x1 ADD SLOAD SWAP2 MLOAD PUSH4 0x95EA7B3 PUSH1 0xE0 SHL DUP2 MSTORE PUSH1 0x1 PUSH1 0x1 PUSH1 0xA0 SHL SUB SWAP1 SWAP2 AND SWAP2 PUSH4 0x95EA7B3 SWAP2 PUSH3 0x1A25 SWAP2 ADDRESS SWAP2 PUSH1 0x4 ADD PUSH3 0x2BE6 JUMP JUMPDEST PUSH1 0x20 PUSH1 0x40 MLOAD DUP1 DUP4 SUB DUP2 PUSH1 0x0 DUP8 GAS CALL ISZERO DUP1 ISZERO PUSH3 0x1A45 JUMPI RETURNDATASIZE PUSH1 0x0 DUP1 RETURNDATACOPY RETURNDATASIZE PUSH1 0x0 REVERT JUMPDEST POP POP POP POP PUSH1 0x40 MLOAD RETURNDATASIZE PUSH1 0x1F NOT PUSH1 0x1F DUP3 ADD AND DUP3 ADD DUP1 PUSH1 0x40 MSTORE POP DUP2 ADD SWAP1 PUSH3 0x1A6B SWAP2 SWAP1 PUSH3 0x2BFF JUMP JUMPDEST POP PUSH1 0x0 DUP3 DUP2 MSTORE PUSH1 0x5 PUSH1 0x20 SWAP1 DUP2 MSTORE PUSH1 0x40 DUP1 DUP4 KECCAK256 SLOAD PUSH1 0x9 DUP4 MSTORE DUP2 DUP5 KECCAK256 CALLER DUP1 DUP7 MSTORE SWAP4 MSTORE SWAP3 DUP2 SWAP1 KECCAK256 PUSH1 0x1 ADD SLOAD SWAP1 MLOAD PUSH4 0x23B872DD PUSH1 0xE0 SHL DUP2 MSTORE PUSH1 0x1 PUSH1 0x1 PUSH1 0xA0 SHL SUB SWAP1 SWAP4 AND SWAP3 PUSH4 0x23B872DD SWAP3 PUSH3 0x1AC4 SWAP3 SWAP1 SWAP2 ADDRESS SWAP2 SWAP1 PUSH1 0x4 ADD PUSH3 0x2C23 JUMP JUMPDEST PUSH1 0x20 PUSH1 0x40 MLOAD DUP1 DUP4 SUB DUP2 PUSH1 0x0 DUP8 GAS CALL ISZERO DUP1 ISZERO PUSH3 0x1AE4 JUMPI RETURNDATASIZE PUSH1 0x0 DUP1 RETURNDATACOPY RETURNDATASIZE PUSH1 0x0 REVERT JUMPDEST POP POP POP POP PUSH1 0x40 MLOAD RETURNDATASIZE PUSH1 0x1F NOT PUSH1 0x1F DUP3 ADD AND DUP3 ADD DUP1 PUSH1 0x40 MSTORE POP DUP2 ADD SWAP1 PUSH3 0x1B0A SWAP2 SWAP1 PUSH3 0x2BFF JUMP JUMPDEST POP PUSH1 0x0 DUP3 DUP2 MSTORE PUSH1 0x9 PUSH1 0x20 SWAP1 DUP2 MSTORE PUSH1 0x40 DUP1 DUP4 KECCAK256 CALLER DUP5 MSTORE DUP3 MSTORE DUP1 DUP4 KECCAK256 PUSH1 0x1 ADD SLOAD DUP6 DUP5 MSTORE PUSH1 0x6 SWAP1 SWAP3 MSTORE DUP3 KECCAK256 DUP1 SLOAD SWAP2 SWAP3 SWAP1 SWAP2 PUSH3 0x1B45 SWAP1 DUP5 SWAP1 PUSH3 0x2BA9 JUMP JUMPDEST SWAP1 SWAP2 SSTORE POP POP PUSH1 0x40 MLOAD DUP2 SWAP1 DUP4 SWAP1 CALLER SWAP1 PUSH32 0x9EB6AD036B583D67A9D59264FA4E88903248ADEFB4BF132D63D3BF890F028ECD SWAP1 PUSH1 0x0 SWAP1 LOG4 POP POP JUMP JUMPDEST PUSH1 0x1 PUSH1 0x0 DUP4 DUP2 MSTORE PUSH1 0x4 PUSH1 0x20 MSTORE PUSH1 0x40 SWAP1 KECCAK256 PUSH1 0x7 ADD SLOAD PUSH1 0xFF AND PUSH1 0x3 DUP2 GT ISZERO PUSH3 0x1BA8 JUMPI PUSH3 0x1BA8 PUSH3 0x270E JUMP JUMPDEST EQ PUSH3 0x1BC8 JUMPI PUSH1 0x40 MLOAD PUSH3 0x461BCD PUSH1 0xE5 SHL DUP2 MSTORE PUSH1 0x4 ADD PUSH3 0x489 SWAP1 PUSH3 0x2C61 JUMP JUMPDEST PUSH1 0x0 DUP3 DUP2 MSTORE PUSH1 0x4 PUSH1 0x20 MSTORE PUSH1 0x40 SWAP1 KECCAK256 PUSH1 0x1 ADD SLOAD PUSH1 0x1 PUSH1 0x1 PUSH1 0xA0 SHL SUB AND CALLER EQ PUSH3 0x1C04 JUMPI PUSH1 0x40 MLOAD PUSH3 0x461BCD PUSH1 0xE5 SHL DUP2 MSTORE PUSH1 0x4 ADD PUSH3 0x489 SWAP1 PUSH3 0x2CAE JUMP JUMPDEST PUSH1 0x0 DUP3 DUP2 MSTORE PUSH1 0x4 PUSH1 0x20 DUP2 SWAP1 MSTORE PUSH1 0x40 DUP3 KECCAK256 ADD DUP3 SWAP1 SSTORE PUSH1 0x2 DUP1 SLOAD DUP5 SWAP1 DUP2 LT PUSH3 0x1C2F JUMPI PUSH3 0x1C2F PUSH3 0x2ADB JUMP JUMPDEST SWAP1 PUSH1 0x0 MSTORE PUSH1 0x20 PUSH1 0x0 KECCAK256 SWAP1 PUSH1 0x8 MUL ADD SWAP1 POP DUP2 DUP2 PUSH1 0x4 ADD DUP2 SWAP1 SSTORE POP DUP3 CALLER PUSH1 0x1 PUSH1 0x1 PUSH1 0xA0 SHL SUB AND PUSH32 0xFD17840844998D983162F4C1FF366ABE0017376B765C544127260D81277D49E3 DUP5 PUSH1 0x40 MLOAD PUSH3 0x1C85 SWAP2 DUP2 MSTORE PUSH1 0x20 ADD SWAP1 JUMP JUMPDEST PUSH1 0x40 MLOAD DUP1 SWAP2 SUB SWAP1 LOG3 POP POP POP JUMP JUMPDEST PUSH1 0x60 PUSH1 0xA PUSH1 0x0 DUP4 DUP2 MSTORE PUSH1 0x20 ADD SWAP1 DUP2 MSTORE PUSH1 0x20 ADD PUSH1 0x0 KECCAK256 DUP1 SLOAD DUP1 PUSH1 0x20 MUL PUSH1 0x20 ADD PUSH1 0x40 MLOAD SWAP1 DUP2 ADD PUSH1 0x40 MSTORE DUP1 SWAP3 SWAP2 SWAP1 DUP2 DUP2 MSTORE PUSH1 0x20 ADD PUSH1 0x0 SWAP1 JUMPDEST DUP3 DUP3 LT ISZERO PUSH3 0x1D1E JUMPI PUSH1 0x0 DUP5 DUP2 MSTORE PUSH1 0x20 SWAP1 DUP2 SWAP1 KECCAK256 PUSH1 0x40 DUP1 MLOAD PUSH1 0x60 DUP2 ADD DUP3 MSTORE PUSH1 0x3 DUP7 MUL SWAP1 SWAP3 ADD DUP1 SLOAD PUSH1 0x1 PUSH1 0x1 PUSH1 0xA0 SHL SUB AND DUP4 MSTORE PUSH1 0x1 DUP1 DUP3 ADD SLOAD DUP5 DUP7 ADD MSTORE PUSH1 0x2 SWAP1 SWAP2 ADD SLOAD SWAP2 DUP4 ADD SWAP2 SWAP1 SWAP2 MSTORE SWAP1 DUP4 MSTORE SWAP1 SWAP3 ADD SWAP2 ADD PUSH3 0x1CC7 JUMP JUMPDEST POP POP POP POP SWAP1 POP SWAP2 SWAP1 POP JUMP JUMPDEST PUSH3 0x1D33 PUSH3 0x258F JUMP JUMPDEST PUSH1 0x3 DUP1 SLOAD DUP1 DUP4 MSTORE PUSH1 0x1 DUP1 DUP3 ADD SWAP1 SWAP3 SSTORE CALLER PUSH1 0x20 DUP1 DUP6 ADD SWAP2 DUP3 MSTORE PUSH1 0x40 DUP1 DUP7 ADD DUP12 DUP2 MSTORE PUSH1 0x60 DUP8 ADD DUP12 SWAP1 MSTORE PUSH1 0x80 DUP8 ADD DUP11 SWAP1 MSTORE PUSH1 0xA0 DUP8 ADD DUP10 SWAP1 MSTORE PUSH1 0xC0 DUP8 ADD DUP9 SWAP1 MSTORE PUSH1 0xE0 DUP8 ADD DUP7 SWAP1 MSTORE PUSH1 0x0 SWAP5 DUP6 MSTORE PUSH1 0x4 DUP4 MSTORE SWAP4 KECCAK256 DUP6 MLOAD DUP2 SSTORE SWAP2 MLOAD SWAP4 DUP3 ADD DUP1 SLOAD PUSH1 0x1 PUSH1 0x1 PUSH1 0xA0 SHL SUB NOT AND PUSH1 0x1 PUSH1 0x1 PUSH1 0xA0 SHL SUB SWAP1 SWAP6 AND SWAP5 SWAP1 SWAP5 OR SWAP1 SWAP4 SSTORE SWAP1 MLOAD DUP1 MLOAD DUP5 SWAP4 PUSH3 0x1DC1 SWAP3 PUSH1 0x2 DUP6 ADD SWAP3 SWAP2 ADD SWAP1 PUSH3 0x25F0 JUMP JUMPDEST POP PUSH1 0x60 DUP3 ADD MLOAD DUP1 MLOAD PUSH3 0x1DDF SWAP2 PUSH1 0x3 DUP5 ADD SWAP2 PUSH1 0x20 SWAP1 SWAP2 ADD SWAP1 PUSH3 0x25F0 JUMP JUMPDEST POP PUSH1 0x80 DUP3 ADD MLOAD PUSH1 0x4 DUP3 ADD SSTORE PUSH1 0xA0 DUP3 ADD MLOAD PUSH1 0x5 DUP3 ADD SSTORE PUSH1 0xC0 DUP3 ADD MLOAD PUSH1 0x6 DUP3 ADD SSTORE PUSH1 0xE0 DUP3 ADD MLOAD PUSH1 0x7 DUP3 ADD DUP1 SLOAD PUSH1 0xFF NOT AND PUSH1 0x1 DUP4 PUSH1 0x3 DUP2 GT ISZERO PUSH3 0x1E24 JUMPI PUSH3 0x1E24 PUSH3 0x270E JUMP JUMPDEST MUL OR SWAP1 SSTORE POP SWAP1 POP POP PUSH1 0x2 PUSH1 0x40 MLOAD DUP1 PUSH2 0x100 ADD PUSH1 0x40 MSTORE DUP1 DUP4 PUSH1 0x0 ADD MLOAD DUP2 MSTORE PUSH1 0x20 ADD DUP4 PUSH1 0x20 ADD MLOAD PUSH1 0x1 PUSH1 0x1 PUSH1 0xA0 SHL SUB AND DUP2 MSTORE PUSH1 0x20 ADD DUP4 PUSH1 0x40 ADD MLOAD DUP2 MSTORE PUSH1 0x20 ADD DUP4 PUSH1 0x60 ADD MLOAD DUP2 MSTORE PUSH1 0x20 ADD DUP4 PUSH1 0x80 ADD MLOAD DUP2 MSTORE PUSH1 0x20 ADD DUP4 PUSH1 0xA0 ADD MLOAD DUP2 MSTORE PUSH1 0x20 ADD DUP4 PUSH1 0xC0 ADD MLOAD DUP2 MSTORE PUSH1 0x20 ADD DUP4 PUSH1 0xE0 ADD MLOAD PUSH1 0x3 DUP2 GT ISZERO PUSH3 0x1EA2 JUMPI PUSH3 0x1EA2 PUSH3 0x270E JUMP JUMPDEST SWAP1 MSTORE DUP2 SLOAD PUSH1 0x1 DUP1 DUP3 ADD DUP5 SSTORE PUSH1 0x0 SWAP4 DUP5 MSTORE PUSH1 0x20 SWAP4 DUP5 SWAP1 KECCAK256 DUP4 MLOAD PUSH1 0x8 SWAP1 SWAP4 MUL ADD SWAP2 DUP3 SSTORE DUP3 DUP5 ADD MLOAD SWAP1 DUP3 ADD DUP1 SLOAD PUSH1 0x1 PUSH1 0x1 PUSH1 0xA0 SHL SUB NOT AND PUSH1 0x1 PUSH1 0x1 PUSH1 0xA0 SHL SUB SWAP1 SWAP3 AND SWAP2 SWAP1 SWAP2 OR SWAP1 SSTORE PUSH1 0x40 DUP3 ADD MLOAD DUP1 MLOAD SWAP3 SWAP4 SWAP2 SWAP3 PUSH3 0x1F04 SWAP3 PUSH1 0x2 DUP6 ADD SWAP3 ADD SWAP1 PUSH3 0x25F0 JUMP JUMPDEST POP PUSH1 0x60 DUP3 ADD MLOAD DUP1 MLOAD PUSH3 0x1F22 SWAP2 PUSH1 0x3 DUP5 ADD SWAP2 PUSH1 0x20 SWAP1 SWAP2 ADD SWAP1 PUSH3 0x25F0 JUMP JUMPDEST POP PUSH1 0x80 DUP3 ADD MLOAD PUSH1 0x4 DUP3 ADD SSTORE PUSH1 0xA0 DUP3 ADD MLOAD PUSH1 0x5 DUP3 ADD SSTORE PUSH1 0xC0 DUP3 ADD MLOAD PUSH1 0x6 DUP3 ADD SSTORE PUSH1 0xE0 DUP3 ADD MLOAD PUSH1 0x7 DUP3 ADD DUP1 SLOAD PUSH1 0xFF NOT AND PUSH1 0x1 DUP4 PUSH1 0x3 DUP2 GT ISZERO PUSH3 0x1F67 JUMPI PUSH3 0x1F67 PUSH3 0x270E JUMP JUMPDEST MUL OR SWAP1 SSTORE POP POP DUP2 MLOAD PUSH1 0x40 DUP1 DUP5 ADD MLOAD PUSH1 0x60 DUP6 ADD MLOAD PUSH1 0x80 DUP7 ADD MLOAD PUSH1 0xA0 DUP8 ADD MLOAD PUSH1 0xC0 DUP9 ADD MLOAD SWAP5 MLOAD CALLER SWAP8 POP PUSH32 0xA3620867456BD4CF6D4D4B5F9483D8058BB00A2314801172B3945D02AC2E7FDE SWAP6 PUSH3 0x1FBF SWAP6 SWAP5 SWAP4 SWAP3 SWAP2 PUSH3 0x2CF5 JUMP JUMPDEST PUSH1 0x40 MLOAD DUP1 SWAP2 SUB SWAP1 LOG3 POP POP POP POP POP POP JUMP JUMPDEST PUSH1 0x1 SLOAD PUSH1 0x1 PUSH1 0x1 PUSH1 0xA0 SHL SUB AND CALLER EQ PUSH3 0x1FFC JUMPI PUSH1 0x40 MLOAD PUSH3 0x461BCD PUSH1 0xE5 SHL DUP2 MSTORE PUSH1 0x4 ADD PUSH3 0x489 SWAP1 PUSH3 0x2A94 JUMP JUMPDEST PUSH1 0x1 PUSH1 0x0 DUP3 DUP2 MSTORE PUSH1 0x4 PUSH1 0x20 MSTORE PUSH1 0x40 SWAP1 KECCAK256 PUSH1 0x7 ADD SLOAD PUSH1 0xFF AND PUSH1 0x3 DUP2 GT ISZERO PUSH3 0x2027 JUMPI PUSH3 0x2027 PUSH3 0x270E JUMP JUMPDEST EQ PUSH3 0x206F JUMPI PUSH1 0x40 MLOAD PUSH3 0x461BCD PUSH1 0xE5 SHL DUP2 MSTORE PUSH1 0x20 PUSH1 0x4 DUP3 ADD MSTORE PUSH1 0x16 PUSH1 0x24 DUP3 ADD MSTORE PUSH22 0x50726F706572747920646F206E6F7420657869737421 PUSH1 0x50 SHL PUSH1 0x44 DUP3 ADD MSTORE PUSH1 0x64 ADD PUSH3 0x489 JUMP JUMPDEST PUSH1 0x0 DUP2 DUP2 MSTORE PUSH1 0x4 PUSH1 0x20 DUP2 SWAP1 MSTORE PUSH1 0x40 DUP1 DUP4 KECCAK256 SWAP2 DUP3 ADD SLOAD SWAP1 MLOAD PUSH1 0x2 DUP4 ADD SWAP3 PUSH1 0x3 ADD SWAP2 SWAP1 PUSH3 0x209B SWAP1 PUSH3 0x267F JUMP JUMPDEST PUSH3 0x20A9 SWAP4 SWAP3 SWAP2 SWAP1 PUSH3 0x2DE4 JUMP JUMPDEST PUSH1 0x40 MLOAD DUP1 SWAP2 SUB SWAP1 PUSH1 0x0 CREATE DUP1 ISZERO DUP1 ISZERO PUSH3 0x20C6 JUMPI RETURNDATASIZE PUSH1 0x0 DUP1 RETURNDATACOPY RETURNDATASIZE PUSH1 0x0 REVERT JUMPDEST POP PUSH1 0x0 DUP4 DUP2 MSTORE PUSH1 0x5 PUSH1 0x20 SWAP1 DUP2 MSTORE PUSH1 0x40 DUP1 DUP4 KECCAK256 DUP1 SLOAD PUSH1 0x1 PUSH1 0x1 PUSH1 0xA0 SHL SUB NOT AND PUSH1 0x1 PUSH1 0x1 PUSH1 0xA0 SHL SUB DUP7 AND SWAP1 DUP2 OR SWAP1 SWAP2 SSTORE PUSH1 0x4 SWAP3 DUP4 SWAP1 MSTORE SWAP3 DUP2 SWAP1 KECCAK256 DUP3 ADD SLOAD SWAP1 MLOAD PUSH4 0x95EA7B3 PUSH1 0xE0 SHL DUP2 MSTORE SWAP4 SWAP5 POP SWAP2 SWAP3 PUSH4 0x95EA7B3 SWAP3 PUSH3 0x2126 SWAP3 ADDRESS SWAP3 ADD PUSH3 0x2BE6 JUMP JUMPDEST PUSH1 0x20 PUSH1 0x40 MLOAD DUP1 DUP4 SUB DUP2 PUSH1 0x0 DUP8 GAS CALL ISZERO DUP1 ISZERO PUSH3 0x2146 JUMPI RETURNDATASIZE PUSH1 0x0 DUP1 RETURNDATACOPY RETURNDATASIZE PUSH1 0x0 REVERT JUMPDEST POP POP POP POP PUSH1 0x40 MLOAD RETURNDATASIZE PUSH1 0x1F NOT PUSH1 0x1F DUP3 ADD AND DUP3 ADD DUP1 PUSH1 0x40 MSTORE POP DUP2 ADD SWAP1 PUSH3 0x216C SWAP2 SWAP1 PUSH3 0x2BFF JUMP JUMPDEST POP PUSH1 0x0 DUP3 DUP2 MSTORE PUSH1 0x5 PUSH1 0x20 SWAP1 DUP2 MSTORE PUSH1 0x40 DUP1 DUP4 KECCAK256 SLOAD PUSH1 0x4 SWAP3 DUP4 SWAP1 MSTORE SWAP3 DUP2 SWAP1 KECCAK256 DUP3 ADD SLOAD SWAP1 MLOAD PUSH4 0xA9059CBB PUSH1 0xE0 SHL DUP2 MSTORE PUSH1 0x1 PUSH1 0x1 PUSH1 0xA0 SHL SUB SWAP1 SWAP4 AND SWAP3 PUSH4 0xA9059CBB SWAP3 PUSH3 0x21BA SWAP3 ADDRESS SWAP3 SWAP1 SWAP2 ADD PUSH3 0x2BE6 JUMP JUMPDEST PUSH1 0x20 PUSH1 0x40 MLOAD DUP1 DUP4 SUB DUP2 PUSH1 0x0 DUP8 GAS CALL ISZERO DUP1 ISZERO PUSH3 0x21DA JUMPI RETURNDATASIZE PUSH1 0x0 DUP1 RETURNDATACOPY RETURNDATASIZE PUSH1 0x0 REVERT JUMPDEST POP POP POP POP PUSH1 0x40 MLOAD RETURNDATASIZE PUSH1 0x1F NOT PUSH1 0x1F DUP3 ADD AND DUP3 ADD DUP1 PUSH1 0x40 MSTORE POP DUP2 ADD SWAP1 PUSH3 0x2200 SWAP2 SWAP1 PUSH3 0x2BFF JUMP JUMPDEST POP PUSH1 0x0 DUP3 DUP2 MSTORE PUSH1 0x4 PUSH1 0x20 DUP2 DUP2 MSTORE PUSH1 0x40 DUP1 DUP5 KECCAK256 SWAP1 SWAP3 ADD SLOAD PUSH1 0x6 SWAP1 SWAP2 MSTORE SWAP1 DUP3 KECCAK256 DUP1 SLOAD SWAP2 SWAP3 SWAP1 SWAP2 PUSH3 0x2231 SWAP1 DUP5 SWAP1 PUSH3 0x2BA9 JUMP JUMPDEST SWAP1 SWAP2 SSTORE POP POP PUSH1 0x0 DUP3 DUP2 MSTORE PUSH1 0x4 PUSH1 0x20 MSTORE PUSH1 0x40 DUP2 KECCAK256 PUSH1 0x7 ADD DUP1 SLOAD PUSH1 0xFF NOT AND PUSH1 0x2 SWAP1 DUP2 OR SWAP1 SWAP2 SSTORE DUP1 SLOAD DUP5 SWAP1 DUP2 LT PUSH3 0x226A JUMPI PUSH3 0x226A PUSH3 0x2ADB JUMP JUMPDEST PUSH1 0x0 SWAP2 DUP3 MSTORE PUSH1 0x20 DUP1 DUP4 KECCAK256 PUSH1 0x7 PUSH1 0x8 SWAP1 SWAP4 MUL ADD DUP3 DUP2 ADD DUP1 SLOAD PUSH1 0xFF NOT AND PUSH1 0x2 SWAP1 DUP2 OR SWAP1 SWAP2 SSTORE DUP8 DUP6 MSTORE PUSH1 0x5 DUP4 MSTORE PUSH1 0x40 DUP1 DUP7 KECCAK256 SLOAD PUSH1 0x4 SWAP5 DUP6 SWAP1 MSTORE SWAP6 DUP2 SWAP1 KECCAK256 PUSH1 0x1 DUP2 ADD SLOAD SWAP5 DUP2 ADD SLOAD SWAP6 DUP2 ADD SLOAD SWAP2 MLOAD SWAP4 SWAP8 POP PUSH1 0x1 PUSH1 0x1 PUSH1 0xA0 SHL SUB SWAP7 DUP8 AND SWAP7 SWAP1 SWAP5 AND SWAP5 DUP10 SWAP5 PUSH32 0xC79A6979EF016AC585E84C1542046677BD781E6C2E9012A61C605FD9104425FF SWAP5 PUSH3 0x2305 SWAP5 DUP3 ADD SWAP4 PUSH1 0x3 SWAP1 SWAP3 ADD SWAP3 SWAP2 PUSH1 0xFF AND SWAP1 DUP3 SWAP1 PUSH3 0x2E1E JUMP JUMPDEST PUSH1 0x40 MLOAD DUP1 SWAP2 SUB SWAP1 LOG4 POP POP POP JUMP JUMPDEST PUSH1 0xA PUSH1 0x20 MSTORE DUP2 PUSH1 0x0 MSTORE PUSH1 0x40 PUSH1 0x0 KECCAK256 DUP2 DUP2 SLOAD DUP2 LT PUSH3 0x232F JUMPI PUSH1 0x0 DUP1 REVERT JUMPDEST PUSH1 0x0 SWAP2 DUP3 MSTORE PUSH1 0x20 SWAP1 SWAP2 KECCAK256 PUSH1 0x3 SWAP1 SWAP2 MUL ADD DUP1 SLOAD PUSH1 0x1 DUP3 ADD SLOAD PUSH1 0x2 SWAP1 SWAP3 ADD SLOAD PUSH1 0x1 PUSH1 0x1 PUSH1 0xA0 SHL SUB SWAP1 SWAP2 AND SWAP4 POP SWAP1 SWAP2 POP DUP4 JUMP JUMPDEST PUSH1 0x60 PUSH1 0x2 DUP1 SLOAD DUP1 PUSH1 0x20 MUL PUSH1 0x20 ADD PUSH1 0x40 MLOAD SWAP1 DUP2 ADD PUSH1 0x40 MSTORE DUP1 SWAP3 SWAP2 SWAP1 DUP2 DUP2 MSTORE PUSH1 0x20 ADD PUSH1 0x0 SWAP1 JUMPDEST DUP3 DUP3 LT ISZERO PUSH3 0x2563 JUMPI PUSH1 0x0 DUP5 DUP2 MSTORE PUSH1 0x20 SWAP1 DUP2 SWAP1 KECCAK256 PUSH1 0x40 DUP1 MLOAD PUSH2 0x100 DUP2 ADD DUP3 MSTORE PUSH1 0x8 DUP7 MUL SWAP1 SWAP3 ADD DUP1 SLOAD DUP4 MSTORE PUSH1 0x1 DUP2 ADD SLOAD PUSH1 0x1 PUSH1 0x1 PUSH1 0xA0 SHL SUB AND SWAP4 DUP4 ADD SWAP4 SWAP1 SWAP4 MSTORE PUSH1 0x2 DUP4 ADD DUP1 SLOAD SWAP3 SWAP4 SWAP3 SWAP2 DUP5 ADD SWAP2 PUSH3 0x23DA SWAP1 PUSH3 0x2AF1 JUMP JUMPDEST DUP1 PUSH1 0x1F ADD PUSH1 0x20 DUP1 SWAP2 DIV MUL PUSH1 0x20 ADD PUSH1 0x40 MLOAD SWAP1 DUP2 ADD PUSH1 0x40 MSTORE DUP1 SWAP3 SWAP2 SWAP1 DUP2 DUP2 MSTORE PUSH1 0x20 ADD DUP3 DUP1 SLOAD PUSH3 0x2408 SWAP1 PUSH3 0x2AF1 JUMP JUMPDEST DUP1 ISZERO PUSH3 0x2459 JUMPI DUP1 PUSH1 0x1F LT PUSH3 0x242D JUMPI PUSH2 0x100 DUP1 DUP4 SLOAD DIV MUL DUP4 MSTORE SWAP2 PUSH1 0x20 ADD SWAP2 PUSH3 0x2459 JUMP JUMPDEST DUP3 ADD SWAP2 SWAP1 PUSH1 0x0 MSTORE PUSH1 0x20 PUSH1 0x0 KECCAK256 SWAP1 JUMPDEST DUP2 SLOAD DUP2 MSTORE SWAP1 PUSH1 0x1 ADD SWAP1 PUSH1 0x20 ADD DUP1 DUP4 GT PUSH3 0x243B JUMPI DUP3 SWAP1 SUB PUSH1 0x1F AND DUP3 ADD SWAP2 JUMPDEST POP POP POP POP POP DUP2 MSTORE PUSH1 0x20 ADD PUSH1 0x3 DUP3 ADD DUP1 SLOAD PUSH3 0x2474 SWAP1 PUSH3 0x2AF1 JUMP JUMPDEST DUP1 PUSH1 0x1F ADD PUSH1 0x20 DUP1 SWAP2 DIV MUL PUSH1 0x20 ADD PUSH1 0x40 MLOAD SWAP1 DUP2 ADD PUSH1 0x40 MSTORE DUP1 SWAP3 SWAP2 SWAP1 DUP2 DUP2 MSTORE PUSH1 0x20 ADD DUP3 DUP1 SLOAD PUSH3 0x24A2 SWAP1 PUSH3 0x2AF1 JUMP JUMPDEST DUP1 ISZERO PUSH3 0x24F3 JUMPI DUP1 PUSH1 0x1F LT PUSH3 0x24C7 JUMPI PUSH2 0x100 DUP1 DUP4 SLOAD DIV MUL DUP4 MSTORE SWAP2 PUSH1 0x20 ADD SWAP2 PUSH3 0x24F3 JUMP JUMPDEST DUP3 ADD SWAP2 SWAP1 PUSH1 0x0 MSTORE PUSH1 0x20 PUSH1 0x0 KECCAK256 SWAP1 JUMPDEST DUP2 SLOAD DUP2 MSTORE SWAP1 PUSH1 0x1 ADD SWAP1 PUSH1 0x20 ADD DUP1 DUP4 GT PUSH3 0x24D5 JUMPI DUP3 SWAP1 SUB PUSH1 0x1F AND DUP3 ADD SWAP2 JUMPDEST POP POP POP SWAP2 DUP4 MSTORE POP POP PUSH1 0x4 DUP3 ADD SLOAD PUSH1 0x20 DUP3 ADD MSTORE PUSH1 0x5 DUP3 ADD SLOAD PUSH1 0x40 DUP3 ADD MSTORE PUSH1 0x6 DUP3 ADD SLOAD PUSH1 0x60 DUP3 ADD MSTORE PUSH1 0x7 DUP3 ADD SLOAD PUSH1 0x80 SWAP1 SWAP2 ADD SWAP1 PUSH1 0xFF AND PUSH1 0x3 DUP2 GT ISZERO PUSH3 0x253B JUMPI PUSH3 0x253B PUSH3 0x270E JUMP JUMPDEST PUSH1 0x3 DUP2 GT ISZERO PUSH3 0x254F JUMPI PUSH3 0x254F PUSH3 0x270E JUMP JUMPDEST DUP2 MSTORE POP POP DUP2 MSTORE PUSH1 0x20 ADD SWAP1 PUSH1 0x1 ADD SWAP1 PUSH3 0x2383 JUMP JUMPDEST POP POP POP POP SWAP1 POP SWAP1 JUMP JUMPDEST PUSH1 0x0 PUSH3 0x257A DUP3 DUP5 PUSH3 0x2BA9 JUMP JUMPDEST SWAP4 SWAP3 POP POP POP JUMP JUMPDEST PUSH1 0x0 PUSH3 0x257A DUP3 DUP5 PUSH3 0x2E6F JUMP JUMPDEST PUSH1 0x40 MLOAD DUP1 PUSH2 0x100 ADD PUSH1 0x40 MSTORE DUP1 PUSH1 0x0 DUP2 MSTORE PUSH1 0x20 ADD PUSH1 0x0 PUSH1 0x1 PUSH1 0x1 PUSH1 0xA0 SHL SUB AND DUP2 MSTORE PUSH1 0x20 ADD PUSH1 0x60 DUP2 MSTORE PUSH1 0x20 ADD PUSH1 0x60 DUP2 MSTORE PUSH1 0x20 ADD PUSH1 0x0 DUP2 MSTORE PUSH1 0x20 ADD PUSH1 0x0 DUP2 MSTORE PUSH1 0x20 ADD PUSH1 0x0 DUP2 MSTORE PUSH1 0x20 ADD PUSH1 0x0 PUSH1 0x3 DUP2 GT ISZERO PUSH3 0x25EB JUMPI PUSH3 0x25EB PUSH3 0x270E JUMP JUMPDEST SWAP1 MSTORE SWAP1 JUMP JUMPDEST DUP3 DUP1 SLOAD PUSH3 0x25FE SWAP1 PUSH3 0x2AF1 JUMP JUMPDEST SWAP1 PUSH1 0x0 MSTORE PUSH1 0x20 PUSH1 0x0 KECCAK256 SWAP1 PUSH1 0x1F ADD PUSH1 0x20 SWAP1 DIV DUP2 ADD SWAP3 DUP3 PUSH3 0x2622 JUMPI PUSH1 0x0 DUP6 SSTORE PUSH3 0x266D JUMP JUMPDEST DUP3 PUSH1 0x1F LT PUSH3 0x263D JUMPI DUP1 MLOAD PUSH1 0xFF NOT AND DUP4 DUP1 ADD OR DUP6 SSTORE PUSH3 0x266D JUMP JUMPDEST DUP3 DUP1 ADD PUSH1 0x1 ADD DUP6 SSTORE DUP3 ISZERO PUSH3 0x266D JUMPI SWAP2 DUP3 ADD JUMPDEST DUP3 DUP2 GT ISZERO PUSH3 0x266D JUMPI DUP3 MLOAD DUP3 SSTORE SWAP2 PUSH1 0x20 ADD SWAP2 SWAP1 PUSH1 0x1 ADD SWAP1 PUSH3 0x2650 JUMP JUMPDEST POP PUSH3 0x267B SWAP3 SWAP2 POP PUSH3 0x268D JUMP JUMPDEST POP SWAP1 JUMP JUMPDEST PUSH2 0xD45 DUP1 PUSH3 0x2E93 DUP4 CODECOPY ADD SWAP1 JUMP JUMPDEST JUMPDEST DUP1 DUP3 GT ISZERO PUSH3 0x267B JUMPI PUSH1 0x0 DUP2 SSTORE PUSH1 0x1 ADD PUSH3 0x268E JUMP JUMPDEST PUSH1 0x0 PUSH1 0x20 DUP3 DUP5 SUB SLT ISZERO PUSH3 0x26B7 JUMPI PUSH1 0x0 DUP1 REVERT JUMPDEST POP CALLDATALOAD SWAP2 SWAP1 POP JUMP JUMPDEST PUSH1 0x0 DUP2 MLOAD DUP1 DUP5 MSTORE PUSH1 0x0 JUMPDEST DUP2 DUP2 LT ISZERO PUSH3 0x26E6 JUMPI PUSH1 0x20 DUP2 DUP6 ADD DUP2 ADD MLOAD DUP7 DUP4 ADD DUP3 ADD MSTORE ADD PUSH3 0x26C8 JUMP JUMPDEST DUP2 DUP2 GT ISZERO PUSH3 0x26F9 JUMPI PUSH1 0x0 PUSH1 0x20 DUP4 DUP8 ADD ADD MSTORE JUMPDEST POP PUSH1 0x1F ADD PUSH1 0x1F NOT AND SWAP3 SWAP1 SWAP3 ADD PUSH1 0x20 ADD SWAP3 SWAP2 POP POP JUMP JUMPDEST PUSH4 0x4E487B71 PUSH1 0xE0 SHL PUSH1 0x0 MSTORE PUSH1 0x21 PUSH1 0x4 MSTORE PUSH1 0x24 PUSH1 0x0 REVERT JUMPDEST PUSH1 0x4 DUP2 LT PUSH3 0x2743 JUMPI PUSH4 0x4E487B71 PUSH1 0xE0 SHL PUSH1 0x0 MSTORE PUSH1 0x21 PUSH1 0x4 MSTORE PUSH1 0x24 PUSH1 0x0 REVERT JUMPDEST SWAP1 MSTORE JUMP JUMPDEST DUP9 DUP2 MSTORE PUSH1 0x1 PUSH1 0x1 PUSH1 0xA0 SHL SUB DUP9 AND PUSH1 0x20 DUP3 ADD MSTORE PUSH2 0x100 PUSH1 0x40 DUP3 ADD DUP2 SWAP1 MSTORE PUSH1 0x0 SWAP1 PUSH3 0x2774 DUP4 DUP3 ADD DUP11 PUSH3 0x26BE JUMP JUMPDEST SWAP1 POP DUP3 DUP2 SUB PUSH1 0x60 DUP5 ADD MSTORE PUSH3 0x278A DUP2 DUP10 PUSH3 0x26BE JUMP JUMPDEST SWAP2 POP POP DUP6 PUSH1 0x80 DUP4 ADD MSTORE DUP5 PUSH1 0xA0 DUP4 ADD MSTORE DUP4 PUSH1 0xC0 DUP4 ADD MSTORE PUSH3 0x27AE PUSH1 0xE0 DUP4 ADD DUP5 PUSH3 0x2724 JUMP JUMPDEST SWAP10 SWAP9 POP POP POP POP POP POP POP POP POP JUMP JUMPDEST PUSH1 0x0 PUSH1 0x20 DUP1 DUP4 ADD DUP2 DUP5 MSTORE DUP1 DUP6 MLOAD DUP1 DUP4 MSTORE PUSH1 0x40 SWAP3 POP DUP3 DUP7 ADD SWAP2 POP DUP3 DUP2 PUSH1 0x5 SHL DUP8 ADD ADD DUP5 DUP9 ADD PUSH1 0x0 JUMPDEST DUP4 DUP2 LT ISZERO PUSH3 0x2892 JUMPI DUP9 DUP4 SUB PUSH1 0x3F NOT ADD DUP6 MSTORE DUP2 MLOAD DUP1 MLOAD DUP5 MSTORE DUP8 DUP2 ADD MLOAD PUSH1 0x1 PUSH1 0x1 PUSH1 0xA0 SHL SUB AND DUP9 DUP6 ADD MSTORE DUP7 DUP2 ADD MLOAD PUSH2 0x100 DUP9 DUP7 ADD DUP2 SWAP1 MSTORE SWAP1 PUSH3 0x2827 DUP3 DUP8 ADD DUP3 PUSH3 0x26BE JUMP JUMPDEST SWAP2 POP POP PUSH1 0x60 DUP1 DUP4 ADD MLOAD DUP7 DUP4 SUB DUP3 DUP9 ADD MSTORE PUSH3 0x2843 DUP4 DUP3 PUSH3 0x26BE JUMP JUMPDEST PUSH1 0x80 DUP6 DUP2 ADD MLOAD SWAP1 DUP10 ADD MSTORE PUSH1 0xA0 DUP1 DUP7 ADD MLOAD SWAP1 DUP10 ADD MSTORE PUSH1 0xC0 DUP1 DUP7 ADD MLOAD SWAP1 DUP10 ADD MSTORE PUSH1 0xE0 SWAP5 DUP6 ADD MLOAD SWAP5 SWAP1 SWAP4 POP SWAP2 POP PUSH3 0x287D SWAP1 POP DUP2 DUP8 ADD DUP5 PUSH3 0x2724 JUMP JUMPDEST POP SWAP6 DUP9 ADD SWAP6 SWAP4 POP POP SWAP1 DUP7 ADD SWAP1 PUSH1 0x1 ADD PUSH3 0x27E2 JUMP JUMPDEST POP SWAP1 SWAP9 SWAP8 POP POP POP POP POP POP POP POP JUMP JUMPDEST PUSH1 0x0 DUP1 PUSH1 0x40 DUP4 DUP6 SUB SLT ISZERO PUSH3 0x28B4 JUMPI PUSH1 0x0 DUP1 REVERT JUMPDEST DUP3 CALLDATALOAD SWAP2 POP PUSH1 0x20 DUP4 ADD CALLDATALOAD PUSH1 0x1 PUSH1 0x1 PUSH1 0xA0 SHL SUB DUP2 AND DUP2 EQ PUSH3 0x28D3 JUMPI PUSH1 0x0 DUP1 REVERT JUMPDEST DUP1 SWAP2 POP POP SWAP3 POP SWAP3 SWAP1 POP JUMP JUMPDEST PUSH1 0x0 DUP1 PUSH1 0x40 DUP4 DUP6 SUB SLT ISZERO PUSH3 0x28F2 JUMPI PUSH1 0x0 DUP1 REVERT JUMPDEST POP POP DUP1 CALLDATALOAD SWAP3 PUSH1 0x20 SWAP1 SWAP2 ADD CALLDATALOAD SWAP2 POP JUMP JUMPDEST PUSH1 0x20 DUP1 DUP3 MSTORE DUP3 MLOAD DUP3 DUP3 ADD DUP2 SWAP1 MSTORE PUSH1 0x0 SWAP2 SWAP1 PUSH1 0x40 SWAP1 DUP2 DUP6 ADD SWAP1 DUP7 DUP5 ADD DUP6 JUMPDEST DUP3 DUP2 LT ISZERO PUSH3 0x2958 JUMPI DUP2 MLOAD DUP1 MLOAD PUSH1 0x1 PUSH1 0x1 PUSH1 0xA0 SHL SUB AND DUP6 MSTORE DUP7 DUP2 ADD MLOAD DUP8 DUP7 ADD MSTORE DUP6 ADD MLOAD DUP6 DUP6 ADD MSTORE PUSH1 0x60 SWAP1 SWAP4 ADD SWAP3 SWAP1 DUP6 ADD SWAP1 PUSH1 0x1 ADD PUSH3 0x291E JUMP JUMPDEST POP SWAP2 SWAP8 SWAP7 POP POP POP POP POP POP POP JUMP JUMPDEST PUSH4 0x4E487B71 PUSH1 0xE0 SHL PUSH1 0x0 MSTORE PUSH1 0x41 PUSH1 0x4 MSTORE PUSH1 0x24 PUSH1 0x0 REVERT JUMPDEST PUSH1 0x0 DUP3 PUSH1 0x1F DUP4 ADD SLT PUSH3 0x298D JUMPI PUSH1 0x0 DUP1 REVERT JUMPDEST DUP2 CALLDATALOAD PUSH1 0x1 PUSH1 0x1 PUSH1 0x40 SHL SUB DUP1 DUP3 GT ISZERO PUSH3 0x29AA JUMPI PUSH3 0x29AA PUSH3 0x2965 JUMP JUMPDEST PUSH1 0x40 MLOAD PUSH1 0x1F DUP4 ADD PUSH1 0x1F NOT SWAP1 DUP2 AND PUSH1 0x3F ADD AND DUP2 ADD SWAP1 DUP3 DUP3 GT DUP2 DUP4 LT OR ISZERO PUSH3 0x29D5 JUMPI PUSH3 0x29D5 PUSH3 0x2965 JUMP JUMPDEST DUP2 PUSH1 0x40 MSTORE DUP4 DUP2 MSTORE DUP7 PUSH1 0x20 DUP6 DUP9 ADD ADD GT ISZERO PUSH3 0x29EF JUMPI PUSH1 0x0 DUP1 REVERT JUMPDEST DUP4 PUSH1 0x20 DUP8 ADD PUSH1 0x20 DUP4 ADD CALLDATACOPY PUSH1 0x0 PUSH1 0x20 DUP6 DUP4 ADD ADD MSTORE DUP1 SWAP5 POP POP POP POP POP SWAP3 SWAP2 POP POP JUMP JUMPDEST PUSH1 0x0 DUP1 PUSH1 0x0 DUP1 PUSH1 0x0 PUSH1 0xA0 DUP7 DUP9 SUB SLT ISZERO PUSH3 0x2A28 JUMPI PUSH1 0x0 DUP1 REVERT JUMPDEST DUP6 CALLDATALOAD PUSH1 0x1 PUSH1 0x1 PUSH1 0x40 SHL SUB DUP1 DUP3 GT ISZERO PUSH3 0x2A40 JUMPI PUSH1 0x0 DUP1 REVERT JUMPDEST PUSH3 0x2A4E DUP10 DUP4 DUP11 ADD PUSH3 0x297B JUMP JUMPDEST SWAP7 POP PUSH1 0x20 DUP9 ADD CALLDATALOAD SWAP2 POP DUP1 DUP3 GT ISZERO PUSH3 0x2A65 JUMPI PUSH1 0x0 DUP1 REVERT JUMPDEST POP PUSH3 0x2A74 DUP9 DUP3 DUP10 ADD PUSH3 0x297B JUMP JUMPDEST SWAP6 SWAP9 SWAP6 SWAP8 POP POP POP POP PUSH1 0x40 DUP5 ADD CALLDATALOAD SWAP4 PUSH1 0x60 DUP2 ADD CALLDATALOAD SWAP4 PUSH1 0x80 SWAP1 SWAP2 ADD CALLDATALOAD SWAP3 POP SWAP1 POP JUMP JUMPDEST PUSH1 0x20 DUP1 DUP3 MSTORE PUSH1 0x27 SWAP1 DUP3 ADD MSTORE PUSH32 0x43616C6C6572206973206E6F7420746865206F776E6572206F66207468652070 PUSH1 0x40 DUP3 ADD MSTORE PUSH7 0x6C6174666F726D PUSH1 0xC8 SHL PUSH1 0x60 DUP3 ADD MSTORE PUSH1 0x80 ADD SWAP1 JUMP JUMPDEST PUSH4 0x4E487B71 PUSH1 0xE0 SHL PUSH1 0x0 MSTORE PUSH1 0x32 PUSH1 0x4 MSTORE PUSH1 0x24 PUSH1 0x0 REVERT JUMPDEST PUSH1 0x1 DUP2 DUP2 SHR SWAP1 DUP3 AND DUP1 PUSH3 0x2B06 JUMPI PUSH1 0x7F DUP3 AND SWAP2 POP JUMPDEST PUSH1 0x20 DUP3 LT DUP2 EQ ISZERO PUSH3 0x2B28 JUMPI PUSH4 0x4E487B71 PUSH1 0xE0 SHL PUSH1 0x0 MSTORE PUSH1 0x22 PUSH1 0x4 MSTORE PUSH1 0x24 PUSH1 0x0 REVERT JUMPDEST POP SWAP2 SWAP1 POP JUMP JUMPDEST PUSH4 0x4E487B71 PUSH1 0xE0 SHL PUSH1 0x0 MSTORE PUSH1 0x11 PUSH1 0x4 MSTORE PUSH1 0x24 PUSH1 0x0 REVERT JUMPDEST PUSH1 0x0 PUSH1 0x0 NOT DUP3 EQ ISZERO PUSH3 0x2B5B JUMPI PUSH3 0x2B5B PUSH3 0x2B2E JUMP JUMPDEST POP PUSH1 0x1 ADD SWAP1 JUMP JUMPDEST PUSH1 0x20 DUP1 DUP3 MSTORE PUSH1 0x27 SWAP1 DUP3 ADD MSTORE PUSH32 0x596F7520617265206E6F7420746865206F776E6572206F662074686973207072 PUSH1 0x40 DUP3 ADD MSTORE PUSH7 0x6F706572747921 PUSH1 0xC8 SHL PUSH1 0x60 DUP3 ADD MSTORE PUSH1 0x80 ADD SWAP1 JUMP JUMPDEST PUSH1 0x0 DUP3 NOT DUP3 GT ISZERO PUSH3 0x2BBF JUMPI PUSH3 0x2BBF PUSH3 0x2B2E JUMP JUMPDEST POP ADD SWAP1 JUMP JUMPDEST PUSH1 0x0 DUP2 PUSH1 0x0 NOT DIV DUP4 GT DUP3 ISZERO ISZERO AND ISZERO PUSH3 0x2BE1 JUMPI PUSH3 0x2BE1 PUSH3 0x2B2E JUMP JUMPDEST POP MUL SWAP1 JUMP JUMPDEST PUSH1 0x1 PUSH1 0x1 PUSH1 0xA0 SHL SUB SWAP3 SWAP1 SWAP3 AND DUP3 MSTORE PUSH1 0x20 DUP3 ADD MSTORE PUSH1 0x40 ADD SWAP1 JUMP JUMPDEST PUSH1 0x0 PUSH1 0x20 DUP3 DUP5 SUB SLT ISZERO PUSH3 0x2C12 JUMPI PUSH1 0x0 DUP1 REVERT JUMPDEST DUP2 MLOAD DUP1 ISZERO ISZERO DUP2 EQ PUSH3 0x257A JUMPI PUSH1 0x0 DUP1 REVERT JUMPDEST PUSH1 0x1 PUSH1 0x1 PUSH1 0xA0 SHL SUB SWAP4 DUP5 AND DUP2 MSTORE SWAP2 SWAP1 SWAP3 AND PUSH1 0x20 DUP3 ADD MSTORE PUSH1 0x40 DUP2 ADD SWAP2 SWAP1 SWAP2 MSTORE PUSH1 0x60 ADD SWAP1 JUMP JUMPDEST PUSH1 0x0 DUP3 DUP3 LT ISZERO PUSH3 0x2C5C JUMPI PUSH3 0x2C5C PUSH3 0x2B2E JUMP JUMPDEST POP SUB SWAP1 JUMP JUMPDEST PUSH1 0x20 DUP1 DUP3 MSTORE PUSH1 0x2D SWAP1 DUP3 ADD MSTORE PUSH32 0x50726F70657274792068617320616C7265616479206265656E20415050524F56 PUSH1 0x40 DUP3 ADD MSTORE PUSH13 0x4544206F722042414E4E454421 PUSH1 0x98 SHL PUSH1 0x60 DUP3 ADD MSTORE PUSH1 0x80 ADD SWAP1 JUMP JUMPDEST PUSH1 0x20 DUP1 DUP3 MSTORE PUSH1 0x27 SWAP1 DUP3 ADD MSTORE PUSH32 0x596F7520617265206E6F7420746865206F776E6572206F662074686973205072 PUSH1 0x40 DUP3 ADD MSTORE PUSH7 0x6F706572747921 PUSH1 0xC8 SHL PUSH1 0x60 DUP3 ADD MSTORE PUSH1 0x80 ADD SWAP1 JUMP JUMPDEST PUSH1 0xA0 DUP2 MSTORE PUSH1 0x0 PUSH3 0x2D0A PUSH1 0xA0 DUP4 ADD DUP9 PUSH3 0x26BE JUMP JUMPDEST DUP3 DUP2 SUB PUSH1 0x20 DUP5 ADD MSTORE PUSH3 0x2D1E DUP2 DUP9 PUSH3 0x26BE JUMP JUMPDEST PUSH1 0x40 DUP5 ADD SWAP7 SWAP1 SWAP7 MSTORE POP POP PUSH1 0x60 DUP2 ADD SWAP3 SWAP1 SWAP3 MSTORE PUSH1 0x80 SWAP1 SWAP2 ADD MSTORE SWAP3 SWAP2 POP POP JUMP JUMPDEST DUP1 SLOAD PUSH1 0x0 SWAP1 PUSH1 0x1 DUP2 DUP2 SHR SWAP1 DUP1 DUP4 AND DUP1 PUSH3 0x2D57 JUMPI PUSH1 0x7F DUP4 AND SWAP3 POP JUMPDEST PUSH1 0x20 DUP1 DUP5 LT DUP3 EQ ISZERO PUSH3 0x2D7A JUMPI PUSH4 0x4E487B71 PUSH1 0xE0 SHL PUSH1 0x0 MSTORE PUSH1 0x22 PUSH1 0x4 MSTORE PUSH1 0x24 PUSH1 0x0 REVERT JUMPDEST DUP4 DUP9 MSTORE PUSH1 0x20 DUP9 ADD DUP3 DUP1 ISZERO PUSH3 0x2D98 JUMPI PUSH1 0x1 DUP2 EQ PUSH3 0x2DAA JUMPI PUSH3 0x2DD7 JUMP JUMPDEST PUSH1 0xFF NOT DUP8 AND DUP3 MSTORE DUP3 DUP3 ADD SWAP8 POP PUSH3 0x2DD7 JUMP JUMPDEST PUSH1 0x0 DUP10 DUP2 MSTORE PUSH1 0x20 SWAP1 KECCAK256 PUSH1 0x0 JUMPDEST DUP8 DUP2 LT ISZERO PUSH3 0x2DD1 JUMPI DUP2 SLOAD DUP5 DUP3 ADD MSTORE SWAP1 DUP7 ADD SWAP1 DUP5 ADD PUSH3 0x2DB6 JUMP JUMPDEST DUP4 ADD SWAP9 POP POP JUMPDEST POP POP POP POP POP POP POP SWAP3 SWAP2 POP POP JUMP JUMPDEST PUSH1 0x60 DUP2 MSTORE PUSH1 0x0 PUSH3 0x2DF9 PUSH1 0x60 DUP4 ADD DUP7 PUSH3 0x2D3C JUMP JUMPDEST DUP3 DUP2 SUB PUSH1 0x20 DUP5 ADD MSTORE PUSH3 0x2E0D DUP2 DUP7 PUSH3 0x2D3C JUMP JUMPDEST SWAP2 POP POP DUP3 PUSH1 0x40 DUP4 ADD MSTORE SWAP5 SWAP4 POP POP POP POP JUMP JUMPDEST PUSH1 0xA0 DUP2 MSTORE PUSH1 0x0 PUSH3 0x2E33 PUSH1 0xA0 DUP4 ADD DUP9 PUSH3 0x2D3C JUMP JUMPDEST DUP3 DUP2 SUB PUSH1 0x20 DUP5 ADD MSTORE PUSH3 0x2E47 DUP2 DUP9 PUSH3 0x2D3C JUMP JUMPDEST SWAP2 POP POP DUP5 PUSH1 0x40 DUP4 ADD MSTORE PUSH3 0x2E5F PUSH1 0x60 DUP4 ADD DUP6 PUSH3 0x2724 JUMP JUMPDEST DUP3 PUSH1 0x80 DUP4 ADD MSTORE SWAP7 SWAP6 POP POP POP POP POP POP JUMP JUMPDEST PUSH1 0x0 DUP3 PUSH3 0x2E8D JUMPI PUSH4 0x4E487B71 PUSH1 0xE0 SHL PUSH1 0x0 MSTORE PUSH1 0x12 PUSH1 0x4 MSTORE PUSH1 0x24 PUSH1 0x0 REVERT JUMPDEST POP DIV SWAP1 JUMP INVALID PUSH1 0x80 PUSH1 0x40 MSTORE CALLVALUE DUP1 ISZERO PUSH3 0x11 JUMPI PUSH1 0x0 DUP1 REVERT JUMPDEST POP PUSH1 0x40 MLOAD PUSH3 0xD45 CODESIZE SUB DUP1 PUSH3 0xD45 DUP4 CODECOPY DUP2 ADD PUSH1 0x40 DUP2 SWAP1 MSTORE PUSH3 0x34 SWAP2 PUSH3 0x2D1 JUMP JUMPDEST DUP3 MLOAD DUP4 SWAP1 DUP4 SWAP1 PUSH3 0x4D SWAP1 PUSH1 0x3 SWAP1 PUSH1 0x20 DUP6 ADD SWAP1 PUSH3 0x15E JUMP JUMPDEST POP DUP1 MLOAD PUSH3 0x63 SWAP1 PUSH1 0x4 SWAP1 PUSH1 0x20 DUP5 ADD SWAP1 PUSH3 0x15E JUMP JUMPDEST POP PUSH1 0x12 SWAP2 POP PUSH3 0x8E SWAP1 POP CALLER PUSH3 0x7C DUP4 PUSH1 0xA PUSH3 0x459 JUMP JUMPDEST PUSH3 0x88 SWAP1 DUP6 PUSH3 0x46E JUMP JUMPDEST PUSH3 0x98 JUMP JUMPDEST POP POP POP POP PUSH3 0x4E8 JUMP JUMPDEST PUSH1 0x1 PUSH1 0x1 PUSH1 0xA0 SHL SUB DUP3 AND PUSH3 0xF3 JUMPI PUSH1 0x40 MLOAD PUSH3 0x461BCD PUSH1 0xE5 SHL DUP2 MSTORE PUSH1 0x20 PUSH1 0x4 DUP3 ADD MSTORE PUSH1 0x1F PUSH1 0x24 DUP3 ADD MSTORE PUSH32 0x45524332303A206D696E7420746F20746865207A65726F206164647265737300 PUSH1 0x44 DUP3 ADD MSTORE PUSH1 0x64 ADD PUSH1 0x40 MLOAD DUP1 SWAP2 SUB SWAP1 REVERT JUMPDEST DUP1 PUSH1 0x2 PUSH1 0x0 DUP3 DUP3 SLOAD PUSH3 0x107 SWAP2 SWAP1 PUSH3 0x490 JUMP JUMPDEST SWAP1 SWAP2 SSTORE POP POP PUSH1 0x1 PUSH1 0x1 PUSH1 0xA0 SHL SUB DUP3 AND PUSH1 0x0 DUP2 DUP2 MSTORE PUSH1 0x20 DUP2 DUP2 MSTORE PUSH1 0x40 DUP1 DUP4 KECCAK256 DUP1 SLOAD DUP7 ADD SWAP1 SSTORE MLOAD DUP5 DUP2 MSTORE PUSH32 0xDDF252AD1BE2C89B69C2B068FC378DAA952BA7F163C4A11628F55A4DF523B3EF SWAP2 ADD PUSH1 0x40 MLOAD DUP1 SWAP2 SUB SWAP1 LOG3 POP POP JUMP JUMPDEST DUP3 DUP1 SLOAD PUSH3 0x16C SWAP1 PUSH3 0x4AB JUMP JUMPDEST SWAP1 PUSH1 0x0 MSTORE PUSH1 0x20 PUSH1 0x0 KECCAK256 SWAP1 PUSH1 0x1F ADD PUSH1 0x20 SWAP1 DIV DUP2 ADD SWAP3 DUP3 PUSH3 0x190 JUMPI PUSH1 0x0 DUP6 SSTORE PUSH3 0x1DB JUMP JUMPDEST DUP3 PUSH1 0x1F LT PUSH3 0x1AB JUMPI DUP1 MLOAD PUSH1 0xFF NOT AND DUP4 DUP1 ADD OR DUP6 SSTORE PUSH3 0x1DB JUMP JUMPDEST DUP3 DUP1 ADD PUSH1 0x1 ADD DUP6 SSTORE DUP3 ISZERO PUSH3 0x1DB JUMPI SWAP2 DUP3 ADD JUMPDEST DUP3 DUP2 GT ISZERO PUSH3 0x1DB JUMPI DUP3 MLOAD DUP3 SSTORE SWAP2 PUSH1 0x20 ADD SWAP2 SWAP1 PUSH1 0x1 ADD SWAP1 PUSH3 0x1BE JUMP JUMPDEST POP PUSH3 0x1E9 SWAP3 SWAP2 POP PUSH3 0x1ED JUMP JUMPDEST POP SWAP1 JUMP JUMPDEST JUMPDEST DUP1 DUP3 GT ISZERO PUSH3 0x1E9 JUMPI PUSH1 0x0 DUP2 SSTORE PUSH1 0x1 ADD PUSH3 0x1EE JUMP JUMPDEST PUSH4 0x4E487B71 PUSH1 0xE0 SHL PUSH1 0x0 MSTORE PUSH1 0x41 PUSH1 0x4 MSTORE PUSH1 0x24 PUSH1 0x0 REVERT JUMPDEST PUSH1 0x0 DUP3 PUSH1 0x1F DUP4 ADD SLT PUSH3 0x22C JUMPI PUSH1 0x0 DUP1 REVERT JUMPDEST DUP2 MLOAD PUSH1 0x1 PUSH1 0x1 PUSH1 0x40 SHL SUB DUP1 DUP3 GT ISZERO PUSH3 0x249 JUMPI PUSH3 0x249 PUSH3 0x204 JUMP JUMPDEST PUSH1 0x40 MLOAD PUSH1 0x1F DUP4 ADD PUSH1 0x1F NOT SWAP1 DUP2 AND PUSH1 0x3F ADD AND DUP2 ADD SWAP1 DUP3 DUP3 GT DUP2 DUP4 LT OR ISZERO PUSH3 0x274 JUMPI PUSH3 0x274 PUSH3 0x204 JUMP JUMPDEST DUP2 PUSH1 0x40 MSTORE DUP4 DUP2 MSTORE PUSH1 0x20 SWAP3 POP DUP7 DUP4 DUP6 DUP9 ADD ADD GT ISZERO PUSH3 0x291 JUMPI PUSH1 0x0 DUP1 REVERT JUMPDEST PUSH1 0x0 SWAP2 POP JUMPDEST DUP4 DUP3 LT ISZERO PUSH3 0x2B5 JUMPI DUP6 DUP3 ADD DUP4 ADD MLOAD DUP2 DUP4 ADD DUP5 ADD MSTORE SWAP1 DUP3 ADD SWAP1 PUSH3 0x296 JUMP JUMPDEST DUP4 DUP3 GT ISZERO PUSH3 0x2C7 JUMPI PUSH1 0x0 DUP4 DUP6 DUP4 ADD ADD MSTORE JUMPDEST SWAP7 SWAP6 POP POP POP POP POP POP JUMP JUMPDEST PUSH1 0x0 DUP1 PUSH1 0x0 PUSH1 0x60 DUP5 DUP7 SUB SLT ISZERO PUSH3 0x2E7 JUMPI PUSH1 0x0 DUP1 REVERT JUMPDEST DUP4 MLOAD PUSH1 0x1 PUSH1 0x1 PUSH1 0x40 SHL SUB DUP1 DUP3 GT ISZERO PUSH3 0x2FF JUMPI PUSH1 0x0 DUP1 REVERT JUMPDEST PUSH3 0x30D DUP8 DUP4 DUP9 ADD PUSH3 0x21A JUMP JUMPDEST SWAP5 POP PUSH1 0x20 DUP7 ADD MLOAD SWAP2 POP DUP1 DUP3 GT ISZERO PUSH3 0x324 JUMPI PUSH1 0x0 DUP1 REVERT JUMPDEST POP PUSH3 0x333 DUP7 DUP3 DUP8 ADD PUSH3 0x21A JUMP JUMPDEST SWAP3 POP POP PUSH1 0x40 DUP5 ADD MLOAD SWAP1 POP SWAP3 POP SWAP3 POP SWAP3 JUMP JUMPDEST PUSH4 0x4E487B71 PUSH1 0xE0 SHL PUSH1 0x0 MSTORE PUSH1 0x11 PUSH1 0x4 MSTORE PUSH1 0x24 PUSH1 0x0 REVERT JUMPDEST PUSH1 0x1 DUP2 DUP2 JUMPDEST DUP1 DUP6 GT ISZERO PUSH3 0x39B JUMPI DUP2 PUSH1 0x0 NOT DIV DUP3 GT ISZERO PUSH3 0x37F JUMPI PUSH3 0x37F PUSH3 0x344 JUMP JUMPDEST DUP1 DUP6 AND ISZERO PUSH3 0x38D JUMPI SWAP2 DUP2 MUL SWAP2 JUMPDEST SWAP4 DUP5 SHR SWAP4 SWAP1 DUP1 MUL SWAP1 PUSH3 0x35F JUMP JUMPDEST POP SWAP3 POP SWAP3 SWAP1 POP JUMP JUMPDEST PUSH1 0x0 DUP3 PUSH3 0x3B4 JUMPI POP PUSH1 0x1 PUSH3 0x453 JUMP JUMPDEST DUP2 PUSH3 0x3C3 JUMPI POP PUSH1 0x0 PUSH3 0x453 JUMP JUMPDEST DUP2 PUSH1 0x1 DUP2 EQ PUSH3 0x3DC JUMPI PUSH1 0x2 DUP2 EQ PUSH3 0x3E7 JUMPI PUSH3 0x407 JUMP JUMPDEST PUSH1 0x1 SWAP2 POP POP PUSH3 0x453 JUMP JUMPDEST PUSH1 0xFF DUP5 GT ISZERO PUSH3 0x3FB JUMPI PUSH3 0x3FB PUSH3 0x344 JUMP JUMPDEST POP POP PUSH1 0x1 DUP3 SHL PUSH3 0x453 JUMP JUMPDEST POP PUSH1 0x20 DUP4 LT PUSH2 0x133 DUP4 LT AND PUSH1 0x4E DUP5 LT PUSH1 0xB DUP5 LT AND OR ISZERO PUSH3 0x42C JUMPI POP DUP2 DUP2 EXP PUSH3 0x453 JUMP JUMPDEST PUSH3 0x438 DUP4 DUP4 PUSH3 0x35A JUMP JUMPDEST DUP1 PUSH1 0x0 NOT DIV DUP3 GT ISZERO PUSH3 0x44F JUMPI PUSH3 0x44F PUSH3 0x344 JUMP JUMPDEST MUL SWAP1 POP JUMPDEST SWAP3 SWAP2 POP POP JUMP JUMPDEST PUSH1 0x0 PUSH3 0x467 DUP4 DUP4 PUSH3 0x3A3 JUMP JUMPDEST SWAP4 SWAP3 POP POP POP JUMP JUMPDEST PUSH1 0x0 DUP2 PUSH1 0x0 NOT DIV DUP4 GT DUP3 ISZERO ISZERO AND ISZERO PUSH3 0x48B JUMPI PUSH3 0x48B PUSH3 0x344 JUMP JUMPDEST POP MUL SWAP1 JUMP JUMPDEST PUSH1 0x0 DUP3 NOT DUP3 GT ISZERO PUSH3 0x4A6 JUMPI PUSH3 0x4A6 PUSH3 0x344 JUMP JUMPDEST POP ADD SWAP1 JUMP JUMPDEST PUSH1 0x1 DUP2 DUP2 SHR SWAP1 DUP3 AND DUP1 PUSH3 0x4C0 JUMPI PUSH1 0x7F DUP3 AND SWAP2 POP JUMPDEST PUSH1 0x20 DUP3 LT DUP2 EQ ISZERO PUSH3 0x4E2 JUMPI PUSH4 0x4E487B71 PUSH1 0xE0 SHL PUSH1 0x0 MSTORE PUSH1 0x22 PUSH1 0x4 MSTORE PUSH1 0x24 PUSH1 0x0 REVERT JUMPDEST POP SWAP2 SWAP1 POP JUMP JUMPDEST PUSH2 0x84D DUP1 PUSH3 0x4F8 PUSH1 0x0 CODECOPY PUSH1 0x0 RETURN INVALID PUSH1 0x80 PUSH1 0x40 MSTORE CALLVALUE DUP1 ISZERO PUSH2 0x10 JUMPI PUSH1 0x0 DUP1 REVERT JUMPDEST POP PUSH1 0x4 CALLDATASIZE LT PUSH2 0x99 JUMPI PUSH1 0x0 CALLDATALOAD PUSH1 0xE0 SHR DUP1 PUSH4 0x6FDDE03 EQ PUSH2 0x9E JUMPI DUP1 PUSH4 0x95EA7B3 EQ PUSH2 0xBC JUMPI DUP1 PUSH4 0x18160DDD EQ PUSH2 0xDF JUMPI DUP1 PUSH4 0x23B872DD EQ PUSH2 0xF1 JUMPI DUP1 PUSH4 0x313CE567 EQ PUSH2 0x104 JUMPI DUP1 PUSH4 0x39509351 EQ PUSH2 0x113 JUMPI DUP1 PUSH4 0x70A08231 EQ PUSH2 0x126 JUMPI DUP1 PUSH4 0x95D89B41 EQ PUSH2 0x14F JUMPI DUP1 PUSH4 0xA457C2D7 EQ PUSH2 0x157 JUMPI DUP1 PUSH4 0xA9059CBB EQ PUSH2 0x16A JUMPI DUP1 PUSH4 0xDD62ED3E EQ PUSH2 0x17D JUMPI JUMPDEST PUSH1 0x0 DUP1 REVERT JUMPDEST PUSH2 0xA6 PUSH2 0x190 JUMP JUMPDEST PUSH1 0x40 MLOAD PUSH2 0xB3 SWAP2 SWAP1 PUSH2 0x68A JUMP JUMPDEST PUSH1 0x40 MLOAD DUP1 SWAP2 SUB SWAP1 RETURN JUMPDEST PUSH2 0xCF PUSH2 0xCA CALLDATASIZE PUSH1 0x4 PUSH2 0x6FB JUMP JUMPDEST PUSH2 0x222 JUMP JUMPDEST PUSH1 0x40 MLOAD SWAP1 ISZERO ISZERO DUP2 MSTORE PUSH1 0x20 ADD PUSH2 0xB3 JUMP JUMPDEST PUSH1 0x2 SLOAD JUMPDEST PUSH1 0x40 MLOAD SWAP1 DUP2 MSTORE PUSH1 0x20 ADD PUSH2 0xB3 JUMP JUMPDEST PUSH2 0xCF PUSH2 0xFF CALLDATASIZE PUSH1 0x4 PUSH2 0x725 JUMP JUMPDEST PUSH2 0x23A JUMP JUMPDEST PUSH1 0x40 MLOAD PUSH1 0x12 DUP2 MSTORE PUSH1 0x20 ADD PUSH2 0xB3 JUMP JUMPDEST PUSH2 0xCF PUSH2 0x121 CALLDATASIZE PUSH1 0x4 PUSH2 0x6FB JUMP JUMPDEST PUSH2 0x25E JUMP JUMPDEST PUSH2 0xE3 PUSH2 0x134 CALLDATASIZE PUSH1 0x4 PUSH2 0x761 JUMP JUMPDEST PUSH1 0x1 PUSH1 0x1 PUSH1 0xA0 SHL SUB AND PUSH1 0x0 SWAP1 DUP2 MSTORE PUSH1 0x20 DUP2 SWAP1 MSTORE PUSH1 0x40 SWAP1 KECCAK256 SLOAD SWAP1 JUMP JUMPDEST PUSH2 0xA6 PUSH2 0x280 JUMP JUMPDEST PUSH2 0xCF PUSH2 0x165 CALLDATASIZE PUSH1 0x4 PUSH2 0x6FB JUMP JUMPDEST PUSH2 0x28F JUMP JUMPDEST PUSH2 0xCF PUSH2 0x178 CALLDATASIZE PUSH1 0x4 PUSH2 0x6FB JUMP JUMPDEST PUSH2 0x30F JUMP JUMPDEST PUSH2 0xE3 PUSH2 0x18B CALLDATASIZE PUSH1 0x4 PUSH2 0x783 JUMP JUMPDEST PUSH2 0x31D JUMP JUMPDEST PUSH1 0x60 PUSH1 0x3 DUP1 SLOAD PUSH2 0x19F SWAP1 PUSH2 0x7B6 JUMP JUMPDEST DUP1 PUSH1 0x1F ADD PUSH1 0x20 DUP1 SWAP2 DIV MUL PUSH1 0x20 ADD PUSH1 0x40 MLOAD SWAP1 DUP2 ADD PUSH1 0x40 MSTORE DUP1 SWAP3 SWAP2 SWAP1 DUP2 DUP2 MSTORE PUSH1 0x20 ADD DUP3 DUP1 SLOAD PUSH2 0x1CB SWAP1 PUSH2 0x7B6 JUMP JUMPDEST DUP1 ISZERO PUSH2 0x218 JUMPI DUP1 PUSH1 0x1F LT PUSH2 0x1ED JUMPI PUSH2 0x100 DUP1 DUP4 SLOAD DIV MUL DUP4 MSTORE SWAP2 PUSH1 0x20 ADD SWAP2 PUSH2 0x218 JUMP JUMPDEST DUP3 ADD SWAP2 SWAP1 PUSH1 0x0 MSTORE PUSH1 0x20 PUSH1 0x0 KECCAK256 SWAP1 JUMPDEST DUP2 SLOAD DUP2 MSTORE SWAP1 PUSH1 0x1 ADD SWAP1 PUSH1 0x20 ADD DUP1 DUP4 GT PUSH2 0x1FB JUMPI DUP3 SWAP1 SUB PUSH1 0x1F AND DUP3 ADD SWAP2 JUMPDEST POP POP POP POP POP SWAP1 POP SWAP1 JUMP JUMPDEST PUSH1 0x0 CALLER PUSH2 0x230 DUP2 DUP6 DUP6 PUSH2 0x348 JUMP JUMPDEST POP PUSH1 0x1 SWAP4 SWAP3 POP POP POP JUMP JUMPDEST PUSH1 0x0 CALLER PUSH2 0x248 DUP6 DUP3 DUP6 PUSH2 0x46C JUMP JUMPDEST PUSH2 0x253 DUP6 DUP6 DUP6 PUSH2 0x4E6 JUMP JUMPDEST POP PUSH1 0x1 SWAP5 SWAP4 POP POP POP POP JUMP JUMPDEST PUSH1 0x0 CALLER PUSH2 0x230 DUP2 DUP6 DUP6 PUSH2 0x271 DUP4 DUP4 PUSH2 0x31D JUMP JUMPDEST PUSH2 0x27B SWAP2 SWAP1 PUSH2 0x7F1 JUMP JUMPDEST PUSH2 0x348 JUMP JUMPDEST PUSH1 0x60 PUSH1 0x4 DUP1 SLOAD PUSH2 0x19F SWAP1 PUSH2 0x7B6 JUMP JUMPDEST PUSH1 0x0 CALLER DUP2 PUSH2 0x29D DUP3 DUP7 PUSH2 0x31D JUMP JUMPDEST SWAP1 POP DUP4 DUP2 LT ISZERO PUSH2 0x302 JUMPI PUSH1 0x40 MLOAD PUSH3 0x461BCD PUSH1 0xE5 SHL DUP2 MSTORE PUSH1 0x20 PUSH1 0x4 DUP3 ADD MSTORE PUSH1 0x25 PUSH1 0x24 DUP3 ADD MSTORE PUSH32 0x45524332303A2064656372656173656420616C6C6F77616E63652062656C6F77 PUSH1 0x44 DUP3 ADD MSTORE PUSH5 0x207A65726F PUSH1 0xD8 SHL PUSH1 0x64 DUP3 ADD MSTORE PUSH1 0x84 ADD JUMPDEST PUSH1 0x40 MLOAD DUP1 SWAP2 SUB SWAP1 REVERT JUMPDEST PUSH2 0x253 DUP3 DUP7 DUP7 DUP5 SUB PUSH2 0x348 JUMP JUMPDEST PUSH1 0x0 CALLER PUSH2 0x230 DUP2 DUP6 DUP6 PUSH2 0x4E6 JUMP JUMPDEST PUSH1 0x1 PUSH1 0x1 PUSH1 0xA0 SHL SUB SWAP2 DUP3 AND PUSH1 0x0 SWAP1 DUP2 MSTORE PUSH1 0x1 PUSH1 0x20 SWAP1 DUP2 MSTORE PUSH1 0x40 DUP1 DUP4 KECCAK256 SWAP4 SWAP1 SWAP5 AND DUP3 MSTORE SWAP2 SWAP1 SWAP2 MSTORE KECCAK256 SLOAD SWAP1 JUMP JUMPDEST PUSH1 0x1 PUSH1 0x1 PUSH1 0xA0 SHL SUB DUP4 AND PUSH2 0x3AA JUMPI PUSH1 0x40 MLOAD PUSH3 0x461BCD PUSH1 0xE5 SHL DUP2 MSTORE PUSH1 0x20 PUSH1 0x4 DUP3 ADD MSTORE PUSH1 0x24 DUP1 DUP3 ADD MSTORE PUSH32 0x45524332303A20617070726F76652066726F6D20746865207A65726F20616464 PUSH1 0x44 DUP3 ADD MSTORE PUSH4 0x72657373 PUSH1 0xE0 SHL PUSH1 0x64 DUP3 ADD MSTORE PUSH1 0x84 ADD PUSH2 0x2F9 JUMP JUMPDEST PUSH1 0x1 PUSH1 0x1 PUSH1 0xA0 SHL SUB DUP3 AND PUSH2 0x40B JUMPI PUSH1 0x40 MLOAD PUSH3 0x461BCD PUSH1 0xE5 SHL DUP2 MSTORE PUSH1 0x20 PUSH1 0x4 DUP3 ADD MSTORE PUSH1 0x22 PUSH1 0x24 DUP3 ADD MSTORE PUSH32 0x45524332303A20617070726F766520746F20746865207A65726F206164647265 PUSH1 0x44 DUP3 ADD MSTORE PUSH2 0x7373 PUSH1 0xF0 SHL PUSH1 0x64 DUP3 ADD MSTORE PUSH1 0x84 ADD PUSH2 0x2F9 JUMP JUMPDEST PUSH1 0x1 PUSH1 0x1 PUSH1 0xA0 SHL SUB DUP4 DUP2 AND PUSH1 0x0 DUP2 DUP2 MSTORE PUSH1 0x1 PUSH1 0x20 SWAP1 DUP2 MSTORE PUSH1 0x40 DUP1 DUP4 KECCAK256 SWAP5 DUP8 AND DUP1 DUP5 MSTORE SWAP5 DUP3 MSTORE SWAP2 DUP3 SWAP1 KECCAK256 DUP6 SWAP1 SSTORE SWAP1 MLOAD DUP5 DUP2 MSTORE PUSH32 0x8C5BE1E5EBEC7D5BD14F71427D1E84F3DD0314C0F7B2291E5B200AC8C7C3B925 SWAP2 ADD PUSH1 0x40 MLOAD DUP1 SWAP2 SUB SWAP1 LOG3 POP POP POP JUMP JUMPDEST PUSH1 0x0 PUSH2 0x478 DUP5 DUP5 PUSH2 0x31D JUMP JUMPDEST SWAP1 POP PUSH1 0x0 NOT DUP2 EQ PUSH2 0x4E0 JUMPI DUP2 DUP2 LT ISZERO PUSH2 0x4D3 JUMPI PUSH1 0x40 MLOAD PUSH3 0x461BCD PUSH1 0xE5 SHL DUP2 MSTORE PUSH1 0x20 PUSH1 0x4 DUP3 ADD MSTORE PUSH1 0x1D PUSH1 0x24 DUP3 ADD MSTORE PUSH32 0x45524332303A20696E73756666696369656E7420616C6C6F77616E6365000000 PUSH1 0x44 DUP3 ADD MSTORE PUSH1 0x64 ADD PUSH2 0x2F9 JUMP JUMPDEST PUSH2 0x4E0 DUP5 DUP5 DUP5 DUP5 SUB PUSH2 0x348 JUMP JUMPDEST POP POP POP POP JUMP JUMPDEST PUSH1 0x1 PUSH1 0x1 PUSH1 0xA0 SHL SUB DUP4 AND PUSH2 0x54A JUMPI PUSH1 0x40 MLOAD PUSH3 0x461BCD PUSH1 0xE5 SHL DUP2 MSTORE PUSH1 0x20 PUSH1 0x4 DUP3 ADD MSTORE PUSH1 0x25 PUSH1 0x24 DUP3 ADD MSTORE PUSH32 0x45524332303A207472616E736665722066726F6D20746865207A65726F206164 PUSH1 0x44 DUP3 ADD MSTORE PUSH5 0x6472657373 PUSH1 0xD8 SHL PUSH1 0x64 DUP3 ADD MSTORE PUSH1 0x84 ADD PUSH2 0x2F9 JUMP JUMPDEST PUSH1 0x1 PUSH1 0x1 PUSH1 0xA0 SHL SUB DUP3 AND PUSH2 0x5AC JUMPI PUSH1 0x40 MLOAD PUSH3 0x461BCD PUSH1 0xE5 SHL DUP2 MSTORE PUSH1 0x20 PUSH1 0x4 DUP3 ADD MSTORE PUSH1 0x23 PUSH1 0x24 DUP3 ADD MSTORE PUSH32 0x45524332303A207472616E7366657220746F20746865207A65726F2061646472 PUSH1 0x44 DUP3 ADD MSTORE PUSH3 0x657373 PUSH1 0xE8 SHL PUSH1 0x64 DUP3 ADD MSTORE PUSH1 0x84 ADD PUSH2 0x2F9 JUMP JUMPDEST PUSH1 0x1 PUSH1 0x1 PUSH1 0xA0 SHL SUB DUP4 AND PUSH1 0x0 SWAP1 DUP2 MSTORE PUSH1 0x20 DUP2 SWAP1 MSTORE PUSH1 0x40 SWAP1 KECCAK256 SLOAD DUP2 DUP2 LT ISZERO PUSH2 0x624 JUMPI PUSH1 0x40 MLOAD PUSH3 0x461BCD PUSH1 0xE5 SHL DUP2 MSTORE PUSH1 0x20 PUSH1 0x4 DUP3 ADD MSTORE PUSH1 0x26 PUSH1 0x24 DUP3 ADD MSTORE PUSH32 0x45524332303A207472616E7366657220616D6F756E7420657863656564732062 PUSH1 0x44 DUP3 ADD MSTORE PUSH6 0x616C616E6365 PUSH1 0xD0 SHL PUSH1 0x64 DUP3 ADD MSTORE PUSH1 0x84 ADD PUSH2 0x2F9 JUMP JUMPDEST PUSH1 0x1 PUSH1 0x1 PUSH1 0xA0 SHL SUB DUP5 DUP2 AND PUSH1 0x0 DUP2 DUP2 MSTORE PUSH1 0x20 DUP2 DUP2 MSTORE PUSH1 0x40 DUP1 DUP4 KECCAK256 DUP8 DUP8 SUB SWAP1 SSTORE SWAP4 DUP8 AND DUP1 DUP4 MSTORE SWAP2 DUP5 SWAP1 KECCAK256 DUP1 SLOAD DUP8 ADD SWAP1 SSTORE SWAP3 MLOAD DUP6 DUP2 MSTORE SWAP1 SWAP3 PUSH32 0xDDF252AD1BE2C89B69C2B068FC378DAA952BA7F163C4A11628F55A4DF523B3EF SWAP2 ADD PUSH1 0x40 MLOAD DUP1 SWAP2 SUB SWAP1 LOG3 PUSH2 0x4E0 JUMP JUMPDEST PUSH1 0x0 PUSH1 0x20 DUP1 DUP4 MSTORE DUP4 MLOAD DUP1 DUP3 DUP6 ADD MSTORE PUSH1 0x0 JUMPDEST DUP2 DUP2 LT ISZERO PUSH2 0x6B7 JUMPI DUP6 DUP2 ADD DUP4 ADD MLOAD DUP6 DUP3 ADD PUSH1 0x40 ADD MSTORE DUP3 ADD PUSH2 0x69B JUMP JUMPDEST DUP2 DUP2 GT ISZERO PUSH2 0x6C9 JUMPI PUSH1 0x0 PUSH1 0x40 DUP4 DUP8 ADD ADD MSTORE JUMPDEST POP PUSH1 0x1F ADD PUSH1 0x1F NOT AND SWAP3 SWAP1 SWAP3 ADD PUSH1 0x40 ADD SWAP4 SWAP3 POP POP POP JUMP JUMPDEST DUP1 CALLDATALOAD PUSH1 0x1 PUSH1 0x1 PUSH1 0xA0 SHL SUB DUP2 AND DUP2 EQ PUSH2 0x6F6 JUMPI PUSH1 0x0 DUP1 REVERT JUMPDEST SWAP2 SWAP1 POP JUMP JUMPDEST PUSH1 0x0 DUP1 PUSH1 0x40 DUP4 DUP6 SUB SLT ISZERO PUSH2 0x70E JUMPI PUSH1 0x0 DUP1 REVERT JUMPDEST PUSH2 0x717 DUP4 PUSH2 0x6DF JUMP JUMPDEST SWAP5 PUSH1 0x20 SWAP4 SWAP1 SWAP4 ADD CALLDATALOAD SWAP4 POP POP POP JUMP JUMPDEST PUSH1 0x0 DUP1 PUSH1 0x0 PUSH1 0x60 DUP5 DUP7 SUB SLT ISZERO PUSH2 0x73A JUMPI PUSH1 0x0 DUP1 REVERT JUMPDEST PUSH2 0x743 DUP5 PUSH2 0x6DF JUMP JUMPDEST SWAP3 POP PUSH2 0x751 PUSH1 0x20 DUP6 ADD PUSH2 0x6DF JUMP JUMPDEST SWAP2 POP PUSH1 0x40 DUP5 ADD CALLDATALOAD SWAP1 POP SWAP3 POP SWAP3 POP SWAP3 JUMP JUMPDEST PUSH1 0x0 PUSH1 0x20 DUP3 DUP5 SUB SLT ISZERO PUSH2 0x773 JUMPI PUSH1 0x0 DUP1 REVERT JUMPDEST PUSH2 0x77C DUP3 PUSH2 0x6DF JUMP JUMPDEST SWAP4 SWAP3 POP POP POP JUMP JUMPDEST PUSH1 0x0 DUP1 PUSH1 0x40 DUP4 DUP6 SUB SLT ISZERO PUSH2 0x796 JUMPI PUSH1 0x0 DUP1 REVERT JUMPDEST PUSH2 0x79F DUP4 PUSH2 0x6DF JUMP JUMPDEST SWAP2 POP PUSH2 0x7AD PUSH1 0x20 DUP5 ADD PUSH2 0x6DF JUMP JUMPDEST SWAP1 POP SWAP3 POP SWAP3 SWAP1 POP JUMP JUMPDEST PUSH1 0x1 DUP2 DUP2 SHR SWAP1 DUP3 AND DUP1 PUSH2 0x7CA JUMPI PUSH1 0x7F DUP3 AND SWAP2 POP JUMPDEST PUSH1 0x20 DUP3 LT DUP2 EQ ISZERO PUSH2 0x7EB JUMPI PUSH4 0x4E487B71 PUSH1 0xE0 SHL PUSH1 0x0 MSTORE PUSH1 0x22 PUSH1 0x4 MSTORE PUSH1 0x24 PUSH1 0x0 REVERT JUMPDEST POP SWAP2 SWAP1 POP JUMP JUMPDEST PUSH1 0x0 DUP3 NOT DUP3 GT ISZERO PUSH2 0x812 JUMPI PUSH4 0x4E487B71 PUSH1 0xE0 SHL PUSH1 0x0 MSTORE PUSH1 0x11 PUSH1 0x4 MSTORE PUSH1 0x24 PUSH1 0x0 REVERT JUMPDEST POP ADD SWAP1 JUMP INVALID LOG2 PUSH5 0x6970667358 0x22 SLT KECCAK256 0xBA 0xE8 EQ CHAINID 0xB9 0x49 SIGNEXTEND LOG4 CODESIZE DUP5 SWAP3 LOG3 AND 0xE9 0x2F PUSH17 0x851B28D69547C187D8A090595ACA0A0D64 PUSH20 0x6F6C634300080C0033A2646970667358221220DA 0xE9 OR 0xAC 0xC9 ADDMOD PUSH15 0xF72800159D0D672948A92D4F660521 PUSH8 0x3DDE9E9338C8E512 0xC7 PUSH5 0x736F6C6343 STOP ADDMOD 0xC STOP CALLER "},"methodIdentifiers":{"USDT()":"c54e44eb","_propertyIdCount()":"7178acaf","addProperty(string,string,uint256,uint256,uint256)":"e187c4d0","approveProperty(uint256)":"e9b66f8c","banProperty(uint256)":"16280548","claimInvestment(uint256,uint256)":"9c8376a2","claimPropertyTokens(uint256,uint256)":"70e74ed8","claimReturn(uint256,uint256)":"b1166a65","claimedInvestment(uint256)":"bbe02ea6","getAllInvestments(uint256)":"e1769b1f","getAllProperties()":"3d51402c","getProperties()":"ec0cfd0b","investInProperty(uint256,uint256)":"54302a6d","investments(uint256,address)":"b11b32d2","lockedTokens(uint256)":"dcec3294","promissoryOwner()":"6ac20845","property(uint256)":"30e1ad32","propertyIdToInvestment(uint256,uint256)":"eb1cf0d6","propertyIdToProperty(uint256)":"19004eaa","propertyIdToTokenAddress(uint256)":"c1906396","returnInvestment(uint256,address)":"514ff602","totalInvestedAmount(uint256)":"c37601d6","updateInterestRate(uint256,uint256)":"6f0a79c3","updateLockingPeriod(uint256,uint256)":"7018f133","updateTokenSupply(uint256,uint256)":"ca419202"}}}}}