{
  "_format": "hh-sol-artifact-1",
  "contractName": "Promissory",
  "sourceName": "contracts/Promissory.sol",
  "abi": [
    {
      "inputs": [],
      "stateMutability": "nonpayable",
      "type": "constructor"
    },
    {
      "anonymous": false,
      "inputs": [
        {
          "indexed": true,
          "internalType": "uint256",
          "name": "PropertyId",
          "type": "uint256"
        },
        {
          "indexed": true,
          "internalType": "uint256",
          "name": "InterestRate",
          "type": "uint256"
        }
      ],
      "name": "InterestRateUpdated",
      "type": "event"
    },
    {
      "anonymous": false,
      "inputs": [
        {
          "indexed": false,
          "internalType": "uint256",
          "name": "PropertyId",
          "type": "uint256"
        },
        {
          "indexed": false,
          "internalType": "address",
          "name": "Investor",
          "type": "address"
        },
        {
          "indexed": false,
          "internalType": "uint256",
          "name": "InvestmentAmount",
          "type": "uint256"
        },
        {
          "indexed": false,
          "internalType": "uint256",
          "name": "TokenSupply",
          "type": "uint256"
        },
        {
          "indexed": false,
          "internalType": "uint256",
          "name": "InterestRate",
          "type": "uint256"
        }
      ],
      "name": "Invested",
      "type": "event"
    },
    {
      "anonymous": false,
      "inputs": [
        {
          "indexed": true,
          "internalType": "address",
          "name": "PropertyOwner",
          "type": "address"
        },
        {
          "indexed": true,
          "internalType": "uint256",
          "name": "PropertyId",
          "type": "uint256"
        },
        {
          "indexed": true,
          "internalType": "uint256",
          "name": "ClaimedAmount",
          "type": "uint256"
        }
      ],
      "name": "InvestmentClaimed",
      "type": "event"
    },
    {
      "anonymous": false,
      "inputs": [
        {
          "indexed": true,
          "internalType": "address",
          "name": "PropertyOwner",
          "type": "address"
        },
        {
          "indexed": true,
          "internalType": "address",
          "name": "Investor",
          "type": "address"
        },
        {
          "indexed": true,
          "internalType": "uint256",
          "name": "ReturnedAmount",
          "type": "uint256"
        },
        {
          "indexed": false,
          "internalType": "uint256",
          "name": "InvestedAmount",
          "type": "uint256"
        }
      ],
      "name": "InvestmentReturned",
      "type": "event"
    },
    {
      "anonymous": false,
      "inputs": [
        {
          "indexed": true,
          "internalType": "uint256",
          "name": "PropertyId",
          "type": "uint256"
        },
        {
          "indexed": true,
          "internalType": "uint256",
          "name": "LockingPeriod",
          "type": "uint256"
        }
      ],
      "name": "LockingPeriodUpdated",
      "type": "event"
    },
    {
      "anonymous": false,
      "inputs": [
        {
          "indexed": true,
          "internalType": "uint256",
          "name": "PropertyId",
          "type": "uint256"
        },
        {
          "indexed": true,
          "internalType": "address",
          "name": "PropertyOwner",
          "type": "address"
        },
        {
          "indexed": false,
          "internalType": "string",
          "name": "PropertyTokenName",
          "type": "string"
        },
        {
          "indexed": false,
          "internalType": "string",
          "name": "PropertyTokenSymbol",
          "type": "string"
        },
        {
          "indexed": false,
          "internalType": "uint256",
          "name": "PropertyTokenSupply",
          "type": "uint256"
        },
        {
          "indexed": false,
          "internalType": "uint256",
          "name": "PropertyInterestRate",
          "type": "uint256"
        },
        {
          "indexed": false,
          "internalType": "uint256",
          "name": "PropertyLockingPeriod",
          "type": "uint256"
        }
      ],
      "name": "PropertyAdded",
      "type": "event"
    },
    {
      "anonymous": false,
      "inputs": [
        {
          "indexed": true,
          "internalType": "uint256",
          "name": "PropertyId",
          "type": "uint256"
        },
        {
          "indexed": true,
          "internalType": "address",
          "name": "PropertyOwner",
          "type": "address"
        },
        {
          "indexed": false,
          "internalType": "string",
          "name": "TokenName",
          "type": "string"
        },
        {
          "indexed": false,
          "internalType": "string",
          "name": "TokenSymbol",
          "type": "string"
        },
        {
          "indexed": false,
          "internalType": "uint256",
          "name": "TokenSupply",
          "type": "uint256"
        },
        {
          "indexed": true,
          "internalType": "address",
          "name": "PropertyTokenAddress",
          "type": "address"
        },
        {
          "indexed": false,
          "internalType": "enum Promissory.PropertyStatus",
          "name": "Status",
          "type": "uint8"
        },
        {
          "indexed": false,
          "internalType": "uint256",
          "name": "NumberOfLockedTokens",
          "type": "uint256"
        }
      ],
      "name": "PropertyApprovedAndTokenized",
      "type": "event"
    },
    {
      "anonymous": false,
      "inputs": [
        {
          "indexed": true,
          "internalType": "uint256",
          "name": "PropertyId",
          "type": "uint256"
        },
        {
          "indexed": true,
          "internalType": "address",
          "name": "PropertyOwner",
          "type": "address"
        }
      ],
      "name": "PropertyBanned",
      "type": "event"
    },
    {
      "anonymous": false,
      "inputs": [
        {
          "indexed": true,
          "internalType": "address",
          "name": "PropertyOwner",
          "type": "address"
        },
        {
          "indexed": true,
          "internalType": "uint256",
          "name": "PropertyId",
          "type": "uint256"
        },
        {
          "indexed": true,
          "internalType": "uint256",
          "name": "ClaimedTokens",
          "type": "uint256"
        }
      ],
      "name": "PropertyTokensClaimed",
      "type": "event"
    },
    {
      "anonymous": false,
      "inputs": [
        {
          "indexed": true,
          "internalType": "address",
          "name": "Investor",
          "type": "address"
        },
        {
          "indexed": true,
          "internalType": "uint256",
          "name": "PropertyId",
          "type": "uint256"
        },
        {
          "indexed": true,
          "internalType": "uint256",
          "name": "ReturnedAmount",
          "type": "uint256"
        }
      ],
      "name": "ReturnClaimed",
      "type": "event"
    },
    {
      "anonymous": false,
      "inputs": [
        {
          "indexed": true,
          "internalType": "address",
          "name": "Owner",
          "type": "address"
        },
        {
          "indexed": true,
          "internalType": "uint256",
          "name": "PropertyId",
          "type": "uint256"
        },
        {
          "indexed": false,
          "internalType": "uint256",
          "name": "TokenSupply",
          "type": "uint256"
        }
      ],
      "name": "TokenSupplyUpdated",
      "type": "event"
    },
    {
      "inputs": [],
      "name": "USDT",
      "outputs": [
        {
          "internalType": "address",
          "name": "",
          "type": "address"
        }
      ],
      "stateMutability": "view",
      "type": "function"
    },
    {
      "inputs": [],
      "name": "_propertyIdCount",
      "outputs": [
        {
          "internalType": "uint256",
          "name": "_value",
          "type": "uint256"
        }
      ],
      "stateMutability": "view",
      "type": "function"
    },
    {
      "inputs": [
        {
          "internalType": "string",
          "name": "_tokenName",
          "type": "string"
        },
        {
          "internalType": "string",
          "name": "_tokenSymbol",
          "type": "string"
        },
        {
          "internalType": "uint256",
          "name": "_tokenSupply",
          "type": "uint256"
        },
        {
          "internalType": "uint256",
          "name": "_interestRate",
          "type": "uint256"
        },
        {
          "internalType": "uint256",
          "name": "_lockingPeriod",
          "type": "uint256"
        }
      ],
      "name": "addProperty",
      "outputs": [],
      "stateMutability": "nonpayable",
      "type": "function"
    },
    {
      "inputs": [
        {
          "internalType": "uint256",
          "name": "_propertyId",
          "type": "uint256"
        }
      ],
      "name": "approveProperty",
      "outputs": [],
      "stateMutability": "nonpayable",
      "type": "function"
    },
    {
      "inputs": [
        {
          "internalType": "uint256",
          "name": "_propertyId",
          "type": "uint256"
        }
      ],
      "name": "banProperty",
      "outputs": [],
      "stateMutability": "nonpayable",
      "type": "function"
    },
    {
      "inputs": [
        {
          "internalType": "uint256",
          "name": "_propertyId",
          "type": "uint256"
        },
        {
          "internalType": "uint256",
          "name": "_numberOfTokensToClaim",
          "type": "uint256"
        }
      ],
      "name": "claimInvestment",
      "outputs": [],
      "stateMutability": "nonpayable",
      "type": "function"
    },
    {
      "inputs": [
        {
          "internalType": "uint256",
          "name": "_propertyId",
          "type": "uint256"
        },
        {
          "internalType": "uint256",
          "name": "_claimTokens",
          "type": "uint256"
        }
      ],
      "name": "claimPropertyTokens",
      "outputs": [],
      "stateMutability": "nonpayable",
      "type": "function"
    },
    {
      "inputs": [
        {
          "internalType": "uint256",
          "name": "_propertyId",
          "type": "uint256"
        },
        {
          "internalType": "uint256",
          "name": "_returnAmount",
          "type": "uint256"
        }
      ],
      "name": "claimReturn",
      "outputs": [],
      "stateMutability": "nonpayable",
      "type": "function"
    },
    {
      "inputs": [
        {
          "internalType": "uint256",
          "name": "",
          "type": "uint256"
        }
      ],
      "name": "claimedInvestment",
      "outputs": [
        {
          "internalType": "uint256",
          "name": "",
          "type": "uint256"
        }
      ],
      "stateMutability": "view",
      "type": "function"
    },
    {
      "inputs": [
        {
          "internalType": "uint256",
          "name": "_propertyId",
          "type": "uint256"
        }
      ],
      "name": "getAllInvestments",
      "outputs": [
        {
          "components": [
            {
              "internalType": "address",
              "name": "investor",
              "type": "address"
            },
            {
              "internalType": "uint256",
              "name": "investmentAmount",
              "type": "uint256"
            },
            {
              "internalType": "uint256",
              "name": "timeStamp",
              "type": "uint256"
            }
          ],
          "internalType": "struct Promissory.Investment[]",
          "name": "",
          "type": "tuple[]"
        }
      ],
      "stateMutability": "view",
      "type": "function"
    },
    {
      "inputs": [],
      "name": "getAllProperties",
      "outputs": [
        {
          "components": [
            {
              "internalType": "uint256",
              "name": "propertyId",
              "type": "uint256"
            },
            {
              "internalType": "address",
              "name": "owner",
              "type": "address"
            },
            {
              "internalType": "string",
              "name": "tokenName",
              "type": "string"
            },
            {
              "internalType": "string",
              "name": "tokenSymbol",
              "type": "string"
            },
            {
              "internalType": "uint256",
              "name": "tokenSupply",
              "type": "uint256"
            },
            {
              "internalType": "uint256",
              "name": "interestRate",
              "type": "uint256"
            },
            {
              "internalType": "uint256",
              "name": "lockingPeriod",
              "type": "uint256"
            },
            {
              "internalType": "enum Promissory.PropertyStatus",
              "name": "status",
              "type": "uint8"
            }
          ],
          "internalType": "struct Promissory.Property[]",
          "name": "",
          "type": "tuple[]"
        }
      ],
      "stateMutability": "view",
      "type": "function"
    },
    {
      "inputs": [],
      "name": "getProperties",
      "outputs": [
        {
          "components": [
            {
              "internalType": "uint256",
              "name": "propertyId",
              "type": "uint256"
            },
            {
              "internalType": "address",
              "name": "owner",
              "type": "address"
            },
            {
              "internalType": "string",
              "name": "tokenName",
              "type": "string"
            },
            {
              "internalType": "string",
              "name": "tokenSymbol",
              "type": "string"
            },
            {
              "internalType": "uint256",
              "name": "tokenSupply",
              "type": "uint256"
            },
            {
              "internalType": "uint256",
              "name": "interestRate",
              "type": "uint256"
            },
            {
              "internalType": "uint256",
              "name": "lockingPeriod",
              "type": "uint256"
            },
            {
              "internalType": "enum Promissory.PropertyStatus",
              "name": "status",
              "type": "uint8"
            }
          ],
          "internalType": "struct Promissory.Property[]",
          "name": "",
          "type": "tuple[]"
        }
      ],
      "stateMutability": "view",
      "type": "function"
    },
    {
      "inputs": [
        {
          "internalType": "uint256",
          "name": "_propertyId",
          "type": "uint256"
        },
        {
          "internalType": "uint256",
          "name": "_investmentAmount",
          "type": "uint256"
        }
      ],
      "name": "investInProperty",
      "outputs": [],
      "stateMutability": "nonpayable",
      "type": "function"
    },
    {
      "inputs": [
        {
          "internalType": "uint256",
          "name": "",
          "type": "uint256"
        },
        {
          "internalType": "address",
          "name": "",
          "type": "address"
        }
      ],
      "name": "investments",
      "outputs": [
        {
          "internalType": "address",
          "name": "investor",
          "type": "address"
        },
        {
          "internalType": "uint256",
          "name": "investmentAmount",
          "type": "uint256"
        },
        {
          "internalType": "uint256",
          "name": "timeStamp",
          "type": "uint256"
        }
      ],
      "stateMutability": "view",
      "type": "function"
    },
    {
      "inputs": [
        {
          "internalType": "uint256",
          "name": "",
          "type": "uint256"
        }
      ],
      "name": "lockedTokens",
      "outputs": [
        {
          "internalType": "uint256",
          "name": "",
          "type": "uint256"
        }
      ],
      "stateMutability": "view",
      "type": "function"
    },
    {
      "inputs": [],
      "name": "promissoryOwner",
      "outputs": [
        {
          "internalType": "address",
          "name": "",
          "type": "address"
        }
      ],
      "stateMutability": "view",
      "type": "function"
    },
    {
      "inputs": [
        {
          "internalType": "uint256",
          "name": "",
          "type": "uint256"
        }
      ],
      "name": "property",
      "outputs": [
        {
          "internalType": "uint256",
          "name": "propertyId",
          "type": "uint256"
        },
        {
          "internalType": "address",
          "name": "owner",
          "type": "address"
        },
        {
          "internalType": "string",
          "name": "tokenName",
          "type": "string"
        },
        {
          "internalType": "string",
          "name": "tokenSymbol",
          "type": "string"
        },
        {
          "internalType": "uint256",
          "name": "tokenSupply",
          "type": "uint256"
        },
        {
          "internalType": "uint256",
          "name": "interestRate",
          "type": "uint256"
        },
        {
          "internalType": "uint256",
          "name": "lockingPeriod",
          "type": "uint256"
        },
        {
          "internalType": "enum Promissory.PropertyStatus",
          "name": "status",
          "type": "uint8"
        }
      ],
      "stateMutability": "view",
      "type": "function"
    },
    {
      "inputs": [
        {
          "internalType": "uint256",
          "name": "",
          "type": "uint256"
        },
        {
          "internalType": "uint256",
          "name": "",
          "type": "uint256"
        }
      ],
      "name": "propertyIdToInvestment",
      "outputs": [
        {
          "internalType": "address",
          "name": "investor",
          "type": "address"
        },
        {
          "internalType": "uint256",
          "name": "investmentAmount",
          "type": "uint256"
        },
        {
          "internalType": "uint256",
          "name": "timeStamp",
          "type": "uint256"
        }
      ],
      "stateMutability": "view",
      "type": "function"
    },
    {
      "inputs": [
        {
          "internalType": "uint256",
          "name": "",
          "type": "uint256"
        }
      ],
      "name": "propertyIdToProperty",
      "outputs": [
        {
          "internalType": "uint256",
          "name": "propertyId",
          "type": "uint256"
        },
        {
          "internalType": "address",
          "name": "owner",
          "type": "address"
        },
        {
          "internalType": "string",
          "name": "tokenName",
          "type": "string"
        },
        {
          "internalType": "string",
          "name": "tokenSymbol",
          "type": "string"
        },
        {
          "internalType": "uint256",
          "name": "tokenSupply",
          "type": "uint256"
        },
        {
          "internalType": "uint256",
          "name": "interestRate",
          "type": "uint256"
        },
        {
          "internalType": "uint256",
          "name": "lockingPeriod",
          "type": "uint256"
        },
        {
          "internalType": "enum Promissory.PropertyStatus",
          "name": "status",
          "type": "uint8"
        }
      ],
      "stateMutability": "view",
      "type": "function"
    },
    {
      "inputs": [
        {
          "internalType": "uint256",
          "name": "",
          "type": "uint256"
        }
      ],
      "name": "propertyIdToTokenAddress",
      "outputs": [
        {
          "internalType": "address",
          "name": "",
          "type": "address"
        }
      ],
      "stateMutability": "view",
      "type": "function"
    },
    {
      "inputs": [
        {
          "internalType": "uint256",
          "name": "_propertyId",
          "type": "uint256"
        },
        {
          "internalType": "address",
          "name": "_investor",
          "type": "address"
        }
      ],
      "name": "returnInvestment",
      "outputs": [],
      "stateMutability": "nonpayable",
      "type": "function"
    },
    {
      "inputs": [
        {
          "internalType": "uint256",
          "name": "",
          "type": "uint256"
        }
      ],
      "name": "totalInvestedAmount",
      "outputs": [
        {
          "internalType": "uint256",
          "name": "",
          "type": "uint256"
        }
      ],
      "stateMutability": "view",
      "type": "function"
    },
    {
      "inputs": [
        {
          "internalType": "uint256",
          "name": "_propertyId",
          "type": "uint256"
        },
        {
          "internalType": "uint256",
          "name": "_interestRate",
          "type": "uint256"
        }
      ],
      "name": "updateInterestRate",
      "outputs": [],
      "stateMutability": "nonpayable",
      "type": "function"
    },
    {
      "inputs": [
        {
          "internalType": "uint256",
          "name": "_propertyId",
          "type": "uint256"
        },
        {
          "internalType": "uint256",
          "name": "_updateLockingPeriod",
          "type": "uint256"
        }
      ],
      "name": "updateLockingPeriod",
      "outputs": [],
      "stateMutability": "nonpayable",
      "type": "function"
    },
    {
      "inputs": [
        {
          "internalType": "uint256",
          "name": "_propertyId",
          "type": "uint256"
        },
        {
          "internalType": "uint256",
          "name": "_tokenSupply",
          "type": "uint256"
        }
      ],
      "name": "updateTokenSupply",
      "outputs": [],
      "stateMutability": "nonpayable",
      "type": "function"
    }
  ],
  "bytecode": "0x608060405234801561001057600080fd5b50600180546001600160a01b03199081167378315cf7082dbb0174da3286d436bfe7577df8361790915560008054909116736010ad99dc78ae5cefd2f9fdec10a73eaf245450179055613c0d806100686000396000f3fe60806040523480156200001157600080fd5b50600436106200014e5760003560e01c806316280548146200015357806319004eaa146200016c57806330e1ad3214620001a25780633d51402c14620001b9578063514ff60214620001d257806354302a6d14620001e95780636ac2084514620002005780636f0a79c3146200022d5780637018f133146200024457806370e74ed8146200025b5780637178acaf14620002725780639c8376a2146200028c578063b1166a6514620002a3578063b11b32d214620002ba578063bbe02ea61462000327578063c1906396146200034a578063c37601d61462000376578063c54e44eb1462000399578063ca41920214620003ad578063dcec329414620003c4578063e1769b1f14620003e7578063e187c4d0146200040d578063e9b66f8c1462000424578063eb1cf0d6146200043b578063ec0cfd0b1462000452575b600080fd5b6200016a62000164366004620026a4565b6200045c565b005b620001836200017d366004620026a4565b6200059e565b6040516200019998979695949392919062002747565b60405180910390f35b62000183620001b3366004620026a4565b6200070d565b620001c362000756565b604051620001999190620027bb565b6200016a620001e3366004620028a0565b62000a3e565b6200016a620001fa366004620028de565b62000cfe565b60015462000214906001600160a01b031681565b6040516001600160a01b03909116815260200162000199565b6200016a6200023e366004620028de565b62001194565b6200016a62000255366004620028de565b62001292565b6200016a6200026c366004620028de565b62001390565b6003546200027d9081565b60405190815260200162000199565b6200016a6200029d366004620028de565b620015a8565b6200016a620002b4366004620028de565b62001816565b62000301620002cb366004620028a0565b60096020908152600092835260408084209091529082529020805460018201546002909201546001600160a01b03909116919083565b604080516001600160a01b03909416845260208401929092529082015260600162000199565b6200027d62000338366004620026a4565b60086020526000908152604090205481565b620002146200035b366004620026a4565b6005602052600090815260409020546001600160a01b031681565b6200027d62000387366004620026a4565b60076020526000908152604090205481565b60005462000214906001600160a01b031681565b6200016a620003be366004620028de565b62001b7d565b6200027d620003d5366004620026a4565b60066020526000908152604090205481565b620003fe620003f8366004620026a4565b62001c92565b60405162000199919062002901565b6200016a6200041e36600462002a0f565b62001d29565b6200016a62000435366004620026a4565b62001fcf565b620003016200044c366004620028de565b62002312565b620001c36200235f565b6001546001600160a01b03163314620004925760405162461bcd60e51b8152600401620004899062002a94565b60405180910390fd5b600160008281526004602052604090206007015460ff166003811115620004bd57620004bd6200270e565b14620005065760405162461bcd60e51b815260206004820152601760248201527650726f706572747920646f206e6f74206578697374212160481b604482015260640162000489565b6000600282815481106200051e576200051e62002adb565b600091825260208083206007600890930201828101805460ff1990811660039081179092558786526004909352604080862094850180549094169091179092556001929092015490519193506001600160a01b03169184917f20c3f6c05c7e19bdede114be8541156ce9a11f5514af34a95876a8c4c72ac19d9190a35050565b60046020526000908152604090208054600182015460028301805492936001600160a01b0390921692620005d29062002af1565b80601f0160208091040260200160405190810160405280929190818152602001828054620006009062002af1565b8015620006515780601f10620006255761010080835404028352916020019162000651565b820191906000526020600020905b8154815290600101906020018083116200063357829003601f168201915b505050505090806003018054620006689062002af1565b80601f0160208091040260200160405190810160405280929190818152602001828054620006969062002af1565b8015620006e75780601f10620006bb57610100808354040283529160200191620006e7565b820191906000526020600020905b815481529060010190602001808311620006c957829003601f168201915b505050506004830154600584015460068501546007909501549394919390925060ff1688565b600281815481106200071e57600080fd5b60009182526020909120600890910201805460018201546002830180549294506001600160a01b039091169291620005d29062002af1565b606060006200076460035490565b6001600160401b038111156200077e576200077e62002965565b604051908082528060200260200182016040528015620007bb57816020015b620007a76200258f565b8152602001906001900390816200079d5790505b5090506000805b600354811162000a3657600060028281548110620007e457620007e462002adb565b906000526020600020906008020160000154111562000a21576002818154811062000813576200081362002adb565b906000526020600020906008020160405180610100016040529081600082015481526020016001820160009054906101000a90046001600160a01b03166001600160a01b03166001600160a01b03168152602001600282018054620008789062002af1565b80601f0160208091040260200160405190810160405280929190818152602001828054620008a69062002af1565b8015620008f75780601f10620008cb57610100808354040283529160200191620008f7565b820191906000526020600020905b815481529060010190602001808311620008d957829003601f168201915b50505050508152602001600382018054620009129062002af1565b80601f0160208091040260200160405190810160405280929190818152602001828054620009409062002af1565b8015620009915780601f10620009655761010080835404028352916020019162000991565b820191906000526020600020905b8154815290600101906020018083116200097357829003601f168201915b5050509183525050600482015460208201526005820154604082015260068201546060820152600782015460809091019060ff166003811115620009d957620009d96200270e565b6003811115620009ed57620009ed6200270e565b8152505083838151811062000a065762000a0662002adb565b602090810291909101015262000a1e8260016200256c565b91505b8062000a2d8162002b44565b915050620007c2565b509092915050565b6000828152600460205260409020600101546001600160a01b0316331462000a7a5760405162461bcd60e51b8152600401620004899062002b62565b600082815260046020908152604080832060060154600983528184206001600160a01b0386168552909252909120600201544291829162000abc919062002ba9565b1062000b175760405162461bcd60e51b815260206004820152602360248201527f4c6f636b696e6720706572696f642069736e277420636f6d706c65746564207960448201526265742160e81b606482015260840162000489565b60008381526009602090815260408083206001600160a01b03861684528252808320600101548684526004909252822060050154909162000b6761271062000b60848662002bc4565b9062002581565b60008781526009602090815260408083206001600160a01b038a1684529091528120600101549192509062000b9e90839062002ba9565b60005460405163095ea7b360e01b81529192506001600160a01b03169063095ea7b39062000bd3903090859060040162002be6565b6020604051808303816000875af115801562000bf3573d6000803e3d6000fd5b505050506040513d601f19601f8201168201806040525081019062000c19919062002bff565b506000546040516323b872dd60e01b81526001600160a01b03909116906323b872dd9062000c509033903090869060040162002c23565b6020604051808303816000875af115801562000c70573d6000803e3d6000fd5b505050506040513d601f19601f8201168201806040525081019062000c96919062002bff565b5060008781526009602090815260408083206001600160a01b038a168085529083529281902060010154905190815283929133917f645022e31d6162246261bb5098eb1ecd11cb872ee031fab138452aafc9240db2910160405180910390a450505050505050565b600260008381526004602052604090206007015460ff16600381111562000d295762000d296200270e565b1462000db05760405162461bcd60e51b815260206004820152604960248201527f50726f70657274792069736e277420617070726f76656420796574212c20576160448201527f697420666f7220706c6174666f726d20746f20617070726f7665207468697320606482015268383937b832b93a3c9760b91b608482015260a40162000489565b60008281526006602052604090205481111562000e365760405162461bcd60e51b815260206004820152603f60248201527f496e76657374656420416d6f756e74206578636565647320746865206e756d6260448201527f6572206f662050726f706572747920546f6b656e7320617661696c61626c6500606482015260840162000489565b60005460405163095ea7b360e01b81526001600160a01b039091169063095ea7b39062000e6a903090859060040162002be6565b6020604051808303816000875af115801562000e8a573d6000803e3d6000fd5b505050506040513d601f19601f8201168201806040525081019062000eb0919062002bff565b506000546040516323b872dd60e01b81526001600160a01b03909116906323b872dd9062000ee79033903090869060040162002c23565b6020604051808303816000875af115801562000f07573d6000803e3d6000fd5b505050506040513d601f19601f8201168201806040525081019062000f2d919062002bff565b506000828152600760205260408120805483929062000f4e90849062002ba9565b90915550506000828152600560205260409081902054905163095ea7b360e01b81526001600160a01b039091169063095ea7b39062000f94903390859060040162002be6565b6020604051808303816000875af115801562000fb4573d6000803e3d6000fd5b505050506040513d601f19601f8201168201806040525081019062000fda919062002bff565b50600082815260056020526040908190205490516323b872dd60e01b81526001600160a01b03909116906323b872dd906200101e9030903390869060040162002c23565b6020604051808303816000875af11580156200103e573d6000803e3d6000fd5b505050506040513d601f19601f8201168201806040525081019062001064919062002bff565b50600082815260066020526040812080548392906200108590849062002c47565b909155505060408051606080820183523380835260208084018681524285870181815260008a8152600985528881208682528552888120975188546001600160a01b03199081166001600160a01b03928316178a5594516001808b0191825593516002808c019182558e8552600a89528c8520805480880182559086528986209c546003909102909c0180549c9094169b9097169a909a178255549281019290925596549201919091558785526004808352948690209485015460059095015486518981529283019390935281860187905292810193909352608083015291517f5b6aba494d396d077ec63d680e22ee6cc881e6182750f6869757afeb3f65c7fb9181900360a00190a1505050565b600160008381526004602052604090206007015460ff166003811115620011bf57620011bf6200270e565b14620011df5760405162461bcd60e51b8152600401620004899062002c61565b6000828152600460205260409020600101546001600160a01b031633146200121b5760405162461bcd60e51b8152600401620004899062002cae565b6000828152600460205260408120600501829055600280548490811062001246576200124662002adb565b9060005260206000209060080201905081816005018190555081837f41e376fd99913dea7fda140f5c0bd997515b1a181acc58737320322548ec6e7260405160405180910390a3505050565b600160008381526004602052604090206007015460ff166003811115620012bd57620012bd6200270e565b14620012dd5760405162461bcd60e51b8152600401620004899062002c61565b6000828152600460205260409020600101546001600160a01b03163314620013195760405162461bcd60e51b8152600401620004899062002cae565b6000828152600460205260408120600601829055600280548490811062001344576200134462002adb565b9060005260206000209060080201905081816006018190555081837f579a94973cd8ae08593ee544f98e6c6c7f33b886a3ee478234ae587dfc75ff5f60405160405180910390a3505050565b6000828152600460205260409020600101546001600160a01b03163314620013cc5760405162461bcd60e51b8152600401620004899062002b62565b6000828152600660205260409020548111156200143e5760405162461bcd60e51b815260206004820152602960248201527f596f752061726520636c61696d696e67206d6f726520746f6b656e73207468616044820152686e206c6f636b65642160b81b606482015260840162000489565b6000828152600560205260409081902054905163095ea7b360e01b81526001600160a01b039091169063095ea7b3906200147f903390859060040162002be6565b6020604051808303816000875af11580156200149f573d6000803e3d6000fd5b505050506040513d601f19601f82011682018060405250810190620014c5919062002bff565b50600082815260056020526040908190205490516323b872dd60e01b81526001600160a01b03909116906323b872dd90620015099030903390869060040162002c23565b6020604051808303816000875af115801562001529573d6000803e3d6000fd5b505050506040513d601f19601f820116820180604052508101906200154f919062002bff565b50600082815260066020526040812080548392906200157090849062002c47565b90915550506040518190839033907f047a01931146bd51789285412060ef22e95b412421f3d9fa44820f43d69158c990600090a45050565b6000828152600460205260409020600101546001600160a01b03163314620016235760405162461bcd60e51b815260206004820152602760248201527f596f7520617265206e6f7420746865206f6e776572206f6620746869732070726044820152666f70657274792160c81b606482015260840162000489565b600082815260086020908152604080832054600790925282205462001649919062002c47565b9050808211156200169d5760405162461bcd60e51b815260206004820152601e60248201527f416d6f756e742065786365656473207468616e20617661696c61626c65210000604482015260640162000489565b600080548482526004602081905260409283902060010154925163095ea7b360e01b81526001600160a01b039283169363095ea7b393620016e49391169187910162002be6565b6020604051808303816000875af115801562001704573d6000803e3d6000fd5b505050506040513d601f19601f820116820180604052508101906200172a919062002bff565b5060008054848252600460208190526040928390206001015492516323b872dd60e01b81526001600160a01b03928316936323b872dd9362001776933093929091169188910162002c23565b6020604051808303816000875af115801562001796573d6000803e3d6000fd5b505050506040513d601f19601f82011682018060405250810190620017bc919062002bff565b5060008381526008602052604081208054849290620017dd90849062002ba9565b90915550506040518290849033907f5013455c3e61c232b845b4904991bc6dd2e1e7f2b603c27976428e1e3783604f90600090a4505050565b6000828152600960209081526040808320338085529252909120546001600160a01b031614620018995760405162461bcd60e51b815260206004820152602760248201527f596f752068617665206e6f7420696e76657374656420696e20746869732070726044820152666f70657274792160c81b606482015260840162000489565b60005460405163095ea7b360e01b81526001600160a01b039091169063095ea7b390620018cd903390859060040162002be6565b6020604051808303816000875af1158015620018ed573d6000803e3d6000fd5b505050506040513d601f19601f8201168201806040525081019062001913919062002bff565b506000546040516323b872dd60e01b81526001600160a01b03909116906323b872dd906200194a9030903390869060040162002c23565b6020604051808303816000875af11580156200196a573d6000803e3d6000fd5b505050506040513d601f19601f8201168201806040525081019062001990919062002bff565b50600082815260096020908152604080832033845282528083206001015485845260079092528220805491929091620019cb90849062002c47565b9091555050600082815260056020908152604080832054600983528184203385529092529182902060010154915163095ea7b360e01b81526001600160a01b039091169163095ea7b39162001a2591309160040162002be6565b6020604051808303816000875af115801562001a45573d6000803e3d6000fd5b505050506040513d601f19601f8201168201806040525081019062001a6b919062002bff565b5060008281526005602090815260408083205460098352818420338086529352928190206001015490516323b872dd60e01b81526001600160a01b03909316926323b872dd9262001ac492909130919060040162002c23565b6020604051808303816000875af115801562001ae4573d6000803e3d6000fd5b505050506040513d601f19601f8201168201806040525081019062001b0a919062002bff565b5060008281526009602090815260408083203384528252808320600101548584526006909252822080549192909162001b4590849062002ba9565b90915550506040518190839033907f9eb6ad036b583d67a9d59264fa4e88903248adefb4bf132d63d3bf890f028ecd90600090a45050565b600160008381526004602052604090206007015460ff16600381111562001ba85762001ba86200270e565b1462001bc85760405162461bcd60e51b8152600401620004899062002c61565b6000828152600460205260409020600101546001600160a01b0316331462001c045760405162461bcd60e51b8152600401620004899062002cae565b6000828152600460208190526040822001829055600280548490811062001c2f5762001c2f62002adb565b9060005260206000209060080201905081816004018190555082336001600160a01b03167ffd17840844998d983162f4c1ff366abe0017376b765c544127260d81277d49e38460405162001c8591815260200190565b60405180910390a3505050565b6060600a6000838152602001908152602001600020805480602002602001604051908101604052809291908181526020016000905b8282101562001d1e576000848152602090819020604080516060810182526003860290920180546001600160a01b031683526001808201548486015260029091015491830191909152908352909201910162001cc7565b505050509050919050565b62001d336200258f565b60038054808352600180820190925533602080850191825260408086018b8152606087018b9052608087018a905260a0870189905260c0870188905260e08701869052600094855260048352932085518155915193820180546001600160a01b0319166001600160a01b039095169490941790935590518051849362001dc1926002850192910190620025f0565b506060820151805162001ddf916003840191602090910190620025f0565b506080820151600482015560a0820151600582015560c0820151600682015560e082015160078201805460ff1916600183600381111562001e245762001e246200270e565b021790555090505060026040518061010001604052808360000151815260200183602001516001600160a01b031681526020018360400151815260200183606001518152602001836080015181526020018360a0015181526020018360c0015181526020018360e00151600381111562001ea25762001ea26200270e565b9052815460018082018455600093845260209384902083516008909302019182558284015190820180546001600160a01b0319166001600160a01b03909216919091179055604082015180519293919262001f049260028501920190620025f0565b506060820151805162001f22916003840191602090910190620025f0565b506080820151600482015560a0820151600582015560c0820151600682015560e082015160078201805460ff1916600183600381111562001f675762001f676200270e565b02179055505081516040808401516060850151608086015160a087015160c088015194513397507fa3620867456bd4cf6d4d4b5f9483d8058bb00a2314801172b3945d02ac2e7fde9562001fbf959493929162002cf5565b60405180910390a3505050505050565b6001546001600160a01b0316331462001ffc5760405162461bcd60e51b8152600401620004899062002a94565b600160008281526004602052604090206007015460ff1660038111156200202757620020276200270e565b146200206f5760405162461bcd60e51b815260206004820152601660248201527550726f706572747920646f206e6f742065786973742160501b604482015260640162000489565b6000818152600460208190526040808320918201549051600283019260030191906200209b906200267f565b620020a99392919062002de4565b604051809103906000f080158015620020c6573d6000803e3d6000fd5b50600083815260056020908152604080832080546001600160a01b0319166001600160a01b03861690811790915560049283905292819020820154905163095ea7b360e01b8152939450919263095ea7b392620021269230920162002be6565b6020604051808303816000875af115801562002146573d6000803e3d6000fd5b505050506040513d601f19601f820116820180604052508101906200216c919062002bff565b5060008281526005602090815260408083205460049283905292819020820154905163a9059cbb60e01b81526001600160a01b039093169263a9059cbb92620021ba92309290910162002be6565b6020604051808303816000875af1158015620021da573d6000803e3d6000fd5b505050506040513d601f19601f8201168201806040525081019062002200919062002bff565b5060008281526004602081815260408084209092015460069091529082208054919290916200223190849062002ba9565b90915550506000828152600460205260408120600701805460ff191660029081179091558054849081106200226a576200226a62002adb565b600091825260208083206007600890930201828101805460ff1916600290811790915587855260058352604080862054600494859052958190206001810154948101549581015491519397506001600160a01b03968716969094169489947fc79a6979ef016ac585e84c1542046677bd781e6c2e9012a61c605fd9104425ff9462002305948201936003909201929160ff1690829062002e1e565b60405180910390a4505050565b600a60205281600052604060002081815481106200232f57600080fd5b60009182526020909120600390910201805460018201546002909201546001600160a01b03909116935090915083565b60606002805480602002602001604051908101604052809291908181526020016000905b82821015620025635760008481526020908190206040805161010081018252600886029092018054835260018101546001600160a01b03169383019390935260028301805492939291840191620023da9062002af1565b80601f0160208091040260200160405190810160405280929190818152602001828054620024089062002af1565b8015620024595780601f106200242d5761010080835404028352916020019162002459565b820191906000526020600020905b8154815290600101906020018083116200243b57829003601f168201915b50505050508152602001600382018054620024749062002af1565b80601f0160208091040260200160405190810160405280929190818152602001828054620024a29062002af1565b8015620024f35780601f10620024c757610100808354040283529160200191620024f3565b820191906000526020600020905b815481529060010190602001808311620024d557829003601f168201915b5050509183525050600482015460208201526005820154604082015260068201546060820152600782015460809091019060ff1660038111156200253b576200253b6200270e565b60038111156200254f576200254f6200270e565b815250508152602001906001019062002383565b50505050905090565b60006200257a828462002ba9565b9392505050565b60006200257a828462002e6f565b6040518061010001604052806000815260200160006001600160a01b03168152602001606081526020016060815260200160008152602001600081526020016000815260200160006003811115620025eb57620025eb6200270e565b905290565b828054620025fe9062002af1565b90600052602060002090601f0160209004810192826200262257600085556200266d565b82601f106200263d57805160ff19168380011785556200266d565b828001600101855582156200266d579182015b828111156200266d57825182559160200191906001019062002650565b506200267b9291506200268d565b5090565b610d458062002e9383390190565b5b808211156200267b57600081556001016200268e565b600060208284031215620026b757600080fd5b5035919050565b6000815180845260005b81811015620026e657602081850181015186830182015201620026c8565b81811115620026f9576000602083870101525b50601f01601f19169290920160200192915050565b634e487b7160e01b600052602160045260246000fd5b600481106200274357634e487b7160e01b600052602160045260246000fd5b9052565b8881526001600160a01b038816602082015261010060408201819052600090620027748382018a620026be565b905082810360608401526200278a8189620026be565b9150508560808301528460a08301528360c0830152620027ae60e083018462002724565b9998505050505050505050565b60006020808301818452808551808352604092508286019150828160051b87010184880160005b838110156200289257888303603f19018552815180518452878101516001600160a01b03168885015286810151610100888601819052906200282782870182620026be565b91505060608083015186830382880152620028438382620026be565b6080858101519089015260a0808601519089015260c0808601519089015260e0948501519490935091506200287d90508187018462002724565b509588019593505090860190600101620027e2565b509098975050505050505050565b60008060408385031215620028b457600080fd5b8235915060208301356001600160a01b0381168114620028d357600080fd5b809150509250929050565b60008060408385031215620028f257600080fd5b50508035926020909101359150565b602080825282518282018190526000919060409081850190868401855b828110156200295857815180516001600160a01b03168552868101518786015285015185850152606090930192908501906001016200291e565b5091979650505050505050565b634e487b7160e01b600052604160045260246000fd5b600082601f8301126200298d57600080fd5b81356001600160401b0380821115620029aa57620029aa62002965565b604051601f8301601f19908116603f01168101908282118183101715620029d557620029d562002965565b81604052838152866020858801011115620029ef57600080fd5b836020870160208301376000602085830101528094505050505092915050565b600080600080600060a0868803121562002a2857600080fd5b85356001600160401b038082111562002a4057600080fd5b62002a4e89838a016200297b565b9650602088013591508082111562002a6557600080fd5b5062002a74888289016200297b565b959895975050505060408401359360608101359360809091013592509050565b60208082526027908201527f43616c6c6572206973206e6f7420746865206f776e6572206f662074686520706040820152666c6174666f726d60c81b606082015260800190565b634e487b7160e01b600052603260045260246000fd5b600181811c9082168062002b0657607f821691505b6020821081141562002b2857634e487b7160e01b600052602260045260246000fd5b50919050565b634e487b7160e01b600052601160045260246000fd5b600060001982141562002b5b5762002b5b62002b2e565b5060010190565b60208082526027908201527f596f7520617265206e6f7420746865206f776e6572206f6620746869732070726040820152666f70657274792160c81b606082015260800190565b6000821982111562002bbf5762002bbf62002b2e565b500190565b600081600019048311821515161562002be15762002be162002b2e565b500290565b6001600160a01b03929092168252602082015260400190565b60006020828403121562002c1257600080fd5b815180151581146200257a57600080fd5b6001600160a01b039384168152919092166020820152604081019190915260600190565b60008282101562002c5c5762002c5c62002b2e565b500390565b6020808252602d908201527f50726f70657274792068617320616c7265616479206265656e20415050524f5660408201526c4544206f722042414e4e45442160981b606082015260800190565b60208082526027908201527f596f7520617265206e6f7420746865206f776e6572206f6620746869732050726040820152666f70657274792160c81b606082015260800190565b60a08152600062002d0a60a0830188620026be565b828103602084015262002d1e8188620026be565b60408401969096525050606081019290925260809091015292915050565b8054600090600181811c908083168062002d5757607f831692505b602080841082141562002d7a57634e487b7160e01b600052602260045260246000fd5b8388526020880182801562002d98576001811462002daa5762002dd7565b60ff1987168252828201975062002dd7565b60008981526020902060005b8781101562002dd15781548482015290860190840162002db6565b83019850505b5050505050505092915050565b60608152600062002df9606083018662002d3c565b828103602084015262002e0d818662002d3c565b915050826040830152949350505050565b60a08152600062002e3360a083018862002d3c565b828103602084015262002e47818862002d3c565b91505084604083015262002e5f606083018562002724565b8260808301529695505050505050565b60008262002e8d57634e487b7160e01b600052601260045260246000fd5b50049056fe60806040523480156200001157600080fd5b5060405162000d4538038062000d458339810160408190526200003491620002d1565b8251839083906200004d9060039060208501906200015e565b508051620000639060049060208401906200015e565b50601291506200008e9050336200007c83600a62000459565b6200008890856200046e565b62000098565b50505050620004e8565b6001600160a01b038216620000f35760405162461bcd60e51b815260206004820152601f60248201527f45524332303a206d696e7420746f20746865207a65726f206164647265737300604482015260640160405180910390fd5b806002600082825462000107919062000490565b90915550506001600160a01b038216600081815260208181526040808320805486019055518481527fddf252ad1be2c89b69c2b068fc378daa952ba7f163c4a11628f55a4df523b3ef910160405180910390a35050565b8280546200016c90620004ab565b90600052602060002090601f016020900481019282620001905760008555620001db565b82601f10620001ab57805160ff1916838001178555620001db565b82800160010185558215620001db579182015b82811115620001db578251825591602001919060010190620001be565b50620001e9929150620001ed565b5090565b5b80821115620001e95760008155600101620001ee565b634e487b7160e01b600052604160045260246000fd5b600082601f8301126200022c57600080fd5b81516001600160401b038082111562000249576200024962000204565b604051601f8301601f19908116603f0116810190828211818310171562000274576200027462000204565b816040528381526020925086838588010111156200029157600080fd5b600091505b83821015620002b5578582018301518183018401529082019062000296565b83821115620002c75760008385830101525b9695505050505050565b600080600060608486031215620002e757600080fd5b83516001600160401b0380821115620002ff57600080fd5b6200030d878388016200021a565b945060208601519150808211156200032457600080fd5b5062000333868287016200021a565b925050604084015190509250925092565b634e487b7160e01b600052601160045260246000fd5b600181815b808511156200039b5781600019048211156200037f576200037f62000344565b808516156200038d57918102915b93841c93908002906200035f565b509250929050565b600082620003b45750600162000453565b81620003c35750600062000453565b8160018114620003dc5760028114620003e75762000407565b600191505062000453565b60ff841115620003fb57620003fb62000344565b50506001821b62000453565b5060208310610133831016604e8410600b84101617156200042c575081810a62000453565b6200043883836200035a565b80600019048211156200044f576200044f62000344565b0290505b92915050565b6000620004678383620003a3565b9392505050565b60008160001904831182151516156200048b576200048b62000344565b500290565b60008219821115620004a657620004a662000344565b500190565b600181811c90821680620004c057607f821691505b60208210811415620004e257634e487b7160e01b600052602260045260246000fd5b50919050565b61084d80620004f86000396000f3fe608060405234801561001057600080fd5b50600436106100995760003560e01c806306fdde031461009e578063095ea7b3146100bc57806318160ddd146100df57806323b872dd146100f1578063313ce56714610104578063395093511461011357806370a082311461012657806395d89b411461014f578063a457c2d714610157578063a9059cbb1461016a578063dd62ed3e1461017d575b600080fd5b6100a6610190565b6040516100b3919061068a565b60405180910390f35b6100cf6100ca3660046106fb565b610222565b60405190151581526020016100b3565b6002545b6040519081526020016100b3565b6100cf6100ff366004610725565b61023a565b604051601281526020016100b3565b6100cf6101213660046106fb565b61025e565b6100e3610134366004610761565b6001600160a01b031660009081526020819052604090205490565b6100a6610280565b6100cf6101653660046106fb565b61028f565b6100cf6101783660046106fb565b61030f565b6100e361018b366004610783565b61031d565b60606003805461019f906107b6565b80601f01602080910402602001604051908101604052809291908181526020018280546101cb906107b6565b80156102185780601f106101ed57610100808354040283529160200191610218565b820191906000526020600020905b8154815290600101906020018083116101fb57829003601f168201915b5050505050905090565b600033610230818585610348565b5060019392505050565b60003361024885828561046c565b6102538585856104e6565b506001949350505050565b600033610230818585610271838361031d565b61027b91906107f1565b610348565b60606004805461019f906107b6565b6000338161029d828661031d565b9050838110156103025760405162461bcd60e51b815260206004820152602560248201527f45524332303a2064656372656173656420616c6c6f77616e63652062656c6f77604482015264207a65726f60d81b60648201526084015b60405180910390fd5b6102538286868403610348565b6000336102308185856104e6565b6001600160a01b03918216600090815260016020908152604080832093909416825291909152205490565b6001600160a01b0383166103aa5760405162461bcd60e51b8152602060048201526024808201527f45524332303a20617070726f76652066726f6d20746865207a65726f206164646044820152637265737360e01b60648201526084016102f9565b6001600160a01b03821661040b5760405162461bcd60e51b815260206004820152602260248201527f45524332303a20617070726f766520746f20746865207a65726f206164647265604482015261737360f01b60648201526084016102f9565b6001600160a01b0383811660008181526001602090815260408083209487168084529482529182902085905590518481527f8c5be1e5ebec7d5bd14f71427d1e84f3dd0314c0f7b2291e5b200ac8c7c3b925910160405180910390a3505050565b6000610478848461031d565b905060001981146104e057818110156104d35760405162461bcd60e51b815260206004820152601d60248201527f45524332303a20696e73756666696369656e7420616c6c6f77616e636500000060448201526064016102f9565b6104e08484848403610348565b50505050565b6001600160a01b03831661054a5760405162461bcd60e51b815260206004820152602560248201527f45524332303a207472616e736665722066726f6d20746865207a65726f206164604482015264647265737360d81b60648201526084016102f9565b6001600160a01b0382166105ac5760405162461bcd60e51b815260206004820152602360248201527f45524332303a207472616e7366657220746f20746865207a65726f206164647260448201526265737360e81b60648201526084016102f9565b6001600160a01b038316600090815260208190526040902054818110156106245760405162461bcd60e51b815260206004820152602660248201527f45524332303a207472616e7366657220616d6f756e7420657863656564732062604482015265616c616e636560d01b60648201526084016102f9565b6001600160a01b03848116600081815260208181526040808320878703905593871680835291849020805487019055925185815290927fddf252ad1be2c89b69c2b068fc378daa952ba7f163c4a11628f55a4df523b3ef910160405180910390a36104e0565b600060208083528351808285015260005b818110156106b75785810183015185820160400152820161069b565b818111156106c9576000604083870101525b50601f01601f1916929092016040019392505050565b80356001600160a01b03811681146106f657600080fd5b919050565b6000806040838503121561070e57600080fd5b610717836106df565b946020939093013593505050565b60008060006060848603121561073a57600080fd5b610743846106df565b9250610751602085016106df565b9150604084013590509250925092565b60006020828403121561077357600080fd5b61077c826106df565b9392505050565b6000806040838503121561079657600080fd5b61079f836106df565b91506107ad602084016106df565b90509250929050565b600181811c908216806107ca57607f821691505b602082108114156107eb57634e487b7160e01b600052602260045260246000fd5b50919050565b6000821982111561081257634e487b7160e01b600052601160045260246000fd5b50019056fea2646970667358221220bae81446b9490ba4388492a316e92f70851b28d69547c187d8a090595aca0a0d64736f6c634300080c0033a2646970667358221220dae917acc9086ef72800159d0d672948a92d4f660521673dde9e9338c8e512c764736f6c634300080c0033",
  "linkReferences": {},
  "deployedLinkReferences": {}
}